{
  "_format": "hh-sol-artifact-1",
  "contractName": "NFTMarketplace",
  "sourceName": "contracts/NFTMarketplace.sol",
  "abi": [
    {
      "inputs": [],
      "stateMutability": "nonpayable",
      "type": "constructor"
    },
    {
      "anonymous": false,
      "inputs": [
        {
          "indexed": true,
          "internalType": "address",
          "name": "owner",
          "type": "address"
        },
        {
          "indexed": true,
          "internalType": "address",
          "name": "approved",
          "type": "address"
        },
        {
          "indexed": true,
          "internalType": "uint256",
          "name": "tokenId",
          "type": "uint256"
        }
      ],
      "name": "Approval",
      "type": "event"
    },
    {
      "anonymous": false,
      "inputs": [
        {
          "indexed": true,
          "internalType": "address",
          "name": "owner",
          "type": "address"
        },
        {
          "indexed": true,
          "internalType": "address",
          "name": "operator",
          "type": "address"
        },
        {
          "indexed": false,
          "internalType": "bool",
          "name": "approved",
          "type": "bool"
        }
      ],
      "name": "ApprovalForAll",
      "type": "event"
    },
    {
      "anonymous": false,
      "inputs": [
        {
          "indexed": false,
          "internalType": "uint256",
          "name": "_fromTokenId",
          "type": "uint256"
        },
        {
          "indexed": false,
          "internalType": "uint256",
          "name": "_toTokenId",
          "type": "uint256"
        }
      ],
      "name": "BatchMetadataUpdate",
      "type": "event"
    },
    {
      "anonymous": false,
      "inputs": [
        {
          "indexed": false,
          "internalType": "string",
          "name": "name",
          "type": "string"
        },
        {
          "indexed": false,
          "internalType": "string",
          "name": "message",
          "type": "string"
        },
        {
          "indexed": false,
          "internalType": "uint256",
          "name": "timestamp",
          "type": "uint256"
        },
        {
          "indexed": false,
          "internalType": "address",
          "name": "buyer",
          "type": "address"
        },
        {
          "indexed": false,
          "internalType": "uint256",
          "name": "amount",
          "type": "uint256"
        }
      ],
      "name": "ChaiBought",
      "type": "event"
    },
    {
      "anonymous": false,
      "inputs": [
        {
          "indexed": true,
          "internalType": "address",
          "name": "from",
          "type": "address"
        },
        {
          "indexed": false,
          "internalType": "string",
          "name": "name",
          "type": "string"
        },
        {
          "indexed": false,
          "internalType": "string",
          "name": "message",
          "type": "string"
        },
        {
          "indexed": false,
          "internalType": "uint256",
          "name": "timestamp",
          "type": "uint256"
        },
        {
          "indexed": false,
          "internalType": "uint256",
          "name": "amount",
          "type": "uint256"
        }
      ],
      "name": "Donation",
      "type": "event"
    },
    {
      "anonymous": false,
      "inputs": [
        {
          "indexed": false,
          "internalType": "uint256",
          "name": "newPrice",
          "type": "uint256"
        }
      ],
      "name": "ListingPriceUpdated",
      "type": "event"
    },
    {
      "anonymous": false,
      "inputs": [
        {
          "indexed": true,
          "internalType": "uint256",
          "name": "tokenId",
          "type": "uint256"
        },
        {
          "indexed": false,
          "internalType": "address",
          "name": "seller",
          "type": "address"
        },
        {
          "indexed": false,
          "internalType": "address",
          "name": "owner",
          "type": "address"
        },
        {
          "indexed": false,
          "internalType": "uint256",
          "name": "price",
          "type": "uint256"
        },
        {
          "indexed": false,
          "internalType": "bool",
          "name": "sold",
          "type": "bool"
        }
      ],
      "name": "MarketItemCreated",
      "type": "event"
    },
    {
      "anonymous": false,
      "inputs": [
        {
          "indexed": true,
          "internalType": "uint256",
          "name": "tokenId",
          "type": "uint256"
        },
        {
          "indexed": false,
          "internalType": "address",
          "name": "buyer",
          "type": "address"
        },
        {
          "indexed": false,
          "internalType": "address",
          "name": "seller",
          "type": "address"
        },
        {
          "indexed": false,
          "internalType": "uint256",
          "name": "price",
          "type": "uint256"
        }
      ],
      "name": "MarketSale",
      "type": "event"
    },
    {
      "anonymous": false,
      "inputs": [
        {
          "indexed": false,
          "internalType": "uint256",
          "name": "_tokenId",
          "type": "uint256"
        }
      ],
      "name": "MetadataUpdate",
      "type": "event"
    },
    {
      "anonymous": false,
      "inputs": [
        {
          "indexed": true,
          "internalType": "uint256",
          "name": "tokenId",
          "type": "uint256"
        },
        {
          "indexed": false,
          "internalType": "address",
          "name": "seller",
          "type": "address"
        },
        {
          "indexed": false,
          "internalType": "address",
          "name": "owner",
          "type": "address"
        },
        {
          "indexed": false,
          "internalType": "uint256",
          "name": "price",
          "type": "uint256"
        }
      ],
      "name": "TokenResold",
      "type": "event"
    },
    {
      "anonymous": false,
      "inputs": [
        {
          "indexed": true,
          "internalType": "address",
          "name": "from",
          "type": "address"
        },
        {
          "indexed": true,
          "internalType": "address",
          "name": "to",
          "type": "address"
        },
        {
          "indexed": true,
          "internalType": "uint256",
          "name": "tokenId",
          "type": "uint256"
        }
      ],
      "name": "Transfer",
      "type": "event"
    },
    {
      "inputs": [],
      "name": "Rowner",
      "outputs": [
        {
          "internalType": "address payable",
          "name": "",
          "type": "address"
        }
      ],
      "stateMutability": "view",
      "type": "function"
    },
    {
      "inputs": [
        {
          "internalType": "address",
          "name": "to",
          "type": "address"
        },
        {
          "internalType": "uint256",
          "name": "tokenId",
          "type": "uint256"
        }
      ],
      "name": "approve",
      "outputs": [],
      "stateMutability": "nonpayable",
      "type": "function"
    },
    {
      "inputs": [
        {
          "internalType": "address",
          "name": "owner",
          "type": "address"
        }
      ],
      "name": "balanceOf",
      "outputs": [
        {
          "internalType": "uint256",
          "name": "",
          "type": "uint256"
        }
      ],
      "stateMutability": "view",
      "type": "function"
    },
    {
      "inputs": [
        {
          "internalType": "string",
          "name": "name",
          "type": "string"
        },
        {
          "internalType": "string",
          "name": "message",
          "type": "string"
        }
      ],
      "name": "buyChai",
      "outputs": [],
      "stateMutability": "payable",
      "type": "function"
    },
    {
      "inputs": [
        {
          "internalType": "uint256",
          "name": "tokenId",
          "type": "uint256"
        }
      ],
      "name": "createMarketSale",
      "outputs": [],
      "stateMutability": "payable",
      "type": "function"
    },
    {
      "inputs": [
        {
          "internalType": "string",
          "name": "tokenURI",
          "type": "string"
        },
        {
          "internalType": "uint256",
          "name": "price",
          "type": "uint256"
        }
      ],
      "name": "createToken",
      "outputs": [
        {
          "internalType": "uint256",
          "name": "",
          "type": "uint256"
        }
      ],
      "stateMutability": "payable",
      "type": "function"
    },
    {
      "inputs": [
        {
          "internalType": "address",
          "name": "creator",
          "type": "address"
        }
      ],
      "name": "fetchItemsListed",
      "outputs": [
        {
          "components": [
            {
              "internalType": "uint256",
              "name": "tokenId",
              "type": "uint256"
            },
            {
              "internalType": "address payable",
              "name": "seller",
              "type": "address"
            },
            {
              "internalType": "address payable",
              "name": "owner",
              "type": "address"
            },
            {
              "internalType": "uint256",
              "name": "price",
              "type": "uint256"
            },
            {
              "internalType": "bool",
              "name": "sold",
              "type": "bool"
            }
          ],
          "internalType": "struct NFTMarketplace.MarketItem[]",
          "name": "",
          "type": "tuple[]"
        }
      ],
      "stateMutability": "view",
      "type": "function"
    },
    {
      "inputs": [],
      "name": "fetchMarketItems",
      "outputs": [
        {
          "components": [
            {
              "internalType": "uint256",
              "name": "tokenId",
              "type": "uint256"
            },
            {
              "internalType": "address payable",
              "name": "seller",
              "type": "address"
            },
            {
              "internalType": "address payable",
              "name": "owner",
              "type": "address"
            },
            {
              "internalType": "uint256",
              "name": "price",
              "type": "uint256"
            },
            {
              "internalType": "bool",
              "name": "sold",
              "type": "bool"
            }
          ],
          "internalType": "struct NFTMarketplace.MarketItem[]",
          "name": "",
          "type": "tuple[]"
        }
      ],
      "stateMutability": "view",
      "type": "function"
    },
    {
      "inputs": [
        {
          "internalType": "address",
          "name": "creator",
          "type": "address"
        }
      ],
      "name": "fetchMyNFTs",
      "outputs": [
        {
          "components": [
            {
              "internalType": "uint256",
              "name": "tokenId",
              "type": "uint256"
            },
            {
              "internalType": "address payable",
              "name": "seller",
              "type": "address"
            },
            {
              "internalType": "address payable",
              "name": "owner",
              "type": "address"
            },
            {
              "internalType": "uint256",
              "name": "price",
              "type": "uint256"
            },
            {
              "internalType": "bool",
              "name": "sold",
              "type": "bool"
            }
          ],
          "internalType": "struct NFTMarketplace.MarketItem[]",
          "name": "",
          "type": "tuple[]"
        }
      ],
      "stateMutability": "view",
      "type": "function"
    },
    {
      "inputs": [
        {
          "internalType": "uint256",
          "name": "tokenId",
          "type": "uint256"
        }
      ],
      "name": "getApproved",
      "outputs": [
        {
          "internalType": "address",
          "name": "",
          "type": "address"
        }
      ],
      "stateMutability": "view",
      "type": "function"
    },
    {
      "inputs": [],
      "name": "getBalance",
      "outputs": [
        {
          "internalType": "uint256",
          "name": "",
          "type": "uint256"
        }
      ],
      "stateMutability": "view",
      "type": "function"
    },
    {
      "inputs": [],
      "name": "getListingPrice",
      "outputs": [
        {
          "internalType": "uint256",
          "name": "",
          "type": "uint256"
        }
      ],
      "stateMutability": "view",
      "type": "function"
    },
    {
      "inputs": [],
      "name": "getMemos",
      "outputs": [
        {
          "components": [
            {
              "internalType": "string",
              "name": "name",
              "type": "string"
            },
            {
              "internalType": "string",
              "name": "message",
              "type": "string"
            },
            {
              "internalType": "uint256",
              "name": "timestamp",
              "type": "uint256"
            },
            {
              "internalType": "address",
              "name": "from",
              "type": "address"
            }
          ],
          "internalType": "struct NFTMarketplace.Memo[]",
          "name": "",
          "type": "tuple[]"
        }
      ],
      "stateMutability": "view",
      "type": "function"
    },
    {
      "inputs": [
        {
          "internalType": "address",
          "name": "owner",
          "type": "address"
        },
        {
          "internalType": "address",
          "name": "operator",
          "type": "address"
        }
      ],
      "name": "isApprovedForAll",
      "outputs": [
        {
          "internalType": "bool",
          "name": "",
          "type": "bool"
        }
      ],
      "stateMutability": "view",
      "type": "function"
    },
    {
      "inputs": [],
      "name": "name",
      "outputs": [
        {
          "internalType": "string",
          "name": "",
          "type": "string"
        }
      ],
      "stateMutability": "view",
      "type": "function"
    },
    {
      "inputs": [
        {
          "internalType": "uint256",
          "name": "tokenId",
          "type": "uint256"
        }
      ],
      "name": "ownerOf",
      "outputs": [
        {
          "internalType": "address",
          "name": "",
          "type": "address"
        }
      ],
      "stateMutability": "view",
      "type": "function"
    },
    {
      "inputs": [
        {
          "internalType": "uint256",
          "name": "tokenId",
          "type": "uint256"
        },
        {
          "internalType": "uint256",
          "name": "price",
          "type": "uint256"
        }
      ],
      "name": "resellToken",
      "outputs": [],
      "stateMutability": "payable",
      "type": "function"
    },
    {
      "inputs": [
        {
          "internalType": "address",
          "name": "from",
          "type": "address"
        },
        {
          "internalType": "address",
          "name": "to",
          "type": "address"
        },
        {
          "internalType": "uint256",
          "name": "tokenId",
          "type": "uint256"
        }
      ],
      "name": "safeTransferFrom",
      "outputs": [],
      "stateMutability": "nonpayable",
      "type": "function"
    },
    {
      "inputs": [
        {
          "internalType": "address",
          "name": "from",
          "type": "address"
        },
        {
          "internalType": "address",
          "name": "to",
          "type": "address"
        },
        {
          "internalType": "uint256",
          "name": "tokenId",
          "type": "uint256"
        },
        {
          "internalType": "bytes",
          "name": "data",
          "type": "bytes"
        }
      ],
      "name": "safeTransferFrom",
      "outputs": [],
      "stateMutability": "nonpayable",
      "type": "function"
    },
    {
      "inputs": [
        {
          "internalType": "address",
          "name": "operator",
          "type": "address"
        },
        {
          "internalType": "bool",
          "name": "approved",
          "type": "bool"
        }
      ],
      "name": "setApprovalForAll",
      "outputs": [],
      "stateMutability": "nonpayable",
      "type": "function"
    },
    {
      "inputs": [
        {
          "internalType": "bytes4",
          "name": "interfaceId",
          "type": "bytes4"
        }
      ],
      "name": "supportsInterface",
      "outputs": [
        {
          "internalType": "bool",
          "name": "",
          "type": "bool"
        }
      ],
      "stateMutability": "view",
      "type": "function"
    },
    {
      "inputs": [],
      "name": "symbol",
      "outputs": [
        {
          "internalType": "string",
          "name": "",
          "type": "string"
        }
      ],
      "stateMutability": "view",
      "type": "function"
    },
    {
      "inputs": [
        {
          "internalType": "uint256",
          "name": "tokenId",
          "type": "uint256"
        }
      ],
      "name": "tokenURI",
      "outputs": [
        {
          "internalType": "string",
          "name": "",
          "type": "string"
        }
      ],
      "stateMutability": "view",
      "type": "function"
    },
    {
      "inputs": [
        {
          "internalType": "address",
          "name": "from",
          "type": "address"
        },
        {
          "internalType": "address",
          "name": "to",
          "type": "address"
        },
        {
          "internalType": "uint256",
          "name": "tokenId",
          "type": "uint256"
        }
      ],
      "name": "transferFrom",
      "outputs": [],
      "stateMutability": "nonpayable",
      "type": "function"
    },
    {
      "inputs": [
        {
          "internalType": "uint256",
          "name": "_listingPrice",
          "type": "uint256"
        }
      ],
      "name": "updateListingPrice",
      "outputs": [],
      "stateMutability": "payable",
      "type": "function"
    }
  ],
  "bytecode": "0x60806040526658d15e17628000600a553480156200001c57600080fd5b506040518060400160405280601081526020017f4d657461766572736520546f6b656e73000000000000000000000000000000008152506040518060400160405280600481526020017f4d455454000000000000000000000000000000000000000000000000000000008152508160009080519060200190620000a192919062000145565b508060019080519060200190620000ba92919062000145565b50505033600e60006101000a81548173ffffffffffffffffffffffffffffffffffffffff021916908373ffffffffffffffffffffffffffffffffffffffff16021790555033600b60006101000a81548173ffffffffffffffffffffffffffffffffffffffff021916908373ffffffffffffffffffffffffffffffffffffffff1602179055506200025a565b828054620001539062000224565b90600052602060002090601f016020900481019282620001775760008555620001c3565b82601f106200019257805160ff1916838001178555620001c3565b82800160010185558215620001c3579182015b82811115620001c2578251825591602001919060010190620001a5565b5b509050620001d29190620001d6565b5090565b5b80821115620001f1576000816000905550600101620001d7565b5090565b7f4e487b7100000000000000000000000000000000000000000000000000000000600052602260045260246000fd5b600060028204905060018216806200023d57607f821691505b60208210811415620002545762000253620001f5565b5b50919050565b6149ee806200026a6000396000f3fe6080604052600436106101665760003560e01c806370a08231116100d1578063a22cb4651161008a578063be9af53611610064578063be9af5361461053b578063c87b56dd14610557578063e219fc7514610594578063e985e9c5146105b057610166565b8063a22cb465146104cd578063ae677aa3146104f6578063b88d4fde1461051257610166565b806370a08231146103a257806372b3b620146103df578063865c51721461040f5780638a410b1a1461043a57806395d89b4114610477578063a0d18045146104a257610166565b806312065fe01161012357806312065fe0146102a157806312e85585146102cc57806323b872dd146102f757806342842e0e146103205780636352211e146103495780636a13d8591461038657610166565b806301ffc9a71461016b57806306fdde03146101a8578063081812fc146101d3578063095ea7b3146102105780630f08efe01461023957806310afee1e14610264575b600080fd5b34801561017757600080fd5b50610192600480360381019061018d91906131f1565b6105ed565b60405161019f9190613239565b60405180910390f35b3480156101b457600080fd5b506101bd61064e565b6040516101ca91906132ed565b60405180910390f35b3480156101df57600080fd5b506101fa60048036038101906101f59190613345565b6106e0565b60405161020791906133b3565b60405180910390f35b34801561021c57600080fd5b50610237600480360381019061023291906133fa565b610726565b005b34801561024557600080fd5b5061024e61083e565b60405161025b9190613590565b60405180910390f35b34801561027057600080fd5b5061028b600480360381019061028691906135b2565b610aa7565b6040516102989190613590565b60405180910390f35b3480156102ad57600080fd5b506102b6610d97565b6040516102c391906135ee565b60405180910390f35b3480156102d857600080fd5b506102e1610dd8565b6040516102ee91906135ee565b60405180910390f35b34801561030357600080fd5b5061031e60048036038101906103199190613609565b610de2565b005b34801561032c57600080fd5b5061034760048036038101906103429190613609565b610e42565b005b34801561035557600080fd5b50610370600480360381019061036b9190613345565b610e62565b60405161037d91906133b3565b60405180910390f35b6103a0600480360381019061039b9190613791565b610ee9565b005b3480156103ae57600080fd5b506103c960048036038101906103c491906135b2565b611088565b6040516103d691906135ee565b60405180910390f35b6103f960048036038101906103f49190613809565b611140565b60405161040691906135ee565b60405180910390f35b34801561041b57600080fd5b50610424611182565b60405161043191906139ea565b60405180910390f35b34801561044657600080fd5b50610461600480360381019061045c91906135b2565b611365565b60405161046e9190613590565b60405180910390f35b34801561048357600080fd5b5061048c611655565b60405161049991906132ed565b60405180910390f35b3480156104ae57600080fd5b506104b76116e7565b6040516104c49190613a1b565b60405180910390f35b3480156104d957600080fd5b506104f460048036038101906104ef9190613a62565b61170d565b005b610510600480360381019061050b9190613345565b611723565b005b34801561051e57600080fd5b5061053960048036038101906105349190613b43565b6117f6565b005b61055560048036038101906105509190613345565b611858565b005b34801561056357600080fd5b5061057e60048036038101906105799190613345565b611ad2565b60405161058b91906132ed565b60405180910390f35b6105ae60048036038101906105a99190613bc6565b611be5565b005b3480156105bc57600080fd5b506105d760048036038101906105d29190613c06565b611e16565b6040516105e49190613239565b60405180910390f35b6000634906490660e01b7bffffffffffffffffffffffffffffffffffffffffffffffffffffffff1916827bffffffffffffffffffffffffffffffffffffffffffffffffffffffff19161480610647575061064682611eaa565b5b9050919050565b60606000805461065d90613c75565b80601f016020809104026020016040519081016040528092919081815260200182805461068990613c75565b80156106d65780601f106106ab576101008083540402835291602001916106d6565b820191906000526020600020905b8154815290600101906020018083116106b957829003601f168201915b5050505050905090565b60006106eb82611f8c565b6004600083815260200190815260200160002060009054906101000a900473ffffffffffffffffffffffffffffffffffffffff169050919050565b600061073182610e62565b90508073ffffffffffffffffffffffffffffffffffffffff168373ffffffffffffffffffffffffffffffffffffffff1614156107a2576040517f08c379a000000000000000000000000000000000000000000000000000000000815260040161079990613d19565b60405180910390fd5b8073ffffffffffffffffffffffffffffffffffffffff166107c1611fd7565b73ffffffffffffffffffffffffffffffffffffffff1614806107f057506107ef816107ea611fd7565b611e16565b5b61082f576040517f08c379a000000000000000000000000000000000000000000000000000000000815260040161082690613dab565b60405180910390fd5b6108398383611fdf565b505050565b6060600061084c6007612098565b9050600061085a6008612098565b6108646007612098565b61086e9190613dfa565b90506000808267ffffffffffffffff81111561088d5761088c613666565b5b6040519080825280602002602001820160405280156108c657816020015b6108b3613085565b8152602001906001900390816108ab5790505b50905060005b84811015610a9c573073ffffffffffffffffffffffffffffffffffffffff16600c60006001846108fc9190613e2e565b815260200190815260200160002060020160009054906101000a900473ffffffffffffffffffffffffffffffffffffffff1673ffffffffffffffffffffffffffffffffffffffff161415610a895760006001826109599190613e2e565b90506000600c60008381526020019081526020016000209050806040518060a0016040529081600082015481526020016001820160009054906101000a900473ffffffffffffffffffffffffffffffffffffffff1673ffffffffffffffffffffffffffffffffffffffff1673ffffffffffffffffffffffffffffffffffffffff1681526020016002820160009054906101000a900473ffffffffffffffffffffffffffffffffffffffff1673ffffffffffffffffffffffffffffffffffffffff1673ffffffffffffffffffffffffffffffffffffffff168152602001600382015481526020016004820160009054906101000a900460ff161515151581525050848681518110610a6c57610a6b613e84565b5b6020026020010181905250600185610a849190613e2e565b945050505b8080610a9490613eb3565b9150506108cc565b508094505050505090565b60606000610ab56007612098565b905060008060005b83811015610b5e578573ffffffffffffffffffffffffffffffffffffffff16600c6000600184610aed9190613e2e565b815260200190815260200160002060020160009054906101000a900473ffffffffffffffffffffffffffffffffffffffff1673ffffffffffffffffffffffffffffffffffffffff161415610b4b57600183610b489190613e2e565b92505b8080610b5690613eb3565b915050610abd565b5060008267ffffffffffffffff811115610b7b57610b7a613666565b5b604051908082528060200260200182016040528015610bb457816020015b610ba1613085565b815260200190600190039081610b995790505b50905060005b84811015610d8a578673ffffffffffffffffffffffffffffffffffffffff16600c6000600184610bea9190613e2e565b815260200190815260200160002060020160009054906101000a900473ffffffffffffffffffffffffffffffffffffffff1673ffffffffffffffffffffffffffffffffffffffff161415610d77576000600182610c479190613e2e565b90506000600c60008381526020019081526020016000209050806040518060a0016040529081600082015481526020016001820160009054906101000a900473ffffffffffffffffffffffffffffffffffffffff1673ffffffffffffffffffffffffffffffffffffffff1673ffffffffffffffffffffffffffffffffffffffff1681526020016002820160009054906101000a900473ffffffffffffffffffffffffffffffffffffffff1673ffffffffffffffffffffffffffffffffffffffff1673ffffffffffffffffffffffffffffffffffffffff168152602001600382015481526020016004820160009054906101000a900460ff161515151581525050848681518110610d5a57610d59613e84565b5b6020026020010181905250600185610d729190613e2e565b945050505b8080610d8290613eb3565b915050610bba565b5080945050505050919050565b6000600e60009054906101000a900473ffffffffffffffffffffffffffffffffffffffff1673ffffffffffffffffffffffffffffffffffffffff1631905090565b6000600a54905090565b610df3610ded611fd7565b826120a6565b610e32576040517f08c379a0000000000000000000000000000000000000000000000000000000008152600401610e2990613f6e565b60405180910390fd5b610e3d83838361213b565b505050565b610e5d838383604051806020016040528060008152506117f6565b505050565b600080610e6e83612435565b9050600073ffffffffffffffffffffffffffffffffffffffff168173ffffffffffffffffffffffffffffffffffffffff161415610ee0576040517f08c379a0000000000000000000000000000000000000000000000000000000008152600401610ed790613fda565b60405180910390fd5b80915050919050565b60003411610f2c576040517f08c379a0000000000000000000000000000000000000000000000000000000008152600401610f239061406c565b60405180910390fd5b600e60009054906101000a900473ffffffffffffffffffffffffffffffffffffffff1673ffffffffffffffffffffffffffffffffffffffff166108fc349081150290604051600060405180830381858888f19350505050158015610f94573d6000803e3d6000fd5b50600d60405180608001604052808481526020018381526020014281526020013373ffffffffffffffffffffffffffffffffffffffff16815250908060018154018082558091505060019003906000526020600020906004020160009091909190915060008201518160000190805190602001906110139291906130e2565b5060208201518160010190805190602001906110309291906130e2565b506040820151816002015560608201518160030160006101000a81548173ffffffffffffffffffffffffffffffffffffffff021916908373ffffffffffffffffffffffffffffffffffffffff16021790555050505050565b60008073ffffffffffffffffffffffffffffffffffffffff168273ffffffffffffffffffffffffffffffffffffffff1614156110f9576040517f08c379a00000000000000000000000000000000000000000000000000000000081526004016110f0906140fe565b60405180910390fd5b600360008373ffffffffffffffffffffffffffffffffffffffff1673ffffffffffffffffffffffffffffffffffffffff168152602001908152602001600020549050919050565b600061114c6007612472565b60006111586007612098565b90506111643382612488565b61116e81856126a6565b6111788184612751565b8091505092915050565b6060600d805480602002602001604051908101604052809291908181526020016000905b8282101561135c57838290600052602060002090600402016040518060800160405290816000820180546111d990613c75565b80601f016020809104026020016040519081016040528092919081815260200182805461120590613c75565b80156112525780601f1061122757610100808354040283529160200191611252565b820191906000526020600020905b81548152906001019060200180831161123557829003601f168201915b5050505050815260200160018201805461126b90613c75565b80601f016020809104026020016040519081016040528092919081815260200182805461129790613c75565b80156112e45780601f106112b9576101008083540402835291602001916112e4565b820191906000526020600020905b8154815290600101906020018083116112c757829003601f168201915b50505050508152602001600282015481526020016003820160009054906101000a900473ffffffffffffffffffffffffffffffffffffffff1673ffffffffffffffffffffffffffffffffffffffff1673ffffffffffffffffffffffffffffffffffffffff1681525050815260200190600101906111a6565b50505050905090565b606060006113736007612098565b905060008060005b8381101561141c578573ffffffffffffffffffffffffffffffffffffffff16600c60006001846113ab9190613e2e565b815260200190815260200160002060010160009054906101000a900473ffffffffffffffffffffffffffffffffffffffff1673ffffffffffffffffffffffffffffffffffffffff161415611409576001836114069190613e2e565b92505b808061141490613eb3565b91505061137b565b5060008267ffffffffffffffff81111561143957611438613666565b5b60405190808252806020026020018201604052801561147257816020015b61145f613085565b8152602001906001900390816114575790505b50905060005b84811015611648578673ffffffffffffffffffffffffffffffffffffffff16600c60006001846114a89190613e2e565b815260200190815260200160002060010160009054906101000a900473ffffffffffffffffffffffffffffffffffffffff1673ffffffffffffffffffffffffffffffffffffffff1614156116355760006001826115059190613e2e565b90506000600c60008381526020019081526020016000209050806040518060a0016040529081600082015481526020016001820160009054906101000a900473ffffffffffffffffffffffffffffffffffffffff1673ffffffffffffffffffffffffffffffffffffffff1673ffffffffffffffffffffffffffffffffffffffff1681526020016002820160009054906101000a900473ffffffffffffffffffffffffffffffffffffffff1673ffffffffffffffffffffffffffffffffffffffff1673ffffffffffffffffffffffffffffffffffffffff168152602001600382015481526020016004820160009054906101000a900460ff16151515158152505084868151811061161857611617613e84565b5b60200260200101819052506001856116309190613e2e565b945050505b808061164090613eb3565b915050611478565b5080945050505050919050565b60606001805461166490613c75565b80601f016020809104026020016040519081016040528092919081815260200182805461169090613c75565b80156116dd5780601f106116b2576101008083540402835291602001916116dd565b820191906000526020600020905b8154815290600101906020018083116116c057829003601f168201915b5050505050905090565b600e60009054906101000a900473ffffffffffffffffffffffffffffffffffffffff1681565b61171f611718611fd7565b8383612954565b5050565b3373ffffffffffffffffffffffffffffffffffffffff16600b60009054906101000a900473ffffffffffffffffffffffffffffffffffffffff1673ffffffffffffffffffffffffffffffffffffffff16146117b3576040517f08c379a00000000000000000000000000000000000000000000000000000000081526004016117aa90614190565b60405180910390fd5b80600a819055507f661c8d2e494b21e778d6b19ffb42ca00ee63062be7f9eb28af0850e01a9cf214600a546040516117eb91906135ee565b60405180910390a150565b611807611801611fd7565b836120a6565b611846576040517f08c379a000000000000000000000000000000000000000000000000000000000815260040161183d90613f6e565b60405180910390fd5b61185284848484612ac1565b50505050565b6000600c60008381526020019081526020016000206003015490506000600c600084815260200190815260200160002060010160009054906101000a900473ffffffffffffffffffffffffffffffffffffffff1690508134146118f0576040517f08c379a00000000000000000000000000000000000000000000000000000000081526004016118e790614222565b60405180910390fd5b33600c600085815260200190815260200160002060020160006101000a81548173ffffffffffffffffffffffffffffffffffffffff021916908373ffffffffffffffffffffffffffffffffffffffff1602179055506001600c600085815260200190815260200160002060040160006101000a81548160ff0219169083151502179055506000600c600085815260200190815260200160002060010160006101000a81548173ffffffffffffffffffffffffffffffffffffffff021916908373ffffffffffffffffffffffffffffffffffffffff1602179055506119d46008612472565b6119df30338561213b565b600b60009054906101000a900473ffffffffffffffffffffffffffffffffffffffff1673ffffffffffffffffffffffffffffffffffffffff166108fc600a549081150290604051600060405180830381858888f19350505050158015611a49573d6000803e3d6000fd5b508073ffffffffffffffffffffffffffffffffffffffff166108fc349081150290604051600060405180830381858888f19350505050158015611a90573d6000803e3d6000fd5b50827f92702ca16506c19534081722898e3d74348202feb9cec071d74fc908c67dd03e338385604051611ac593929190614242565b60405180910390a2505050565b6060611add82611f8c565b6000600660008481526020019081526020016000208054611afd90613c75565b80601f0160208091040260200160405190810160405280929190818152602001828054611b2990613c75565b8015611b765780601f10611b4b57610100808354040283529160200191611b76565b820191906000526020600020905b815481529060010190602001808311611b5957829003601f168201915b505050505090506000611b87612b1d565b9050600081511415611b9d578192505050611be0565b600082511115611bd2578082604051602001611bba9291906142b5565b60405160208183030381529060405292505050611be0565b611bdb84612b34565b925050505b919050565b3373ffffffffffffffffffffffffffffffffffffffff16600c600084815260200190815260200160002060020160009054906101000a900473ffffffffffffffffffffffffffffffffffffffff1673ffffffffffffffffffffffffffffffffffffffff1614611c89576040517f08c379a0000000000000000000000000000000000000000000000000000000008152600401611c809061434b565b60405180910390fd5b600a543414611ccd576040517f08c379a0000000000000000000000000000000000000000000000000000000008152600401611cc4906143dd565b60405180910390fd5b6000600c600084815260200190815260200160002060040160006101000a81548160ff02191690831515021790555080600c60008481526020019081526020016000206003018190555033600c600084815260200190815260200160002060010160006101000a81548173ffffffffffffffffffffffffffffffffffffffff021916908373ffffffffffffffffffffffffffffffffffffffff16021790555030600c600084815260200190815260200160002060020160006101000a81548173ffffffffffffffffffffffffffffffffffffffff021916908373ffffffffffffffffffffffffffffffffffffffff160217905550611dcb6008612b9c565b611dd633308461213b565b817fc6b0d13d6c1af02bfe5761531c93b25f6078fbae63c013f2afb85a0a42ffc1f3333084604051611e0a93929190614242565b60405180910390a25050565b6000600560008473ffffffffffffffffffffffffffffffffffffffff1673ffffffffffffffffffffffffffffffffffffffff16815260200190815260200160002060008373ffffffffffffffffffffffffffffffffffffffff1673ffffffffffffffffffffffffffffffffffffffff16815260200190815260200160002060009054906101000a900460ff16905092915050565b60007f80ac58cd000000000000000000000000000000000000000000000000000000007bffffffffffffffffffffffffffffffffffffffffffffffffffffffff1916827bffffffffffffffffffffffffffffffffffffffffffffffffffffffff19161480611f7557507f5b5e139f000000000000000000000000000000000000000000000000000000007bffffffffffffffffffffffffffffffffffffffffffffffffffffffff1916827bffffffffffffffffffffffffffffffffffffffffffffffffffffffff1916145b80611f855750611f8482612bf8565b5b9050919050565b611f9581612c62565b611fd4576040517f08c379a0000000000000000000000000000000000000000000000000000000008152600401611fcb90613fda565b60405180910390fd5b50565b600033905090565b816004600083815260200190815260200160002060006101000a81548173ffffffffffffffffffffffffffffffffffffffff021916908373ffffffffffffffffffffffffffffffffffffffff160217905550808273ffffffffffffffffffffffffffffffffffffffff1661205283610e62565b73ffffffffffffffffffffffffffffffffffffffff167f8c5be1e5ebec7d5bd14f71427d1e84f3dd0314c0f7b2291e5b200ac8c7c3b92560405160405180910390a45050565b600081600001549050919050565b6000806120b283610e62565b90508073ffffffffffffffffffffffffffffffffffffffff168473ffffffffffffffffffffffffffffffffffffffff1614806120f457506120f38185611e16565b5b8061213257508373ffffffffffffffffffffffffffffffffffffffff1661211a846106e0565b73ffffffffffffffffffffffffffffffffffffffff16145b91505092915050565b8273ffffffffffffffffffffffffffffffffffffffff1661215b82610e62565b73ffffffffffffffffffffffffffffffffffffffff16146121b1576040517f08c379a00000000000000000000000000000000000000000000000000000000081526004016121a89061446f565b60405180910390fd5b600073ffffffffffffffffffffffffffffffffffffffff168273ffffffffffffffffffffffffffffffffffffffff161415612221576040517f08c379a000000000000000000000000000000000000000000000000000000000815260040161221890614501565b60405180910390fd5b61222e8383836001612ca3565b8273ffffffffffffffffffffffffffffffffffffffff1661224e82610e62565b73ffffffffffffffffffffffffffffffffffffffff16146122a4576040517f08c379a000000000000000000000000000000000000000000000000000000000815260040161229b9061446f565b60405180910390fd5b6004600082815260200190815260200160002060006101000a81549073ffffffffffffffffffffffffffffffffffffffff02191690556001600360008573ffffffffffffffffffffffffffffffffffffffff1673ffffffffffffffffffffffffffffffffffffffff168152602001908152602001600020600082825403925050819055506001600360008473ffffffffffffffffffffffffffffffffffffffff1673ffffffffffffffffffffffffffffffffffffffff16815260200190815260200160002060008282540192505081905550816002600083815260200190815260200160002060006101000a81548173ffffffffffffffffffffffffffffffffffffffff021916908373ffffffffffffffffffffffffffffffffffffffff160217905550808273ffffffffffffffffffffffffffffffffffffffff168473ffffffffffffffffffffffffffffffffffffffff167fddf252ad1be2c89b69c2b068fc378daa952ba7f163c4a11628f55a4df523b3ef60405160405180910390a46124308383836001612ca9565b505050565b60006002600083815260200190815260200160002060009054906101000a900473ffffffffffffffffffffffffffffffffffffffff169050919050565b6001816000016000828254019250508190555050565b600073ffffffffffffffffffffffffffffffffffffffff168273ffffffffffffffffffffffffffffffffffffffff1614156124f8576040517f08c379a00000000000000000000000000000000000000000000000000000000081526004016124ef9061456d565b60405180910390fd5b61250181612c62565b15612541576040517f08c379a0000000000000000000000000000000000000000000000000000000008152600401612538906145d9565b60405180910390fd5b61254f600083836001612ca3565b61255881612c62565b15612598576040517f08c379a000000000000000000000000000000000000000000000000000000000815260040161258f906145d9565b60405180910390fd5b6001600360008473ffffffffffffffffffffffffffffffffffffffff1673ffffffffffffffffffffffffffffffffffffffff16815260200190815260200160002060008282540192505081905550816002600083815260200190815260200160002060006101000a81548173ffffffffffffffffffffffffffffffffffffffff021916908373ffffffffffffffffffffffffffffffffffffffff160217905550808273ffffffffffffffffffffffffffffffffffffffff16600073ffffffffffffffffffffffffffffffffffffffff167fddf252ad1be2c89b69c2b068fc378daa952ba7f163c4a11628f55a4df523b3ef60405160405180910390a46126a2600083836001612ca9565b5050565b6126af82612c62565b6126ee576040517f08c379a00000000000000000000000000000000000000000000000000000000081526004016126e59061466b565b60405180910390fd5b806006600084815260200190815260200160002090805190602001906127159291906130e2565b507ff8e1a15aba9398e019f0b49df1a4fde98ee17ae345cb5f6b5e2c27f5033e8ce78260405161274591906135ee565b60405180910390a15050565b60008111612794576040517f08c379a000000000000000000000000000000000000000000000000000000000815260040161278b906146d7565b60405180910390fd5b600a5434146127d8576040517f08c379a00000000000000000000000000000000000000000000000000000000081526004016127cf906143dd565b60405180910390fd5b6040518060a001604052808381526020013373ffffffffffffffffffffffffffffffffffffffff1681526020013073ffffffffffffffffffffffffffffffffffffffff16815260200182815260200160001515815250600c60008481526020019081526020016000206000820151816000015560208201518160010160006101000a81548173ffffffffffffffffffffffffffffffffffffffff021916908373ffffffffffffffffffffffffffffffffffffffff16021790555060408201518160020160006101000a81548173ffffffffffffffffffffffffffffffffffffffff021916908373ffffffffffffffffffffffffffffffffffffffff1602179055506060820151816003015560808201518160040160006101000a81548160ff02191690831515021790555090505061291133308461213b565b817fb640004f1d14576d0c209e240cad0410e0d8c0c33a09375861fbadae2588a98d333084600060405161294894939291906146f7565b60405180910390a25050565b8173ffffffffffffffffffffffffffffffffffffffff168373ffffffffffffffffffffffffffffffffffffffff1614156129c3576040517f08c379a00000000000000000000000000000000000000000000000000000000081526004016129ba90614788565b60405180910390fd5b80600560008573ffffffffffffffffffffffffffffffffffffffff1673ffffffffffffffffffffffffffffffffffffffff16815260200190815260200160002060008473ffffffffffffffffffffffffffffffffffffffff1673ffffffffffffffffffffffffffffffffffffffff16815260200190815260200160002060006101000a81548160ff0219169083151502179055508173ffffffffffffffffffffffffffffffffffffffff168373ffffffffffffffffffffffffffffffffffffffff167f17307eab39ab6107e8899845ad3d59bd9653f200f220920489ca2b5937696c3183604051612ab49190613239565b60405180910390a3505050565b612acc84848461213b565b612ad884848484612caf565b612b17576040517f08c379a0000000000000000000000000000000000000000000000000000000008152600401612b0e9061481a565b60405180910390fd5b50505050565b606060405180602001604052806000815250905090565b6060612b3f82611f8c565b6000612b49612b1d565b90506000815111612b695760405180602001604052806000815250612b94565b80612b7384612e37565b604051602001612b849291906142b5565b6040516020818303038152906040525b915050919050565b60008160000154905060008111612be8576040517f08c379a0000000000000000000000000000000000000000000000000000000008152600401612bdf90614886565b60405180910390fd5b6001810382600001819055505050565b60007f01ffc9a7000000000000000000000000000000000000000000000000000000007bffffffffffffffffffffffffffffffffffffffffffffffffffffffff1916827bffffffffffffffffffffffffffffffffffffffffffffffffffffffff1916149050919050565b60008073ffffffffffffffffffffffffffffffffffffffff16612c8483612435565b73ffffffffffffffffffffffffffffffffffffffff1614159050919050565b50505050565b50505050565b6000612cd08473ffffffffffffffffffffffffffffffffffffffff16612f0f565b15612e2a578373ffffffffffffffffffffffffffffffffffffffff1663150b7a02612cf9611fd7565b8786866040518563ffffffff1660e01b8152600401612d1b94939291906148fb565b6020604051808303816000875af1925050508015612d5757506040513d601f19601f82011682018060405250810190612d54919061495c565b60015b612dda573d8060008114612d87576040519150601f19603f3d011682016040523d82523d6000602084013e612d8c565b606091505b50600081511415612dd2576040517f08c379a0000000000000000000000000000000000000000000000000000000008152600401612dc99061481a565b60405180910390fd5b805181602001fd5b63150b7a0260e01b7bffffffffffffffffffffffffffffffffffffffffffffffffffffffff1916817bffffffffffffffffffffffffffffffffffffffffffffffffffffffff191614915050612e2f565b600190505b949350505050565b606060006001612e4684612f32565b01905060008167ffffffffffffffff811115612e6557612e64613666565b5b6040519080825280601f01601f191660200182016040528015612e975781602001600182028036833780820191505090505b509050600082602001820190505b600115612f04578080600190039150507f3031323334353637383961626364656600000000000000000000000000000000600a86061a8153600a8581612eee57612eed614989565b5b0494506000851415612eff57612f04565b612ea5565b819350505050919050565b6000808273ffffffffffffffffffffffffffffffffffffffff163b119050919050565b600080600090507a184f03e93ff9f4daa797ed6e38ed64bf6a1f0100000000000000008310612f90577a184f03e93ff9f4daa797ed6e38ed64bf6a1f0100000000000000008381612f8657612f85614989565b5b0492506040810190505b6d04ee2d6d415b85acef81000000008310612fcd576d04ee2d6d415b85acef81000000008381612fc357612fc2614989565b5b0492506020810190505b662386f26fc100008310612ffc57662386f26fc100008381612ff257612ff1614989565b5b0492506010810190505b6305f5e1008310613025576305f5e100838161301b5761301a614989565b5b0492506008810190505b612710831061304a5761271083816130405761303f614989565b5b0492506004810190505b6064831061306d576064838161306357613062614989565b5b0492506002810190505b600a831061307c576001810190505b80915050919050565b6040518060a0016040528060008152602001600073ffffffffffffffffffffffffffffffffffffffff168152602001600073ffffffffffffffffffffffffffffffffffffffff168152602001600081526020016000151581525090565b8280546130ee90613c75565b90600052602060002090601f0160209004810192826131105760008555613157565b82601f1061312957805160ff1916838001178555613157565b82800160010185558215613157579182015b8281111561315657825182559160200191906001019061313b565b5b5090506131649190613168565b5090565b5b80821115613181576000816000905550600101613169565b5090565b6000604051905090565b600080fd5b600080fd5b60007fffffffff0000000000000000000000000000000000000000000000000000000082169050919050565b6131ce81613199565b81146131d957600080fd5b50565b6000813590506131eb816131c5565b92915050565b6000602082840312156132075761320661318f565b5b6000613215848285016131dc565b91505092915050565b60008115159050919050565b6132338161321e565b82525050565b600060208201905061324e600083018461322a565b92915050565b600081519050919050565b600082825260208201905092915050565b60005b8381101561328e578082015181840152602081019050613273565b8381111561329d576000848401525b50505050565b6000601f19601f8301169050919050565b60006132bf82613254565b6132c9818561325f565b93506132d9818560208601613270565b6132e2816132a3565b840191505092915050565b6000602082019050818103600083015261330781846132b4565b905092915050565b6000819050919050565b6133228161330f565b811461332d57600080fd5b50565b60008135905061333f81613319565b92915050565b60006020828403121561335b5761335a61318f565b5b600061336984828501613330565b91505092915050565b600073ffffffffffffffffffffffffffffffffffffffff82169050919050565b600061339d82613372565b9050919050565b6133ad81613392565b82525050565b60006020820190506133c860008301846133a4565b92915050565b6133d781613392565b81146133e257600080fd5b50565b6000813590506133f4816133ce565b92915050565b600080604083850312156134115761341061318f565b5b600061341f858286016133e5565b925050602061343085828601613330565b9150509250929050565b600081519050919050565b600082825260208201905092915050565b6000819050602082019050919050565b61346f8161330f565b82525050565b600061348082613372565b9050919050565b61349081613475565b82525050565b61349f8161321e565b82525050565b60a0820160008201516134bb6000850182613466565b5060208201516134ce6020850182613487565b5060408201516134e16040850182613487565b5060608201516134f46060850182613466565b5060808201516135076080850182613496565b50505050565b600061351983836134a5565b60a08301905092915050565b6000602082019050919050565b600061353d8261343a565b6135478185613445565b935061355283613456565b8060005b8381101561358357815161356a888261350d565b975061357583613525565b925050600181019050613556565b5085935050505092915050565b600060208201905081810360008301526135aa8184613532565b905092915050565b6000602082840312156135c8576135c761318f565b5b60006135d6848285016133e5565b91505092915050565b6135e88161330f565b82525050565b600060208201905061360360008301846135df565b92915050565b6000806000606084860312156136225761362161318f565b5b6000613630868287016133e5565b9350506020613641868287016133e5565b925050604061365286828701613330565b9150509250925092565b600080fd5b600080fd5b7f4e487b7100000000000000000000000000000000000000000000000000000000600052604160045260246000fd5b61369e826132a3565b810181811067ffffffffffffffff821117156136bd576136bc613666565b5b80604052505050565b60006136d0613185565b90506136dc8282613695565b919050565b600067ffffffffffffffff8211156136fc576136fb613666565b5b613705826132a3565b9050602081019050919050565b82818337600083830152505050565b600061373461372f846136e1565b6136c6565b9050828152602081018484840111156137505761374f613661565b5b61375b848285613712565b509392505050565b600082601f8301126137785761377761365c565b5b8135613788848260208601613721565b91505092915050565b600080604083850312156137a8576137a761318f565b5b600083013567ffffffffffffffff8111156137c6576137c5613194565b5b6137d285828601613763565b925050602083013567ffffffffffffffff8111156137f3576137f2613194565b5b6137ff85828601613763565b9150509250929050565b600080604083850312156138205761381f61318f565b5b600083013567ffffffffffffffff81111561383e5761383d613194565b5b61384a85828601613763565b925050602061385b85828601613330565b9150509250929050565b600081519050919050565b600082825260208201905092915050565b6000819050602082019050919050565b600082825260208201905092915050565b60006138ad82613254565b6138b78185613891565b93506138c7818560208601613270565b6138d0816132a3565b840191505092915050565b6138e481613392565b82525050565b6000608083016000830151848203600086015261390782826138a2565b9150506020830151848203602086015261392182826138a2565b91505060408301516139366040860182613466565b50606083015161394960608601826138db565b508091505092915050565b600061396083836138ea565b905092915050565b6000602082019050919050565b600061398082613865565b61398a8185613870565b93508360208202850161399c85613881565b8060005b858110156139d857848403895281516139b98582613954565b94506139c483613968565b925060208a019950506001810190506139a0565b50829750879550505050505092915050565b60006020820190508181036000830152613a048184613975565b905092915050565b613a1581613475565b82525050565b6000602082019050613a306000830184613a0c565b92915050565b613a3f8161321e565b8114613a4a57600080fd5b50565b600081359050613a5c81613a36565b92915050565b60008060408385031215613a7957613a7861318f565b5b6000613a87858286016133e5565b9250506020613a9885828601613a4d565b9150509250929050565b600067ffffffffffffffff821115613abd57613abc613666565b5b613ac6826132a3565b9050602081019050919050565b6000613ae6613ae184613aa2565b6136c6565b905082815260208101848484011115613b0257613b01613661565b5b613b0d848285613712565b509392505050565b600082601f830112613b2a57613b2961365c565b5b8135613b3a848260208601613ad3565b91505092915050565b60008060008060808587031215613b5d57613b5c61318f565b5b6000613b6b878288016133e5565b9450506020613b7c878288016133e5565b9350506040613b8d87828801613330565b925050606085013567ffffffffffffffff811115613bae57613bad613194565b5b613bba87828801613b15565b91505092959194509250565b60008060408385031215613bdd57613bdc61318f565b5b6000613beb85828601613330565b9250506020613bfc85828601613330565b9150509250929050565b60008060408385031215613c1d57613c1c61318f565b5b6000613c2b858286016133e5565b9250506020613c3c858286016133e5565b9150509250929050565b7f4e487b7100000000000000000000000000000000000000000000000000000000600052602260045260246000fd5b60006002820490506001821680613c8d57607f821691505b60208210811415613ca157613ca0613c46565b5b50919050565b7f4552433732313a20617070726f76616c20746f2063757272656e74206f776e6560008201527f7200000000000000000000000000000000000000000000000000000000000000602082015250565b6000613d0360218361325f565b9150613d0e82613ca7565b604082019050919050565b60006020820190508181036000830152613d3281613cf6565b9050919050565b7f4552433732313a20617070726f76652063616c6c6572206973206e6f7420746f60008201527f6b656e206f776e6572206f7220617070726f76656420666f7220616c6c000000602082015250565b6000613d95603d8361325f565b9150613da082613d39565b604082019050919050565b60006020820190508181036000830152613dc481613d88565b9050919050565b7f4e487b7100000000000000000000000000000000000000000000000000000000600052601160045260246000fd5b6000613e058261330f565b9150613e108361330f565b925082821015613e2357613e22613dcb565b5b828203905092915050565b6000613e398261330f565b9150613e448361330f565b9250827fffffffffffffffffffffffffffffffffffffffffffffffffffffffffffffffff03821115613e7957613e78613dcb565b5b828201905092915050565b7f4e487b7100000000000000000000000000000000000000000000000000000000600052603260045260246000fd5b6000613ebe8261330f565b91507fffffffffffffffffffffffffffffffffffffffffffffffffffffffffffffffff821415613ef157613ef0613dcb565b5b600182019050919050565b7f4552433732313a2063616c6c6572206973206e6f7420746f6b656e206f776e6560008201527f72206f7220617070726f76656400000000000000000000000000000000000000602082015250565b6000613f58602d8361325f565b9150613f6382613efc565b604082019050919050565b60006020820190508181036000830152613f8781613f4b565b9050919050565b7f4552433732313a20696e76616c696420746f6b656e2049440000000000000000600082015250565b6000613fc460188361325f565b9150613fcf82613f8e565b602082019050919050565b60006020820190508181036000830152613ff381613fb7565b9050919050565b7f506c656173652070617920736f6d657468696e6720677265617465722074686160008201527f6e20300000000000000000000000000000000000000000000000000000000000602082015250565b600061405660238361325f565b915061406182613ffa565b604082019050919050565b6000602082019050818103600083015261408581614049565b9050919050565b7f4552433732313a2061646472657373207a65726f206973206e6f74206120766160008201527f6c6964206f776e65720000000000000000000000000000000000000000000000602082015250565b60006140e860298361325f565b91506140f38261408c565b604082019050919050565b60006020820190508181036000830152614117816140db565b9050919050565b7f4f6e6c79206d61726b6574706c616365206f776e65722063616e20757064617460008201527f65206c697374696e672070726963652e00000000000000000000000000000000602082015250565b600061417a60308361325f565b91506141858261411e565b604082019050919050565b600060208201905081810360008301526141a98161416d565b9050919050565b7f506c65617365207375626d6974207468652061736b696e67207072696365206960008201527f6e206f7264657220746f20636f6d706c65746520746865207075726368617365602082015250565b600061420c60408361325f565b9150614217826141b0565b604082019050919050565b6000602082019050818103600083015261423b816141ff565b9050919050565b600060608201905061425760008301866133a4565b61426460208301856133a4565b61427160408301846135df565b949350505050565b600081905092915050565b600061428f82613254565b6142998185614279565b93506142a9818560208601613270565b80840191505092915050565b60006142c18285614284565b91506142cd8284614284565b91508190509392505050565b7f4f6e6c79206974656d206f776e65722063616e20706572666f726d207468697360008201527f206f7065726174696f6e00000000000000000000000000000000000000000000602082015250565b6000614335602a8361325f565b9150614340826142d9565b604082019050919050565b6000602082019050818103600083015261436481614328565b9050919050565b7f5072696365206d75737420626520657175616c20746f206c697374696e67207060008201527f7269636500000000000000000000000000000000000000000000000000000000602082015250565b60006143c760248361325f565b91506143d28261436b565b604082019050919050565b600060208201905081810360008301526143f6816143ba565b9050919050565b7f4552433732313a207472616e736665722066726f6d20696e636f72726563742060008201527f6f776e6572000000000000000000000000000000000000000000000000000000602082015250565b600061445960258361325f565b9150614464826143fd565b604082019050919050565b600060208201905081810360008301526144888161444c565b9050919050565b7f4552433732313a207472616e7366657220746f20746865207a65726f2061646460008201527f7265737300000000000000000000000000000000000000000000000000000000602082015250565b60006144eb60248361325f565b91506144f68261448f565b604082019050919050565b6000602082019050818103600083015261451a816144de565b9050919050565b7f4552433732313a206d696e7420746f20746865207a65726f2061646472657373600082015250565b600061455760208361325f565b915061456282614521565b602082019050919050565b600060208201905081810360008301526145868161454a565b9050919050565b7f4552433732313a20746f6b656e20616c7265616479206d696e74656400000000600082015250565b60006145c3601c8361325f565b91506145ce8261458d565b602082019050919050565b600060208201905081810360008301526145f2816145b6565b9050919050565b7f45524337323155524953746f726167653a2055524920736574206f66206e6f6e60008201527f6578697374656e7420746f6b656e000000000000000000000000000000000000602082015250565b6000614655602e8361325f565b9150614660826145f9565b604082019050919050565b6000602082019050818103600083015261468481614648565b9050919050565b7f5072696365206d757374206265206174206c6561737420312077656900000000600082015250565b60006146c1601c8361325f565b91506146cc8261468b565b602082019050919050565b600060208201905081810360008301526146f0816146b4565b9050919050565b600060808201905061470c60008301876133a4565b61471960208301866133a4565b61472660408301856135df565b614733606083018461322a565b95945050505050565b7f4552433732313a20617070726f766520746f2063616c6c657200000000000000600082015250565b600061477260198361325f565b915061477d8261473c565b602082019050919050565b600060208201905081810360008301526147a181614765565b9050919050565b7f4552433732313a207472616e7366657220746f206e6f6e20455243373231526560008201527f63656976657220696d706c656d656e7465720000000000000000000000000000602082015250565b600061480460328361325f565b915061480f826147a8565b604082019050919050565b60006020820190508181036000830152614833816147f7565b9050919050565b7f436f756e7465723a2064656372656d656e74206f766572666c6f770000000000600082015250565b6000614870601b8361325f565b915061487b8261483a565b602082019050919050565b6000602082019050818103600083015261489f81614863565b9050919050565b600081519050919050565b600082825260208201905092915050565b60006148cd826148a6565b6148d781856148b1565b93506148e7818560208601613270565b6148f0816132a3565b840191505092915050565b600060808201905061491060008301876133a4565b61491d60208301866133a4565b61492a60408301856135df565b818103606083015261493c81846148c2565b905095945050505050565b600081519050614956816131c5565b92915050565b6000602082840312156149725761497161318f565b5b600061498084828501614947565b91505092915050565b7f4e487b7100000000000000000000000000000000000000000000000000000000600052601260045260246000fdfea264697066735822122031ce9201169177085522bcb79ec474bb7ba713865bf943a6f9436cef568db33864736f6c634300080a0033",
  "linkReferences": {},
  "deployedLinkReferences": {}
}