{
  "_format": "hh-sol-artifact-1",
  "contractName": "NFTMarketplace",
  "sourceName": "contracts/NFTMarketplace.sol",
  "abi": [
    {
      "inputs": [],
      "stateMutability": "nonpayable",
      "type": "constructor"
    },
    {
      "anonymous": false,
      "inputs": [
        {
          "indexed": true,
          "internalType": "address",
          "name": "owner",
          "type": "address"
        },
        {
          "indexed": true,
          "internalType": "address",
          "name": "approved",
          "type": "address"
        },
        {
          "indexed": true,
          "internalType": "uint256",
          "name": "tokenId",
          "type": "uint256"
        }
      ],
      "name": "Approval",
      "type": "event"
    },
    {
      "anonymous": false,
      "inputs": [
        {
          "indexed": true,
          "internalType": "address",
          "name": "owner",
          "type": "address"
        },
        {
          "indexed": true,
          "internalType": "address",
          "name": "operator",
          "type": "address"
        },
        {
          "indexed": false,
          "internalType": "bool",
          "name": "approved",
          "type": "bool"
        }
      ],
      "name": "ApprovalForAll",
      "type": "event"
    },
    {
      "anonymous": false,
      "inputs": [
        {
          "indexed": false,
          "internalType": "uint256",
          "name": "_fromTokenId",
          "type": "uint256"
        },
        {
          "indexed": false,
          "internalType": "uint256",
          "name": "_toTokenId",
          "type": "uint256"
        }
      ],
      "name": "BatchMetadataUpdate",
      "type": "event"
    },
    {
      "anonymous": false,
      "inputs": [
        {
          "indexed": true,
          "internalType": "address",
          "name": "from",
          "type": "address"
        },
        {
          "indexed": false,
          "internalType": "string",
          "name": "name",
          "type": "string"
        },
        {
          "indexed": false,
          "internalType": "string",
          "name": "message",
          "type": "string"
        },
        {
          "indexed": false,
          "internalType": "uint256",
          "name": "timestamp",
          "type": "uint256"
        },
        {
          "indexed": false,
          "internalType": "uint256",
          "name": "amount",
          "type": "uint256"
        }
      ],
      "name": "Donation",
      "type": "event"
    },
    {
      "anonymous": false,
      "inputs": [
        {
          "indexed": true,
          "internalType": "uint256",
          "name": "tokenId",
          "type": "uint256"
        },
        {
          "indexed": false,
          "internalType": "address",
          "name": "seller",
          "type": "address"
        },
        {
          "indexed": false,
          "internalType": "address",
          "name": "owner",
          "type": "address"
        },
        {
          "indexed": false,
          "internalType": "uint256",
          "name": "price",
          "type": "uint256"
        },
        {
          "indexed": false,
          "internalType": "bool",
          "name": "sold",
          "type": "bool"
        }
      ],
      "name": "MarketItemCreated",
      "type": "event"
    },
    {
      "anonymous": false,
      "inputs": [
        {
          "indexed": false,
          "internalType": "uint256",
          "name": "_tokenId",
          "type": "uint256"
        }
      ],
      "name": "MetadataUpdate",
      "type": "event"
    },
    {
      "anonymous": false,
      "inputs": [
        {
          "indexed": true,
          "internalType": "address",
          "name": "from",
          "type": "address"
        },
        {
          "indexed": true,
          "internalType": "address",
          "name": "to",
          "type": "address"
        },
        {
          "indexed": true,
          "internalType": "uint256",
          "name": "tokenId",
          "type": "uint256"
        }
      ],
      "name": "Transfer",
      "type": "event"
    },
    {
      "inputs": [],
      "name": "Rowner",
      "outputs": [
        {
          "internalType": "address payable",
          "name": "",
          "type": "address"
        }
      ],
      "stateMutability": "view",
      "type": "function"
    },
    {
      "inputs": [
        {
          "internalType": "address",
          "name": "to",
          "type": "address"
        },
        {
          "internalType": "uint256",
          "name": "tokenId",
          "type": "uint256"
        }
      ],
      "name": "approve",
      "outputs": [],
      "stateMutability": "nonpayable",
      "type": "function"
    },
    {
      "inputs": [
        {
          "internalType": "address",
          "name": "owner",
          "type": "address"
        }
      ],
      "name": "balanceOf",
      "outputs": [
        {
          "internalType": "uint256",
          "name": "",
          "type": "uint256"
        }
      ],
      "stateMutability": "view",
      "type": "function"
    },
    {
      "inputs": [
        {
          "internalType": "string",
          "name": "name",
          "type": "string"
        },
        {
          "internalType": "string",
          "name": "message",
          "type": "string"
        }
      ],
      "name": "buyChai",
      "outputs": [],
      "stateMutability": "payable",
      "type": "function"
    },
    {
      "inputs": [
        {
          "internalType": "uint256",
          "name": "tokenId",
          "type": "uint256"
        }
      ],
      "name": "createMarketSale",
      "outputs": [],
      "stateMutability": "payable",
      "type": "function"
    },
    {
      "inputs": [
        {
          "internalType": "string",
          "name": "tokenURI",
          "type": "string"
        },
        {
          "internalType": "uint256",
          "name": "price",
          "type": "uint256"
        }
      ],
      "name": "createToken",
      "outputs": [
        {
          "internalType": "uint256",
          "name": "",
          "type": "uint256"
        }
      ],
      "stateMutability": "payable",
      "type": "function"
    },
    {
      "inputs": [],
      "name": "fetchItemsListed",
      "outputs": [
        {
          "components": [
            {
              "internalType": "uint256",
              "name": "tokenId",
              "type": "uint256"
            },
            {
              "internalType": "address payable",
              "name": "seller",
              "type": "address"
            },
            {
              "internalType": "address payable",
              "name": "owner",
              "type": "address"
            },
            {
              "internalType": "uint256",
              "name": "price",
              "type": "uint256"
            },
            {
              "internalType": "bool",
              "name": "sold",
              "type": "bool"
            }
          ],
          "internalType": "struct NFTMarketplace.MarketItem[]",
          "name": "",
          "type": "tuple[]"
        }
      ],
      "stateMutability": "view",
      "type": "function"
    },
    {
      "inputs": [],
      "name": "fetchMarketItems",
      "outputs": [
        {
          "components": [
            {
              "internalType": "uint256",
              "name": "tokenId",
              "type": "uint256"
            },
            {
              "internalType": "address payable",
              "name": "seller",
              "type": "address"
            },
            {
              "internalType": "address payable",
              "name": "owner",
              "type": "address"
            },
            {
              "internalType": "uint256",
              "name": "price",
              "type": "uint256"
            },
            {
              "internalType": "bool",
              "name": "sold",
              "type": "bool"
            }
          ],
          "internalType": "struct NFTMarketplace.MarketItem[]",
          "name": "",
          "type": "tuple[]"
        }
      ],
      "stateMutability": "view",
      "type": "function"
    },
    {
      "inputs": [],
      "name": "fetchMyNFTs",
      "outputs": [
        {
          "components": [
            {
              "internalType": "uint256",
              "name": "tokenId",
              "type": "uint256"
            },
            {
              "internalType": "address payable",
              "name": "seller",
              "type": "address"
            },
            {
              "internalType": "address payable",
              "name": "owner",
              "type": "address"
            },
            {
              "internalType": "uint256",
              "name": "price",
              "type": "uint256"
            },
            {
              "internalType": "bool",
              "name": "sold",
              "type": "bool"
            }
          ],
          "internalType": "struct NFTMarketplace.MarketItem[]",
          "name": "",
          "type": "tuple[]"
        }
      ],
      "stateMutability": "view",
      "type": "function"
    },
    {
      "inputs": [
        {
          "internalType": "uint256",
          "name": "tokenId",
          "type": "uint256"
        }
      ],
      "name": "getApproved",
      "outputs": [
        {
          "internalType": "address",
          "name": "",
          "type": "address"
        }
      ],
      "stateMutability": "view",
      "type": "function"
    },
    {
      "inputs": [],
      "name": "getBalance",
      "outputs": [
        {
          "internalType": "uint256",
          "name": "",
          "type": "uint256"
        }
      ],
      "stateMutability": "view",
      "type": "function"
    },
    {
      "inputs": [],
      "name": "getListingPrice",
      "outputs": [
        {
          "internalType": "uint256",
          "name": "",
          "type": "uint256"
        }
      ],
      "stateMutability": "view",
      "type": "function"
    },
    {
      "inputs": [],
      "name": "getMemos",
      "outputs": [
        {
          "components": [
            {
              "internalType": "string",
              "name": "name",
              "type": "string"
            },
            {
              "internalType": "string",
              "name": "message",
              "type": "string"
            },
            {
              "internalType": "uint256",
              "name": "timestamp",
              "type": "uint256"
            },
            {
              "internalType": "address",
              "name": "from",
              "type": "address"
            }
          ],
          "internalType": "struct NFTMarketplace.Memo[]",
          "name": "",
          "type": "tuple[]"
        }
      ],
      "stateMutability": "view",
      "type": "function"
    },
    {
      "inputs": [
        {
          "internalType": "address",
          "name": "owner",
          "type": "address"
        },
        {
          "internalType": "address",
          "name": "operator",
          "type": "address"
        }
      ],
      "name": "isApprovedForAll",
      "outputs": [
        {
          "internalType": "bool",
          "name": "",
          "type": "bool"
        }
      ],
      "stateMutability": "view",
      "type": "function"
    },
    {
      "inputs": [],
      "name": "name",
      "outputs": [
        {
          "internalType": "string",
          "name": "",
          "type": "string"
        }
      ],
      "stateMutability": "view",
      "type": "function"
    },
    {
      "inputs": [
        {
          "internalType": "uint256",
          "name": "tokenId",
          "type": "uint256"
        }
      ],
      "name": "ownerOf",
      "outputs": [
        {
          "internalType": "address",
          "name": "",
          "type": "address"
        }
      ],
      "stateMutability": "view",
      "type": "function"
    },
    {
      "inputs": [
        {
          "internalType": "uint256",
          "name": "tokenId",
          "type": "uint256"
        },
        {
          "internalType": "uint256",
          "name": "price",
          "type": "uint256"
        }
      ],
      "name": "resellToken",
      "outputs": [],
      "stateMutability": "payable",
      "type": "function"
    },
    {
      "inputs": [
        {
          "internalType": "address",
          "name": "from",
          "type": "address"
        },
        {
          "internalType": "address",
          "name": "to",
          "type": "address"
        },
        {
          "internalType": "uint256",
          "name": "tokenId",
          "type": "uint256"
        }
      ],
      "name": "safeTransferFrom",
      "outputs": [],
      "stateMutability": "nonpayable",
      "type": "function"
    },
    {
      "inputs": [
        {
          "internalType": "address",
          "name": "from",
          "type": "address"
        },
        {
          "internalType": "address",
          "name": "to",
          "type": "address"
        },
        {
          "internalType": "uint256",
          "name": "tokenId",
          "type": "uint256"
        },
        {
          "internalType": "bytes",
          "name": "data",
          "type": "bytes"
        }
      ],
      "name": "safeTransferFrom",
      "outputs": [],
      "stateMutability": "nonpayable",
      "type": "function"
    },
    {
      "inputs": [
        {
          "internalType": "address",
          "name": "operator",
          "type": "address"
        },
        {
          "internalType": "bool",
          "name": "approved",
          "type": "bool"
        }
      ],
      "name": "setApprovalForAll",
      "outputs": [],
      "stateMutability": "nonpayable",
      "type": "function"
    },
    {
      "inputs": [
        {
          "internalType": "bytes4",
          "name": "interfaceId",
          "type": "bytes4"
        }
      ],
      "name": "supportsInterface",
      "outputs": [
        {
          "internalType": "bool",
          "name": "",
          "type": "bool"
        }
      ],
      "stateMutability": "view",
      "type": "function"
    },
    {
      "inputs": [],
      "name": "symbol",
      "outputs": [
        {
          "internalType": "string",
          "name": "",
          "type": "string"
        }
      ],
      "stateMutability": "view",
      "type": "function"
    },
    {
      "inputs": [
        {
          "internalType": "uint256",
          "name": "tokenId",
          "type": "uint256"
        }
      ],
      "name": "tokenURI",
      "outputs": [
        {
          "internalType": "string",
          "name": "",
          "type": "string"
        }
      ],
      "stateMutability": "view",
      "type": "function"
    },
    {
      "inputs": [
        {
          "internalType": "address",
          "name": "from",
          "type": "address"
        },
        {
          "internalType": "address",
          "name": "to",
          "type": "address"
        },
        {
          "internalType": "uint256",
          "name": "tokenId",
          "type": "uint256"
        }
      ],
      "name": "transferFrom",
      "outputs": [],
      "stateMutability": "nonpayable",
      "type": "function"
    },
    {
      "inputs": [
        {
          "internalType": "uint256",
          "name": "_listingPrice",
          "type": "uint256"
        }
      ],
      "name": "updateListingPrice",
      "outputs": [],
      "stateMutability": "payable",
      "type": "function"
    }
  ],
  "bytecode": "0x60806040526658d15e17628000600a553480156200001c57600080fd5b506040518060400160405280601081526020017f4d657461766572736520546f6b656e73000000000000000000000000000000008152506040518060400160405280600481526020017f4d455454000000000000000000000000000000000000000000000000000000008152508160009080519060200190620000a192919062000145565b508060019080519060200190620000ba92919062000145565b50505033600e60006101000a81548173ffffffffffffffffffffffffffffffffffffffff021916908373ffffffffffffffffffffffffffffffffffffffff16021790555033600b60006101000a81548173ffffffffffffffffffffffffffffffffffffffff021916908373ffffffffffffffffffffffffffffffffffffffff1602179055506200025a565b828054620001539062000224565b90600052602060002090601f016020900481019282620001775760008555620001c3565b82601f106200019257805160ff1916838001178555620001c3565b82800160010185558215620001c3579182015b82811115620001c2578251825591602001919060010190620001a5565b5b509050620001d29190620001d6565b5090565b5b80821115620001f1576000816000905550600101620001d7565b5090565b7f4e487b7100000000000000000000000000000000000000000000000000000000600052602260045260246000fd5b600060028204905060018216806200023d57607f821691505b60208210811415620002545762000253620001f5565b5b50919050565b614985806200026a6000396000f3fe6080604052600436106101665760003560e01c80636a13d859116100d1578063a22cb4651161008a578063be9af53611610064578063be9af53614610517578063c87b56dd14610533578063e219fc7514610570578063e985e9c51461058c57610166565b8063a22cb465146104a9578063ae677aa3146104d2578063b88d4fde146104ee57610166565b80636a13d8591461039f57806370a08231146103bb57806372b3b620146103f8578063865c51721461042857806395d89b4114610453578063a0d180451461047e57610166565b806312e855851161012357806312e855851461028f578063202e3740146102ba57806323b872dd146102e557806342842e0e1461030e57806345f8fa80146103375780636352211e1461036257610166565b806301ffc9a71461016b57806306fdde03146101a8578063081812fc146101d3578063095ea7b3146102105780630f08efe01461023957806312065fe014610264575b600080fd5b34801561017757600080fd5b50610192600480360381019061018d919061316c565b6105c9565b60405161019f91906131b4565b60405180910390f35b3480156101b457600080fd5b506101bd61062a565b6040516101ca9190613268565b60405180910390f35b3480156101df57600080fd5b506101fa60048036038101906101f591906132c0565b6106bc565b604051610207919061332e565b60405180910390f35b34801561021c57600080fd5b5061023760048036038101906102329190613375565b610702565b005b34801561024557600080fd5b5061024e61081a565b60405161025b919061350b565b60405180910390f35b34801561027057600080fd5b50610279610a83565b604051610286919061353c565b60405180910390f35b34801561029b57600080fd5b506102a4610ac4565b6040516102b1919061353c565b60405180910390f35b3480156102c657600080fd5b506102cf610ace565b6040516102dc919061350b565b60405180910390f35b3480156102f157600080fd5b5061030c60048036038101906103079190613557565b610dbc565b005b34801561031a57600080fd5b5061033560048036038101906103309190613557565b610e1c565b005b34801561034357600080fd5b5061034c610e3c565b604051610359919061350b565b60405180910390f35b34801561036e57600080fd5b50610389600480360381019061038491906132c0565b61112a565b604051610396919061332e565b60405180910390f35b6103b960048036038101906103b491906136df565b6111b1565b005b3480156103c757600080fd5b506103e260048036038101906103dd9190613757565b6113a4565b6040516103ef919061353c565b60405180910390f35b610412600480360381019061040d9190613784565b61145c565b60405161041f919061353c565b60405180910390f35b34801561043457600080fd5b5061043d61149e565b60405161044a9190613965565b60405180910390f35b34801561045f57600080fd5b50610468611681565b6040516104759190613268565b60405180910390f35b34801561048a57600080fd5b50610493611713565b6040516104a09190613996565b60405180910390f35b3480156104b557600080fd5b506104d060048036038101906104cb91906139dd565b611739565b005b6104ec60048036038101906104e791906132c0565b61174f565b005b3480156104fa57600080fd5b5061051560048036038101906105109190613abe565b6117e9565b005b610531600480360381019061052c91906132c0565b61184b565b005b34801561053f57600080fd5b5061055a600480360381019061055591906132c0565b611a89565b6040516105679190613268565b60405180910390f35b61058a60048036038101906105859190613b41565b611b9c565b005b34801561059857600080fd5b506105b360048036038101906105ae9190613b81565b611d91565b6040516105c091906131b4565b60405180910390f35b6000634906490660e01b7bffffffffffffffffffffffffffffffffffffffffffffffffffffffff1916827bffffffffffffffffffffffffffffffffffffffffffffffffffffffff19161480610623575061062282611e25565b5b9050919050565b60606000805461063990613bf0565b80601f016020809104026020016040519081016040528092919081815260200182805461066590613bf0565b80156106b25780601f10610687576101008083540402835291602001916106b2565b820191906000526020600020905b81548152906001019060200180831161069557829003601f168201915b5050505050905090565b60006106c782611f07565b6004600083815260200190815260200160002060009054906101000a900473ffffffffffffffffffffffffffffffffffffffff169050919050565b600061070d8261112a565b90508073ffffffffffffffffffffffffffffffffffffffff168373ffffffffffffffffffffffffffffffffffffffff16141561077e576040517f08c379a000000000000000000000000000000000000000000000000000000000815260040161077590613c94565b60405180910390fd5b8073ffffffffffffffffffffffffffffffffffffffff1661079d611f52565b73ffffffffffffffffffffffffffffffffffffffff1614806107cc57506107cb816107c6611f52565b611d91565b5b61080b576040517f08c379a000000000000000000000000000000000000000000000000000000000815260040161080290613d26565b60405180910390fd5b6108158383611f5a565b505050565b606060006108286007612013565b905060006108366008612013565b6108406007612013565b61084a9190613d75565b90506000808267ffffffffffffffff811115610869576108686135b4565b5b6040519080825280602002602001820160405280156108a257816020015b61088f613000565b8152602001906001900390816108875790505b50905060005b84811015610a78573073ffffffffffffffffffffffffffffffffffffffff16600c60006001846108d89190613da9565b815260200190815260200160002060020160009054906101000a900473ffffffffffffffffffffffffffffffffffffffff1673ffffffffffffffffffffffffffffffffffffffff161415610a655760006001826109359190613da9565b90506000600c60008381526020019081526020016000209050806040518060a0016040529081600082015481526020016001820160009054906101000a900473ffffffffffffffffffffffffffffffffffffffff1673ffffffffffffffffffffffffffffffffffffffff1673ffffffffffffffffffffffffffffffffffffffff1681526020016002820160009054906101000a900473ffffffffffffffffffffffffffffffffffffffff1673ffffffffffffffffffffffffffffffffffffffff1673ffffffffffffffffffffffffffffffffffffffff168152602001600382015481526020016004820160009054906101000a900460ff161515151581525050848681518110610a4857610a47613dff565b5b6020026020010181905250600185610a609190613da9565b945050505b8080610a7090613e2e565b9150506108a8565b508094505050505090565b6000600e60009054906101000a900473ffffffffffffffffffffffffffffffffffffffff1673ffffffffffffffffffffffffffffffffffffffff1631905090565b6000600a54905090565b60606000610adc6007612013565b905060008060005b83811015610b85573373ffffffffffffffffffffffffffffffffffffffff16600c6000600184610b149190613da9565b815260200190815260200160002060020160009054906101000a900473ffffffffffffffffffffffffffffffffffffffff1673ffffffffffffffffffffffffffffffffffffffff161415610b7257600183610b6f9190613da9565b92505b8080610b7d90613e2e565b915050610ae4565b5060008267ffffffffffffffff811115610ba257610ba16135b4565b5b604051908082528060200260200182016040528015610bdb57816020015b610bc8613000565b815260200190600190039081610bc05790505b50905060005b84811015610db1573373ffffffffffffffffffffffffffffffffffffffff16600c6000600184610c119190613da9565b815260200190815260200160002060020160009054906101000a900473ffffffffffffffffffffffffffffffffffffffff1673ffffffffffffffffffffffffffffffffffffffff161415610d9e576000600182610c6e9190613da9565b90506000600c60008381526020019081526020016000209050806040518060a0016040529081600082015481526020016001820160009054906101000a900473ffffffffffffffffffffffffffffffffffffffff1673ffffffffffffffffffffffffffffffffffffffff1673ffffffffffffffffffffffffffffffffffffffff1681526020016002820160009054906101000a900473ffffffffffffffffffffffffffffffffffffffff1673ffffffffffffffffffffffffffffffffffffffff1673ffffffffffffffffffffffffffffffffffffffff168152602001600382015481526020016004820160009054906101000a900460ff161515151581525050848681518110610d8157610d80613dff565b5b6020026020010181905250600185610d999190613da9565b945050505b8080610da990613e2e565b915050610be1565b508094505050505090565b610dcd610dc7611f52565b82612021565b610e0c576040517f08c379a0000000000000000000000000000000000000000000000000000000008152600401610e0390613ee9565b60405180910390fd5b610e178383836120b6565b505050565b610e37838383604051806020016040528060008152506117e9565b505050565b60606000610e4a6007612013565b905060008060005b83811015610ef3573373ffffffffffffffffffffffffffffffffffffffff16600c6000600184610e829190613da9565b815260200190815260200160002060010160009054906101000a900473ffffffffffffffffffffffffffffffffffffffff1673ffffffffffffffffffffffffffffffffffffffff161415610ee057600183610edd9190613da9565b92505b8080610eeb90613e2e565b915050610e52565b5060008267ffffffffffffffff811115610f1057610f0f6135b4565b5b604051908082528060200260200182016040528015610f4957816020015b610f36613000565b815260200190600190039081610f2e5790505b50905060005b8481101561111f573373ffffffffffffffffffffffffffffffffffffffff16600c6000600184610f7f9190613da9565b815260200190815260200160002060010160009054906101000a900473ffffffffffffffffffffffffffffffffffffffff1673ffffffffffffffffffffffffffffffffffffffff16141561110c576000600182610fdc9190613da9565b90506000600c60008381526020019081526020016000209050806040518060a0016040529081600082015481526020016001820160009054906101000a900473ffffffffffffffffffffffffffffffffffffffff1673ffffffffffffffffffffffffffffffffffffffff1673ffffffffffffffffffffffffffffffffffffffff1681526020016002820160009054906101000a900473ffffffffffffffffffffffffffffffffffffffff1673ffffffffffffffffffffffffffffffffffffffff1673ffffffffffffffffffffffffffffffffffffffff168152602001600382015481526020016004820160009054906101000a900460ff1615151515815250508486815181106110ef576110ee613dff565b5b60200260200101819052506001856111079190613da9565b945050505b808061111790613e2e565b915050610f4f565b508094505050505090565b600080611136836123b0565b9050600073ffffffffffffffffffffffffffffffffffffffff168173ffffffffffffffffffffffffffffffffffffffff1614156111a8576040517f08c379a000000000000000000000000000000000000000000000000000000000815260040161119f90613f55565b60405180910390fd5b80915050919050565b600034116111f4576040517f08c379a00000000000000000000000000000000000000000000000000000000081526004016111eb90613fe7565b60405180910390fd5b600e60009054906101000a900473ffffffffffffffffffffffffffffffffffffffff1673ffffffffffffffffffffffffffffffffffffffff166108fc349081150290604051600060405180830381858888f1935050505015801561125c573d6000803e3d6000fd5b50600d60405180608001604052808481526020018381526020014281526020013373ffffffffffffffffffffffffffffffffffffffff16815250908060018154018082558091505060019003906000526020600020906004020160009091909190915060008201518160000190805190602001906112db92919061305d565b5060208201518160010190805190602001906112f892919061305d565b506040820151816002015560608201518160030160006101000a81548173ffffffffffffffffffffffffffffffffffffffff021916908373ffffffffffffffffffffffffffffffffffffffff16021790555050503373ffffffffffffffffffffffffffffffffffffffff167fdd10e0ac7ff4472e4e130e66c1b79a146ea2f69e23abeb3c96097d9066eaa204838342346040516113989493929190614007565b60405180910390a25050565b60008073ffffffffffffffffffffffffffffffffffffffff168273ffffffffffffffffffffffffffffffffffffffff161415611415576040517f08c379a000000000000000000000000000000000000000000000000000000000815260040161140c906140cc565b60405180910390fd5b600360008373ffffffffffffffffffffffffffffffffffffffff1673ffffffffffffffffffffffffffffffffffffffff168152602001908152602001600020549050919050565b600061146860076123ed565b60006114746007612013565b90506114803382612403565b61148a8185612621565b61149481846126cc565b8091505092915050565b6060600d805480602002602001604051908101604052809291908181526020016000905b8282101561167857838290600052602060002090600402016040518060800160405290816000820180546114f590613bf0565b80601f016020809104026020016040519081016040528092919081815260200182805461152190613bf0565b801561156e5780601f106115435761010080835404028352916020019161156e565b820191906000526020600020905b81548152906001019060200180831161155157829003601f168201915b5050505050815260200160018201805461158790613bf0565b80601f01602080910402602001604051908101604052809291908181526020018280546115b390613bf0565b80156116005780601f106115d557610100808354040283529160200191611600565b820191906000526020600020905b8154815290600101906020018083116115e357829003601f168201915b50505050508152602001600282015481526020016003820160009054906101000a900473ffffffffffffffffffffffffffffffffffffffff1673ffffffffffffffffffffffffffffffffffffffff1673ffffffffffffffffffffffffffffffffffffffff1681525050815260200190600101906114c2565b50505050905090565b60606001805461169090613bf0565b80601f01602080910402602001604051908101604052809291908181526020018280546116bc90613bf0565b80156117095780601f106116de57610100808354040283529160200191611709565b820191906000526020600020905b8154815290600101906020018083116116ec57829003601f168201915b5050505050905090565b600e60009054906101000a900473ffffffffffffffffffffffffffffffffffffffff1681565b61174b611744611f52565b83836128cf565b5050565b3373ffffffffffffffffffffffffffffffffffffffff16600b60009054906101000a900473ffffffffffffffffffffffffffffffffffffffff1673ffffffffffffffffffffffffffffffffffffffff16146117df576040517f08c379a00000000000000000000000000000000000000000000000000000000081526004016117d69061415e565b60405180910390fd5b80600a8190555050565b6117fa6117f4611f52565b83612021565b611839576040517f08c379a000000000000000000000000000000000000000000000000000000000815260040161183090613ee9565b60405180910390fd5b61184584848484612a3c565b50505050565b6000600c60008381526020019081526020016000206003015490506000600c600084815260200190815260200160002060010160009054906101000a900473ffffffffffffffffffffffffffffffffffffffff1690508134146118e3576040517f08c379a00000000000000000000000000000000000000000000000000000000081526004016118da906141f0565b60405180910390fd5b33600c600085815260200190815260200160002060020160006101000a81548173ffffffffffffffffffffffffffffffffffffffff021916908373ffffffffffffffffffffffffffffffffffffffff1602179055506001600c600085815260200190815260200160002060040160006101000a81548160ff0219169083151502179055506000600c600085815260200190815260200160002060010160006101000a81548173ffffffffffffffffffffffffffffffffffffffff021916908373ffffffffffffffffffffffffffffffffffffffff1602179055506119c760086123ed565b6119d23033856120b6565b600b60009054906101000a900473ffffffffffffffffffffffffffffffffffffffff1673ffffffffffffffffffffffffffffffffffffffff166108fc600a549081150290604051600060405180830381858888f19350505050158015611a3c573d6000803e3d6000fd5b508073ffffffffffffffffffffffffffffffffffffffff166108fc349081150290604051600060405180830381858888f19350505050158015611a83573d6000803e3d6000fd5b50505050565b6060611a9482611f07565b6000600660008481526020019081526020016000208054611ab490613bf0565b80601f0160208091040260200160405190810160405280929190818152602001828054611ae090613bf0565b8015611b2d5780601f10611b0257610100808354040283529160200191611b2d565b820191906000526020600020905b815481529060010190602001808311611b1057829003601f168201915b505050505090506000611b3e612a98565b9050600081511415611b54578192505050611b97565b600082511115611b89578082604051602001611b7192919061424c565b60405160208183030381529060405292505050611b97565b611b9284612aaf565b925050505b919050565b3373ffffffffffffffffffffffffffffffffffffffff16600c600084815260200190815260200160002060020160009054906101000a900473ffffffffffffffffffffffffffffffffffffffff1673ffffffffffffffffffffffffffffffffffffffff1614611c40576040517f08c379a0000000000000000000000000000000000000000000000000000000008152600401611c37906142e2565b60405180910390fd5b600a543414611c84576040517f08c379a0000000000000000000000000000000000000000000000000000000008152600401611c7b90614374565b60405180910390fd5b6000600c600084815260200190815260200160002060040160006101000a81548160ff02191690831515021790555080600c60008481526020019081526020016000206003018190555033600c600084815260200190815260200160002060010160006101000a81548173ffffffffffffffffffffffffffffffffffffffff021916908373ffffffffffffffffffffffffffffffffffffffff16021790555030600c600084815260200190815260200160002060020160006101000a81548173ffffffffffffffffffffffffffffffffffffffff021916908373ffffffffffffffffffffffffffffffffffffffff160217905550611d826008612b17565b611d8d3330846120b6565b5050565b6000600560008473ffffffffffffffffffffffffffffffffffffffff1673ffffffffffffffffffffffffffffffffffffffff16815260200190815260200160002060008373ffffffffffffffffffffffffffffffffffffffff1673ffffffffffffffffffffffffffffffffffffffff16815260200190815260200160002060009054906101000a900460ff16905092915050565b60007f80ac58cd000000000000000000000000000000000000000000000000000000007bffffffffffffffffffffffffffffffffffffffffffffffffffffffff1916827bffffffffffffffffffffffffffffffffffffffffffffffffffffffff19161480611ef057507f5b5e139f000000000000000000000000000000000000000000000000000000007bffffffffffffffffffffffffffffffffffffffffffffffffffffffff1916827bffffffffffffffffffffffffffffffffffffffffffffffffffffffff1916145b80611f005750611eff82612b73565b5b9050919050565b611f1081612bdd565b611f4f576040517f08c379a0000000000000000000000000000000000000000000000000000000008152600401611f4690613f55565b60405180910390fd5b50565b600033905090565b816004600083815260200190815260200160002060006101000a81548173ffffffffffffffffffffffffffffffffffffffff021916908373ffffffffffffffffffffffffffffffffffffffff160217905550808273ffffffffffffffffffffffffffffffffffffffff16611fcd8361112a565b73ffffffffffffffffffffffffffffffffffffffff167f8c5be1e5ebec7d5bd14f71427d1e84f3dd0314c0f7b2291e5b200ac8c7c3b92560405160405180910390a45050565b600081600001549050919050565b60008061202d8361112a565b90508073ffffffffffffffffffffffffffffffffffffffff168473ffffffffffffffffffffffffffffffffffffffff16148061206f575061206e8185611d91565b5b806120ad57508373ffffffffffffffffffffffffffffffffffffffff16612095846106bc565b73ffffffffffffffffffffffffffffffffffffffff16145b91505092915050565b8273ffffffffffffffffffffffffffffffffffffffff166120d68261112a565b73ffffffffffffffffffffffffffffffffffffffff161461212c576040517f08c379a000000000000000000000000000000000000000000000000000000000815260040161212390614406565b60405180910390fd5b600073ffffffffffffffffffffffffffffffffffffffff168273ffffffffffffffffffffffffffffffffffffffff16141561219c576040517f08c379a000000000000000000000000000000000000000000000000000000000815260040161219390614498565b60405180910390fd5b6121a98383836001612c1e565b8273ffffffffffffffffffffffffffffffffffffffff166121c98261112a565b73ffffffffffffffffffffffffffffffffffffffff161461221f576040517f08c379a000000000000000000000000000000000000000000000000000000000815260040161221690614406565b60405180910390fd5b6004600082815260200190815260200160002060006101000a81549073ffffffffffffffffffffffffffffffffffffffff02191690556001600360008573ffffffffffffffffffffffffffffffffffffffff1673ffffffffffffffffffffffffffffffffffffffff168152602001908152602001600020600082825403925050819055506001600360008473ffffffffffffffffffffffffffffffffffffffff1673ffffffffffffffffffffffffffffffffffffffff16815260200190815260200160002060008282540192505081905550816002600083815260200190815260200160002060006101000a81548173ffffffffffffffffffffffffffffffffffffffff021916908373ffffffffffffffffffffffffffffffffffffffff160217905550808273ffffffffffffffffffffffffffffffffffffffff168473ffffffffffffffffffffffffffffffffffffffff167fddf252ad1be2c89b69c2b068fc378daa952ba7f163c4a11628f55a4df523b3ef60405160405180910390a46123ab8383836001612c24565b505050565b60006002600083815260200190815260200160002060009054906101000a900473ffffffffffffffffffffffffffffffffffffffff169050919050565b6001816000016000828254019250508190555050565b600073ffffffffffffffffffffffffffffffffffffffff168273ffffffffffffffffffffffffffffffffffffffff161415612473576040517f08c379a000000000000000000000000000000000000000000000000000000000815260040161246a90614504565b60405180910390fd5b61247c81612bdd565b156124bc576040517f08c379a00000000000000000000000000000000000000000000000000000000081526004016124b390614570565b60405180910390fd5b6124ca600083836001612c1e565b6124d381612bdd565b15612513576040517f08c379a000000000000000000000000000000000000000000000000000000000815260040161250a90614570565b60405180910390fd5b6001600360008473ffffffffffffffffffffffffffffffffffffffff1673ffffffffffffffffffffffffffffffffffffffff16815260200190815260200160002060008282540192505081905550816002600083815260200190815260200160002060006101000a81548173ffffffffffffffffffffffffffffffffffffffff021916908373ffffffffffffffffffffffffffffffffffffffff160217905550808273ffffffffffffffffffffffffffffffffffffffff16600073ffffffffffffffffffffffffffffffffffffffff167fddf252ad1be2c89b69c2b068fc378daa952ba7f163c4a11628f55a4df523b3ef60405160405180910390a461261d600083836001612c24565b5050565b61262a82612bdd565b612669576040517f08c379a000000000000000000000000000000000000000000000000000000000815260040161266090614602565b60405180910390fd5b8060066000848152602001908152602001600020908051906020019061269092919061305d565b507ff8e1a15aba9398e019f0b49df1a4fde98ee17ae345cb5f6b5e2c27f5033e8ce7826040516126c0919061353c565b60405180910390a15050565b6000811161270f576040517f08c379a00000000000000000000000000000000000000000000000000000000081526004016127069061466e565b60405180910390fd5b600a543414612753576040517f08c379a000000000000000000000000000000000000000000000000000000000815260040161274a90614374565b60405180910390fd5b6040518060a001604052808381526020013373ffffffffffffffffffffffffffffffffffffffff1681526020013073ffffffffffffffffffffffffffffffffffffffff16815260200182815260200160001515815250600c60008481526020019081526020016000206000820151816000015560208201518160010160006101000a81548173ffffffffffffffffffffffffffffffffffffffff021916908373ffffffffffffffffffffffffffffffffffffffff16021790555060408201518160020160006101000a81548173ffffffffffffffffffffffffffffffffffffffff021916908373ffffffffffffffffffffffffffffffffffffffff1602179055506060820151816003015560808201518160040160006101000a81548160ff02191690831515021790555090505061288c3330846120b6565b817fb640004f1d14576d0c209e240cad0410e0d8c0c33a09375861fbadae2588a98d33308460006040516128c3949392919061468e565b60405180910390a25050565b8173ffffffffffffffffffffffffffffffffffffffff168373ffffffffffffffffffffffffffffffffffffffff16141561293e576040517f08c379a00000000000000000000000000000000000000000000000000000000081526004016129359061471f565b60405180910390fd5b80600560008573ffffffffffffffffffffffffffffffffffffffff1673ffffffffffffffffffffffffffffffffffffffff16815260200190815260200160002060008473ffffffffffffffffffffffffffffffffffffffff1673ffffffffffffffffffffffffffffffffffffffff16815260200190815260200160002060006101000a81548160ff0219169083151502179055508173ffffffffffffffffffffffffffffffffffffffff168373ffffffffffffffffffffffffffffffffffffffff167f17307eab39ab6107e8899845ad3d59bd9653f200f220920489ca2b5937696c3183604051612a2f91906131b4565b60405180910390a3505050565b612a478484846120b6565b612a5384848484612c2a565b612a92576040517f08c379a0000000000000000000000000000000000000000000000000000000008152600401612a89906147b1565b60405180910390fd5b50505050565b606060405180602001604052806000815250905090565b6060612aba82611f07565b6000612ac4612a98565b90506000815111612ae45760405180602001604052806000815250612b0f565b80612aee84612db2565b604051602001612aff92919061424c565b6040516020818303038152906040525b915050919050565b60008160000154905060008111612b63576040517f08c379a0000000000000000000000000000000000000000000000000000000008152600401612b5a9061481d565b60405180910390fd5b6001810382600001819055505050565b60007f01ffc9a7000000000000000000000000000000000000000000000000000000007bffffffffffffffffffffffffffffffffffffffffffffffffffffffff1916827bffffffffffffffffffffffffffffffffffffffffffffffffffffffff1916149050919050565b60008073ffffffffffffffffffffffffffffffffffffffff16612bff836123b0565b73ffffffffffffffffffffffffffffffffffffffff1614159050919050565b50505050565b50505050565b6000612c4b8473ffffffffffffffffffffffffffffffffffffffff16612e8a565b15612da5578373ffffffffffffffffffffffffffffffffffffffff1663150b7a02612c74611f52565b8786866040518563ffffffff1660e01b8152600401612c969493929190614892565b6020604051808303816000875af1925050508015612cd257506040513d601f19601f82011682018060405250810190612ccf91906148f3565b60015b612d55573d8060008114612d02576040519150601f19603f3d011682016040523d82523d6000602084013e612d07565b606091505b50600081511415612d4d576040517f08c379a0000000000000000000000000000000000000000000000000000000008152600401612d44906147b1565b60405180910390fd5b805181602001fd5b63150b7a0260e01b7bffffffffffffffffffffffffffffffffffffffffffffffffffffffff1916817bffffffffffffffffffffffffffffffffffffffffffffffffffffffff191614915050612daa565b600190505b949350505050565b606060006001612dc184612ead565b01905060008167ffffffffffffffff811115612de057612ddf6135b4565b5b6040519080825280601f01601f191660200182016040528015612e125781602001600182028036833780820191505090505b509050600082602001820190505b600115612e7f578080600190039150507f3031323334353637383961626364656600000000000000000000000000000000600a86061a8153600a8581612e6957612e68614920565b5b0494506000851415612e7a57612e7f565b612e20565b819350505050919050565b6000808273ffffffffffffffffffffffffffffffffffffffff163b119050919050565b600080600090507a184f03e93ff9f4daa797ed6e38ed64bf6a1f0100000000000000008310612f0b577a184f03e93ff9f4daa797ed6e38ed64bf6a1f0100000000000000008381612f0157612f00614920565b5b0492506040810190505b6d04ee2d6d415b85acef81000000008310612f48576d04ee2d6d415b85acef81000000008381612f3e57612f3d614920565b5b0492506020810190505b662386f26fc100008310612f7757662386f26fc100008381612f6d57612f6c614920565b5b0492506010810190505b6305f5e1008310612fa0576305f5e1008381612f9657612f95614920565b5b0492506008810190505b6127108310612fc5576127108381612fbb57612fba614920565b5b0492506004810190505b60648310612fe85760648381612fde57612fdd614920565b5b0492506002810190505b600a8310612ff7576001810190505b80915050919050565b6040518060a0016040528060008152602001600073ffffffffffffffffffffffffffffffffffffffff168152602001600073ffffffffffffffffffffffffffffffffffffffff168152602001600081526020016000151581525090565b82805461306990613bf0565b90600052602060002090601f01602090048101928261308b57600085556130d2565b82601f106130a457805160ff19168380011785556130d2565b828001600101855582156130d2579182015b828111156130d15782518255916020019190600101906130b6565b5b5090506130df91906130e3565b5090565b5b808211156130fc5760008160009055506001016130e4565b5090565b6000604051905090565b600080fd5b600080fd5b60007fffffffff0000000000000000000000000000000000000000000000000000000082169050919050565b61314981613114565b811461315457600080fd5b50565b60008135905061316681613140565b92915050565b6000602082840312156131825761318161310a565b5b600061319084828501613157565b91505092915050565b60008115159050919050565b6131ae81613199565b82525050565b60006020820190506131c960008301846131a5565b92915050565b600081519050919050565b600082825260208201905092915050565b60005b838110156132095780820151818401526020810190506131ee565b83811115613218576000848401525b50505050565b6000601f19601f8301169050919050565b600061323a826131cf565b61324481856131da565b93506132548185602086016131eb565b61325d8161321e565b840191505092915050565b60006020820190508181036000830152613282818461322f565b905092915050565b6000819050919050565b61329d8161328a565b81146132a857600080fd5b50565b6000813590506132ba81613294565b92915050565b6000602082840312156132d6576132d561310a565b5b60006132e4848285016132ab565b91505092915050565b600073ffffffffffffffffffffffffffffffffffffffff82169050919050565b6000613318826132ed565b9050919050565b6133288161330d565b82525050565b6000602082019050613343600083018461331f565b92915050565b6133528161330d565b811461335d57600080fd5b50565b60008135905061336f81613349565b92915050565b6000806040838503121561338c5761338b61310a565b5b600061339a85828601613360565b92505060206133ab858286016132ab565b9150509250929050565b600081519050919050565b600082825260208201905092915050565b6000819050602082019050919050565b6133ea8161328a565b82525050565b60006133fb826132ed565b9050919050565b61340b816133f0565b82525050565b61341a81613199565b82525050565b60a08201600082015161343660008501826133e1565b5060208201516134496020850182613402565b50604082015161345c6040850182613402565b50606082015161346f60608501826133e1565b5060808201516134826080850182613411565b50505050565b60006134948383613420565b60a08301905092915050565b6000602082019050919050565b60006134b8826133b5565b6134c281856133c0565b93506134cd836133d1565b8060005b838110156134fe5781516134e58882613488565b97506134f0836134a0565b9250506001810190506134d1565b5085935050505092915050565b6000602082019050818103600083015261352581846134ad565b905092915050565b6135368161328a565b82525050565b6000602082019050613551600083018461352d565b92915050565b6000806000606084860312156135705761356f61310a565b5b600061357e86828701613360565b935050602061358f86828701613360565b92505060406135a0868287016132ab565b9150509250925092565b600080fd5b600080fd5b7f4e487b7100000000000000000000000000000000000000000000000000000000600052604160045260246000fd5b6135ec8261321e565b810181811067ffffffffffffffff8211171561360b5761360a6135b4565b5b80604052505050565b600061361e613100565b905061362a82826135e3565b919050565b600067ffffffffffffffff82111561364a576136496135b4565b5b6136538261321e565b9050602081019050919050565b82818337600083830152505050565b600061368261367d8461362f565b613614565b90508281526020810184848401111561369e5761369d6135af565b5b6136a9848285613660565b509392505050565b600082601f8301126136c6576136c56135aa565b5b81356136d684826020860161366f565b91505092915050565b600080604083850312156136f6576136f561310a565b5b600083013567ffffffffffffffff8111156137145761371361310f565b5b613720858286016136b1565b925050602083013567ffffffffffffffff8111156137415761374061310f565b5b61374d858286016136b1565b9150509250929050565b60006020828403121561376d5761376c61310a565b5b600061377b84828501613360565b91505092915050565b6000806040838503121561379b5761379a61310a565b5b600083013567ffffffffffffffff8111156137b9576137b861310f565b5b6137c5858286016136b1565b92505060206137d6858286016132ab565b9150509250929050565b600081519050919050565b600082825260208201905092915050565b6000819050602082019050919050565b600082825260208201905092915050565b6000613828826131cf565b613832818561380c565b93506138428185602086016131eb565b61384b8161321e565b840191505092915050565b61385f8161330d565b82525050565b60006080830160008301518482036000860152613882828261381d565b9150506020830151848203602086015261389c828261381d565b91505060408301516138b160408601826133e1565b5060608301516138c46060860182613856565b508091505092915050565b60006138db8383613865565b905092915050565b6000602082019050919050565b60006138fb826137e0565b61390581856137eb565b935083602082028501613917856137fc565b8060005b85811015613953578484038952815161393485826138cf565b945061393f836138e3565b925060208a0199505060018101905061391b565b50829750879550505050505092915050565b6000602082019050818103600083015261397f81846138f0565b905092915050565b613990816133f0565b82525050565b60006020820190506139ab6000830184613987565b92915050565b6139ba81613199565b81146139c557600080fd5b50565b6000813590506139d7816139b1565b92915050565b600080604083850312156139f4576139f361310a565b5b6000613a0285828601613360565b9250506020613a13858286016139c8565b9150509250929050565b600067ffffffffffffffff821115613a3857613a376135b4565b5b613a418261321e565b9050602081019050919050565b6000613a61613a5c84613a1d565b613614565b905082815260208101848484011115613a7d57613a7c6135af565b5b613a88848285613660565b509392505050565b600082601f830112613aa557613aa46135aa565b5b8135613ab5848260208601613a4e565b91505092915050565b60008060008060808587031215613ad857613ad761310a565b5b6000613ae687828801613360565b9450506020613af787828801613360565b9350506040613b08878288016132ab565b925050606085013567ffffffffffffffff811115613b2957613b2861310f565b5b613b3587828801613a90565b91505092959194509250565b60008060408385031215613b5857613b5761310a565b5b6000613b66858286016132ab565b9250506020613b77858286016132ab565b9150509250929050565b60008060408385031215613b9857613b9761310a565b5b6000613ba685828601613360565b9250506020613bb785828601613360565b9150509250929050565b7f4e487b7100000000000000000000000000000000000000000000000000000000600052602260045260246000fd5b60006002820490506001821680613c0857607f821691505b60208210811415613c1c57613c1b613bc1565b5b50919050565b7f4552433732313a20617070726f76616c20746f2063757272656e74206f776e6560008201527f7200000000000000000000000000000000000000000000000000000000000000602082015250565b6000613c7e6021836131da565b9150613c8982613c22565b604082019050919050565b60006020820190508181036000830152613cad81613c71565b9050919050565b7f4552433732313a20617070726f76652063616c6c6572206973206e6f7420746f60008201527f6b656e206f776e6572206f7220617070726f76656420666f7220616c6c000000602082015250565b6000613d10603d836131da565b9150613d1b82613cb4565b604082019050919050565b60006020820190508181036000830152613d3f81613d03565b9050919050565b7f4e487b7100000000000000000000000000000000000000000000000000000000600052601160045260246000fd5b6000613d808261328a565b9150613d8b8361328a565b925082821015613d9e57613d9d613d46565b5b828203905092915050565b6000613db48261328a565b9150613dbf8361328a565b9250827fffffffffffffffffffffffffffffffffffffffffffffffffffffffffffffffff03821115613df457613df3613d46565b5b828201905092915050565b7f4e487b7100000000000000000000000000000000000000000000000000000000600052603260045260246000fd5b6000613e398261328a565b91507fffffffffffffffffffffffffffffffffffffffffffffffffffffffffffffffff821415613e6c57613e6b613d46565b5b600182019050919050565b7f4552433732313a2063616c6c6572206973206e6f7420746f6b656e206f776e6560008201527f72206f7220617070726f76656400000000000000000000000000000000000000602082015250565b6000613ed3602d836131da565b9150613ede82613e77565b604082019050919050565b60006020820190508181036000830152613f0281613ec6565b9050919050565b7f4552433732313a20696e76616c696420746f6b656e2049440000000000000000600082015250565b6000613f3f6018836131da565b9150613f4a82613f09565b602082019050919050565b60006020820190508181036000830152613f6e81613f32565b9050919050565b7f506c656173652070617920736f6d657468696e6720677265617465722074686160008201527f6e20300000000000000000000000000000000000000000000000000000000000602082015250565b6000613fd16023836131da565b9150613fdc82613f75565b604082019050919050565b6000602082019050818103600083015261400081613fc4565b9050919050565b60006080820190508181036000830152614021818761322f565b90508181036020830152614035818661322f565b9050614044604083018561352d565b614051606083018461352d565b95945050505050565b7f4552433732313a2061646472657373207a65726f206973206e6f74206120766160008201527f6c6964206f776e65720000000000000000000000000000000000000000000000602082015250565b60006140b66029836131da565b91506140c18261405a565b604082019050919050565b600060208201905081810360008301526140e5816140a9565b9050919050565b7f4f6e6c79206d61726b6574706c616365206f776e65722063616e20757064617460008201527f65206c697374696e672070726963652e00000000000000000000000000000000602082015250565b60006141486030836131da565b9150614153826140ec565b604082019050919050565b600060208201905081810360008301526141778161413b565b9050919050565b7f506c65617365207375626d6974207468652061736b696e67207072696365206960008201527f6e206f7264657220746f20636f6d706c65746520746865207075726368617365602082015250565b60006141da6040836131da565b91506141e58261417e565b604082019050919050565b60006020820190508181036000830152614209816141cd565b9050919050565b600081905092915050565b6000614226826131cf565b6142308185614210565b93506142408185602086016131eb565b80840191505092915050565b6000614258828561421b565b9150614264828461421b565b91508190509392505050565b7f4f6e6c79206974656d206f776e65722063616e20706572666f726d207468697360008201527f206f7065726174696f6e00000000000000000000000000000000000000000000602082015250565b60006142cc602a836131da565b91506142d782614270565b604082019050919050565b600060208201905081810360008301526142fb816142bf565b9050919050565b7f5072696365206d75737420626520657175616c20746f206c697374696e67207060008201527f7269636500000000000000000000000000000000000000000000000000000000602082015250565b600061435e6024836131da565b915061436982614302565b604082019050919050565b6000602082019050818103600083015261438d81614351565b9050919050565b7f4552433732313a207472616e736665722066726f6d20696e636f72726563742060008201527f6f776e6572000000000000000000000000000000000000000000000000000000602082015250565b60006143f06025836131da565b91506143fb82614394565b604082019050919050565b6000602082019050818103600083015261441f816143e3565b9050919050565b7f4552433732313a207472616e7366657220746f20746865207a65726f2061646460008201527f7265737300000000000000000000000000000000000000000000000000000000602082015250565b60006144826024836131da565b915061448d82614426565b604082019050919050565b600060208201905081810360008301526144b181614475565b9050919050565b7f4552433732313a206d696e7420746f20746865207a65726f2061646472657373600082015250565b60006144ee6020836131da565b91506144f9826144b8565b602082019050919050565b6000602082019050818103600083015261451d816144e1565b9050919050565b7f4552433732313a20746f6b656e20616c7265616479206d696e74656400000000600082015250565b600061455a601c836131da565b915061456582614524565b602082019050919050565b600060208201905081810360008301526145898161454d565b9050919050565b7f45524337323155524953746f726167653a2055524920736574206f66206e6f6e60008201527f6578697374656e7420746f6b656e000000000000000000000000000000000000602082015250565b60006145ec602e836131da565b91506145f782614590565b604082019050919050565b6000602082019050818103600083015261461b816145df565b9050919050565b7f5072696365206d757374206265206174206c6561737420312077656900000000600082015250565b6000614658601c836131da565b915061466382614622565b602082019050919050565b600060208201905081810360008301526146878161464b565b9050919050565b60006080820190506146a3600083018761331f565b6146b0602083018661331f565b6146bd604083018561352d565b6146ca60608301846131a5565b95945050505050565b7f4552433732313a20617070726f766520746f2063616c6c657200000000000000600082015250565b60006147096019836131da565b9150614714826146d3565b602082019050919050565b60006020820190508181036000830152614738816146fc565b9050919050565b7f4552433732313a207472616e7366657220746f206e6f6e20455243373231526560008201527f63656976657220696d706c656d656e7465720000000000000000000000000000602082015250565b600061479b6032836131da565b91506147a68261473f565b604082019050919050565b600060208201905081810360008301526147ca8161478e565b9050919050565b7f436f756e7465723a2064656372656d656e74206f766572666c6f770000000000600082015250565b6000614807601b836131da565b9150614812826147d1565b602082019050919050565b60006020820190508181036000830152614836816147fa565b9050919050565b600081519050919050565b600082825260208201905092915050565b60006148648261483d565b61486e8185614848565b935061487e8185602086016131eb565b6148878161321e565b840191505092915050565b60006080820190506148a7600083018761331f565b6148b4602083018661331f565b6148c1604083018561352d565b81810360608301526148d38184614859565b905095945050505050565b6000815190506148ed81613140565b92915050565b6000602082840312156149095761490861310a565b5b6000614917848285016148de565b91505092915050565b7f4e487b7100000000000000000000000000000000000000000000000000000000600052601260045260246000fdfea264697066735822122091cf88060500a64bb0e4ce99fed26ec0b9a9740d30a11eb05b28fe901f03dddd64736f6c634300080a0033",
  "linkReferences": {},
  "deployedLinkReferences": {}
}