{
  "_format": "hh-sol-artifact-1",
  "contractName": "NFTMarketplace",
  "sourceName": "contracts/NFTMarketplace.sol",
  "abi": [
    {
      "inputs": [],
      "stateMutability": "nonpayable",
      "type": "constructor"
    },
    {
      "anonymous": false,
      "inputs": [
        {
          "indexed": true,
          "internalType": "address",
          "name": "owner",
          "type": "address"
        },
        {
          "indexed": true,
          "internalType": "address",
          "name": "approved",
          "type": "address"
        },
        {
          "indexed": true,
          "internalType": "uint256",
          "name": "tokenId",
          "type": "uint256"
        }
      ],
      "name": "Approval",
      "type": "event"
    },
    {
      "anonymous": false,
      "inputs": [
        {
          "indexed": true,
          "internalType": "address",
          "name": "owner",
          "type": "address"
        },
        {
          "indexed": true,
          "internalType": "address",
          "name": "operator",
          "type": "address"
        },
        {
          "indexed": false,
          "internalType": "bool",
          "name": "approved",
          "type": "bool"
        }
      ],
      "name": "ApprovalForAll",
      "type": "event"
    },
    {
      "anonymous": false,
      "inputs": [
        {
          "indexed": false,
          "internalType": "uint256",
          "name": "_fromTokenId",
          "type": "uint256"
        },
        {
          "indexed": false,
          "internalType": "uint256",
          "name": "_toTokenId",
          "type": "uint256"
        }
      ],
      "name": "BatchMetadataUpdate",
      "type": "event"
    },
    {
      "anonymous": false,
      "inputs": [
        {
          "indexed": false,
          "internalType": "string",
          "name": "name",
          "type": "string"
        },
        {
          "indexed": false,
          "internalType": "string",
          "name": "message",
          "type": "string"
        },
        {
          "indexed": false,
          "internalType": "uint256",
          "name": "timestamp",
          "type": "uint256"
        },
        {
          "indexed": false,
          "internalType": "address",
          "name": "buyer",
          "type": "address"
        },
        {
          "indexed": false,
          "internalType": "uint256",
          "name": "amount",
          "type": "uint256"
        }
      ],
      "name": "ChaiBought",
      "type": "event"
    },
    {
      "anonymous": false,
      "inputs": [
        {
          "indexed": true,
          "internalType": "address",
          "name": "from",
          "type": "address"
        },
        {
          "indexed": false,
          "internalType": "string",
          "name": "name",
          "type": "string"
        },
        {
          "indexed": false,
          "internalType": "string",
          "name": "message",
          "type": "string"
        },
        {
          "indexed": false,
          "internalType": "uint256",
          "name": "timestamp",
          "type": "uint256"
        },
        {
          "indexed": false,
          "internalType": "uint256",
          "name": "amount",
          "type": "uint256"
        }
      ],
      "name": "Donation",
      "type": "event"
    },
    {
      "anonymous": false,
      "inputs": [
        {
          "indexed": false,
          "internalType": "uint256",
          "name": "newPrice",
          "type": "uint256"
        }
      ],
      "name": "ListingPriceUpdated",
      "type": "event"
    },
    {
      "anonymous": false,
      "inputs": [
        {
          "indexed": true,
          "internalType": "uint256",
          "name": "tokenId",
          "type": "uint256"
        },
        {
          "indexed": false,
          "internalType": "address",
          "name": "seller",
          "type": "address"
        },
        {
          "indexed": false,
          "internalType": "address",
          "name": "owner",
          "type": "address"
        },
        {
          "indexed": false,
          "internalType": "uint256",
          "name": "price",
          "type": "uint256"
        },
        {
          "indexed": false,
          "internalType": "bool",
          "name": "sold",
          "type": "bool"
        }
      ],
      "name": "MarketItemCreated",
      "type": "event"
    },
    {
      "anonymous": false,
      "inputs": [
        {
          "indexed": true,
          "internalType": "uint256",
          "name": "tokenId",
          "type": "uint256"
        },
        {
          "indexed": false,
          "internalType": "address",
          "name": "buyer",
          "type": "address"
        },
        {
          "indexed": false,
          "internalType": "address",
          "name": "seller",
          "type": "address"
        },
        {
          "indexed": false,
          "internalType": "uint256",
          "name": "price",
          "type": "uint256"
        }
      ],
      "name": "MarketSale",
      "type": "event"
    },
    {
      "anonymous": false,
      "inputs": [
        {
          "indexed": false,
          "internalType": "uint256",
          "name": "_tokenId",
          "type": "uint256"
        }
      ],
      "name": "MetadataUpdate",
      "type": "event"
    },
    {
      "anonymous": false,
      "inputs": [
        {
          "indexed": true,
          "internalType": "uint256",
          "name": "tokenId",
          "type": "uint256"
        },
        {
          "indexed": false,
          "internalType": "address",
          "name": "seller",
          "type": "address"
        },
        {
          "indexed": false,
          "internalType": "address",
          "name": "owner",
          "type": "address"
        },
        {
          "indexed": false,
          "internalType": "uint256",
          "name": "price",
          "type": "uint256"
        }
      ],
      "name": "TokenResold",
      "type": "event"
    },
    {
      "anonymous": false,
      "inputs": [
        {
          "indexed": true,
          "internalType": "address",
          "name": "from",
          "type": "address"
        },
        {
          "indexed": true,
          "internalType": "address",
          "name": "to",
          "type": "address"
        },
        {
          "indexed": true,
          "internalType": "uint256",
          "name": "tokenId",
          "type": "uint256"
        }
      ],
      "name": "Transfer",
      "type": "event"
    },
    {
      "inputs": [],
      "name": "Rowner",
      "outputs": [
        {
          "internalType": "address payable",
          "name": "",
          "type": "address"
        }
      ],
      "stateMutability": "view",
      "type": "function"
    },
    {
      "inputs": [
        {
          "internalType": "address",
          "name": "to",
          "type": "address"
        },
        {
          "internalType": "uint256",
          "name": "tokenId",
          "type": "uint256"
        }
      ],
      "name": "approve",
      "outputs": [],
      "stateMutability": "nonpayable",
      "type": "function"
    },
    {
      "inputs": [
        {
          "internalType": "address",
          "name": "owner",
          "type": "address"
        }
      ],
      "name": "balanceOf",
      "outputs": [
        {
          "internalType": "uint256",
          "name": "",
          "type": "uint256"
        }
      ],
      "stateMutability": "view",
      "type": "function"
    },
    {
      "inputs": [
        {
          "internalType": "string",
          "name": "name",
          "type": "string"
        },
        {
          "internalType": "string",
          "name": "message",
          "type": "string"
        }
      ],
      "name": "buyChai",
      "outputs": [],
      "stateMutability": "payable",
      "type": "function"
    },
    {
      "inputs": [
        {
          "internalType": "uint256",
          "name": "tokenId",
          "type": "uint256"
        }
      ],
      "name": "createMarketSale",
      "outputs": [],
      "stateMutability": "payable",
      "type": "function"
    },
    {
      "inputs": [
        {
          "internalType": "string",
          "name": "tokenURI",
          "type": "string"
        },
        {
          "internalType": "uint256",
          "name": "price",
          "type": "uint256"
        }
      ],
      "name": "createToken",
      "outputs": [
        {
          "internalType": "uint256",
          "name": "",
          "type": "uint256"
        }
      ],
      "stateMutability": "payable",
      "type": "function"
    },
    {
      "inputs": [
        {
          "internalType": "address",
          "name": "creator",
          "type": "address"
        }
      ],
      "name": "fetchItemsListed",
      "outputs": [
        {
          "components": [
            {
              "internalType": "uint256",
              "name": "tokenId",
              "type": "uint256"
            },
            {
              "internalType": "address payable",
              "name": "seller",
              "type": "address"
            },
            {
              "internalType": "address payable",
              "name": "owner",
              "type": "address"
            },
            {
              "internalType": "uint256",
              "name": "price",
              "type": "uint256"
            },
            {
              "internalType": "bool",
              "name": "sold",
              "type": "bool"
            }
          ],
          "internalType": "struct NFTMarketplace.MarketItem[]",
          "name": "",
          "type": "tuple[]"
        }
      ],
      "stateMutability": "view",
      "type": "function"
    },
    {
      "inputs": [],
      "name": "fetchMarketItems",
      "outputs": [
        {
          "components": [
            {
              "internalType": "uint256",
              "name": "tokenId",
              "type": "uint256"
            },
            {
              "internalType": "address payable",
              "name": "seller",
              "type": "address"
            },
            {
              "internalType": "address payable",
              "name": "owner",
              "type": "address"
            },
            {
              "internalType": "uint256",
              "name": "price",
              "type": "uint256"
            },
            {
              "internalType": "bool",
              "name": "sold",
              "type": "bool"
            }
          ],
          "internalType": "struct NFTMarketplace.MarketItem[]",
          "name": "",
          "type": "tuple[]"
        }
      ],
      "stateMutability": "view",
      "type": "function"
    },
    {
      "inputs": [
        {
          "internalType": "address",
          "name": "creator",
          "type": "address"
        }
      ],
      "name": "fetchMyNFTs",
      "outputs": [
        {
          "components": [
            {
              "internalType": "uint256",
              "name": "tokenId",
              "type": "uint256"
            },
            {
              "internalType": "address payable",
              "name": "seller",
              "type": "address"
            },
            {
              "internalType": "address payable",
              "name": "owner",
              "type": "address"
            },
            {
              "internalType": "uint256",
              "name": "price",
              "type": "uint256"
            },
            {
              "internalType": "bool",
              "name": "sold",
              "type": "bool"
            }
          ],
          "internalType": "struct NFTMarketplace.MarketItem[]",
          "name": "",
          "type": "tuple[]"
        }
      ],
      "stateMutability": "view",
      "type": "function"
    },
    {
      "inputs": [
        {
          "internalType": "uint256",
          "name": "tokenId",
          "type": "uint256"
        }
      ],
      "name": "getApproved",
      "outputs": [
        {
          "internalType": "address",
          "name": "",
          "type": "address"
        }
      ],
      "stateMutability": "view",
      "type": "function"
    },
    {
      "inputs": [],
      "name": "getBalance",
      "outputs": [
        {
          "internalType": "uint256",
          "name": "",
          "type": "uint256"
        }
      ],
      "stateMutability": "view",
      "type": "function"
    },
    {
      "inputs": [],
      "name": "getListingPrice",
      "outputs": [
        {
          "internalType": "uint256",
          "name": "",
          "type": "uint256"
        }
      ],
      "stateMutability": "view",
      "type": "function"
    },
    {
      "inputs": [],
      "name": "getMemos",
      "outputs": [
        {
          "components": [
            {
              "internalType": "string",
              "name": "name",
              "type": "string"
            },
            {
              "internalType": "string",
              "name": "message",
              "type": "string"
            },
            {
              "internalType": "uint256",
              "name": "timestamp",
              "type": "uint256"
            },
            {
              "internalType": "address",
              "name": "from",
              "type": "address"
            }
          ],
          "internalType": "struct NFTMarketplace.Memo[]",
          "name": "",
          "type": "tuple[]"
        }
      ],
      "stateMutability": "view",
      "type": "function"
    },
    {
      "inputs": [
        {
          "internalType": "address",
          "name": "owner",
          "type": "address"
        },
        {
          "internalType": "address",
          "name": "operator",
          "type": "address"
        }
      ],
      "name": "isApprovedForAll",
      "outputs": [
        {
          "internalType": "bool",
          "name": "",
          "type": "bool"
        }
      ],
      "stateMutability": "view",
      "type": "function"
    },
    {
      "inputs": [],
      "name": "name",
      "outputs": [
        {
          "internalType": "string",
          "name": "",
          "type": "string"
        }
      ],
      "stateMutability": "view",
      "type": "function"
    },
    {
      "inputs": [
        {
          "internalType": "uint256",
          "name": "tokenId",
          "type": "uint256"
        }
      ],
      "name": "ownerOf",
      "outputs": [
        {
          "internalType": "address",
          "name": "",
          "type": "address"
        }
      ],
      "stateMutability": "view",
      "type": "function"
    },
    {
      "inputs": [
        {
          "internalType": "uint256",
          "name": "tokenId",
          "type": "uint256"
        },
        {
          "internalType": "uint256",
          "name": "price",
          "type": "uint256"
        }
      ],
      "name": "resellToken",
      "outputs": [],
      "stateMutability": "payable",
      "type": "function"
    },
    {
      "inputs": [
        {
          "internalType": "address",
          "name": "from",
          "type": "address"
        },
        {
          "internalType": "address",
          "name": "to",
          "type": "address"
        },
        {
          "internalType": "uint256",
          "name": "tokenId",
          "type": "uint256"
        }
      ],
      "name": "safeTransferFrom",
      "outputs": [],
      "stateMutability": "nonpayable",
      "type": "function"
    },
    {
      "inputs": [
        {
          "internalType": "address",
          "name": "from",
          "type": "address"
        },
        {
          "internalType": "address",
          "name": "to",
          "type": "address"
        },
        {
          "internalType": "uint256",
          "name": "tokenId",
          "type": "uint256"
        },
        {
          "internalType": "bytes",
          "name": "data",
          "type": "bytes"
        }
      ],
      "name": "safeTransferFrom",
      "outputs": [],
      "stateMutability": "nonpayable",
      "type": "function"
    },
    {
      "inputs": [
        {
          "internalType": "address",
          "name": "operator",
          "type": "address"
        },
        {
          "internalType": "bool",
          "name": "approved",
          "type": "bool"
        }
      ],
      "name": "setApprovalForAll",
      "outputs": [],
      "stateMutability": "nonpayable",
      "type": "function"
    },
    {
      "inputs": [
        {
          "internalType": "bytes4",
          "name": "interfaceId",
          "type": "bytes4"
        }
      ],
      "name": "supportsInterface",
      "outputs": [
        {
          "internalType": "bool",
          "name": "",
          "type": "bool"
        }
      ],
      "stateMutability": "view",
      "type": "function"
    },
    {
      "inputs": [],
      "name": "symbol",
      "outputs": [
        {
          "internalType": "string",
          "name": "",
          "type": "string"
        }
      ],
      "stateMutability": "view",
      "type": "function"
    },
    {
      "inputs": [
        {
          "internalType": "uint256",
          "name": "tokenId",
          "type": "uint256"
        }
      ],
      "name": "tokenURI",
      "outputs": [
        {
          "internalType": "string",
          "name": "",
          "type": "string"
        }
      ],
      "stateMutability": "view",
      "type": "function"
    },
    {
      "inputs": [
        {
          "internalType": "address",
          "name": "from",
          "type": "address"
        },
        {
          "internalType": "address",
          "name": "to",
          "type": "address"
        },
        {
          "internalType": "uint256",
          "name": "tokenId",
          "type": "uint256"
        }
      ],
      "name": "transferFrom",
      "outputs": [],
      "stateMutability": "nonpayable",
      "type": "function"
    },
    {
      "inputs": [
        {
          "internalType": "uint256",
          "name": "_listingPrice",
          "type": "uint256"
        }
      ],
      "name": "updateListingPrice",
      "outputs": [],
      "stateMutability": "payable",
      "type": "function"
    }
  ],
  "bytecode": "0x60806040526658d15e17628000600a553480156200001c57600080fd5b506040518060400160405280601081526020017f4d657461766572736520546f6b656e73000000000000000000000000000000008152506040518060400160405280600481526020017f4d455454000000000000000000000000000000000000000000000000000000008152508160009080519060200190620000a192919062000145565b508060019080519060200190620000ba92919062000145565b50505033600e60006101000a81548173ffffffffffffffffffffffffffffffffffffffff021916908373ffffffffffffffffffffffffffffffffffffffff16021790555033600b60006101000a81548173ffffffffffffffffffffffffffffffffffffffff021916908373ffffffffffffffffffffffffffffffffffffffff1602179055506200025a565b828054620001539062000224565b90600052602060002090601f016020900481019282620001775760008555620001c3565b82601f106200019257805160ff1916838001178555620001c3565b82800160010185558215620001c3579182015b82811115620001c2578251825591602001919060010190620001a5565b5b509050620001d29190620001d6565b5090565b5b80821115620001f1576000816000905550600101620001d7565b5090565b7f4e487b7100000000000000000000000000000000000000000000000000000000600052602260045260246000fd5b600060028204905060018216806200023d57607f821691505b60208210811415620002545762000253620001f5565b5b50919050565b61493e806200026a6000396000f3fe6080604052600436106101665760003560e01c806370a08231116100d1578063a22cb4651161008a578063be9af53611610064578063be9af5361461053b578063c87b56dd14610557578063e219fc7514610594578063e985e9c5146105b057610166565b8063a22cb465146104cd578063ae677aa3146104f6578063b88d4fde1461051257610166565b806370a08231146103a257806372b3b620146103df578063865c51721461040f5780638a410b1a1461043a57806395d89b4114610477578063a0d18045146104a257610166565b806312065fe01161012357806312065fe0146102a157806312e85585146102cc57806323b872dd146102f757806342842e0e146103205780636352211e146103495780636a13d8591461038657610166565b806301ffc9a71461016b57806306fdde03146101a8578063081812fc146101d3578063095ea7b3146102105780630f08efe01461023957806310afee1e14610264575b600080fd5b34801561017757600080fd5b50610192600480360381019061018d9190613141565b6105ed565b60405161019f9190613189565b60405180910390f35b3480156101b457600080fd5b506101bd61064e565b6040516101ca919061323d565b60405180910390f35b3480156101df57600080fd5b506101fa60048036038101906101f59190613295565b6106e0565b6040516102079190613303565b60405180910390f35b34801561021c57600080fd5b506102376004803603810190610232919061334a565b610726565b005b34801561024557600080fd5b5061024e61083e565b60405161025b91906134e0565b60405180910390f35b34801561027057600080fd5b5061028b60048036038101906102869190613502565b610aa7565b60405161029891906134e0565b60405180910390f35b3480156102ad57600080fd5b506102b6610d97565b6040516102c3919061353e565b60405180910390f35b3480156102d857600080fd5b506102e1610dd8565b6040516102ee919061353e565b60405180910390f35b34801561030357600080fd5b5061031e60048036038101906103199190613559565b610de2565b005b34801561032c57600080fd5b5061034760048036038101906103429190613559565b610e42565b005b34801561035557600080fd5b50610370600480360381019061036b9190613295565b610e62565b60405161037d9190613303565b60405180910390f35b6103a0600480360381019061039b91906136e1565b610ee9565b005b3480156103ae57600080fd5b506103c960048036038101906103c49190613502565b61101f565b6040516103d6919061353e565b60405180910390f35b6103f960048036038101906103f49190613759565b6110d7565b604051610406919061353e565b60405180910390f35b34801561041b57600080fd5b50610424611119565b604051610431919061393a565b60405180910390f35b34801561044657600080fd5b50610461600480360381019061045c9190613502565b6112fc565b60405161046e91906134e0565b60405180910390f35b34801561048357600080fd5b5061048c6115ec565b604051610499919061323d565b60405180910390f35b3480156104ae57600080fd5b506104b761167e565b6040516104c4919061396b565b60405180910390f35b3480156104d957600080fd5b506104f460048036038101906104ef91906139b2565b6116a4565b005b610510600480360381019061050b9190613295565b6116ba565b005b34801561051e57600080fd5b5061053960048036038101906105349190613a93565b61178d565b005b61055560048036038101906105509190613295565b6117ef565b005b34801561056357600080fd5b5061057e60048036038101906105799190613295565b611a22565b60405161058b919061323d565b60405180910390f35b6105ae60048036038101906105a99190613b16565b611b35565b005b3480156105bc57600080fd5b506105d760048036038101906105d29190613b56565b611d66565b6040516105e49190613189565b60405180910390f35b6000634906490660e01b7bffffffffffffffffffffffffffffffffffffffffffffffffffffffff1916827bffffffffffffffffffffffffffffffffffffffffffffffffffffffff19161480610647575061064682611dfa565b5b9050919050565b60606000805461065d90613bc5565b80601f016020809104026020016040519081016040528092919081815260200182805461068990613bc5565b80156106d65780601f106106ab576101008083540402835291602001916106d6565b820191906000526020600020905b8154815290600101906020018083116106b957829003601f168201915b5050505050905090565b60006106eb82611edc565b6004600083815260200190815260200160002060009054906101000a900473ffffffffffffffffffffffffffffffffffffffff169050919050565b600061073182610e62565b90508073ffffffffffffffffffffffffffffffffffffffff168373ffffffffffffffffffffffffffffffffffffffff1614156107a2576040517f08c379a000000000000000000000000000000000000000000000000000000000815260040161079990613c69565b60405180910390fd5b8073ffffffffffffffffffffffffffffffffffffffff166107c1611f27565b73ffffffffffffffffffffffffffffffffffffffff1614806107f057506107ef816107ea611f27565b611d66565b5b61082f576040517f08c379a000000000000000000000000000000000000000000000000000000000815260040161082690613cfb565b60405180910390fd5b6108398383611f2f565b505050565b6060600061084c6007611fe8565b9050600061085a6008611fe8565b6108646007611fe8565b61086e9190613d4a565b90506000808267ffffffffffffffff81111561088d5761088c6135b6565b5b6040519080825280602002602001820160405280156108c657816020015b6108b3612fd5565b8152602001906001900390816108ab5790505b50905060005b84811015610a9c573073ffffffffffffffffffffffffffffffffffffffff16600c60006001846108fc9190613d7e565b815260200190815260200160002060020160009054906101000a900473ffffffffffffffffffffffffffffffffffffffff1673ffffffffffffffffffffffffffffffffffffffff161415610a895760006001826109599190613d7e565b90506000600c60008381526020019081526020016000209050806040518060a0016040529081600082015481526020016001820160009054906101000a900473ffffffffffffffffffffffffffffffffffffffff1673ffffffffffffffffffffffffffffffffffffffff1673ffffffffffffffffffffffffffffffffffffffff1681526020016002820160009054906101000a900473ffffffffffffffffffffffffffffffffffffffff1673ffffffffffffffffffffffffffffffffffffffff1673ffffffffffffffffffffffffffffffffffffffff168152602001600382015481526020016004820160009054906101000a900460ff161515151581525050848681518110610a6c57610a6b613dd4565b5b6020026020010181905250600185610a849190613d7e565b945050505b8080610a9490613e03565b9150506108cc565b508094505050505090565b60606000610ab56007611fe8565b905060008060005b83811015610b5e578573ffffffffffffffffffffffffffffffffffffffff16600c6000600184610aed9190613d7e565b815260200190815260200160002060020160009054906101000a900473ffffffffffffffffffffffffffffffffffffffff1673ffffffffffffffffffffffffffffffffffffffff161415610b4b57600183610b489190613d7e565b92505b8080610b5690613e03565b915050610abd565b5060008267ffffffffffffffff811115610b7b57610b7a6135b6565b5b604051908082528060200260200182016040528015610bb457816020015b610ba1612fd5565b815260200190600190039081610b995790505b50905060005b84811015610d8a578673ffffffffffffffffffffffffffffffffffffffff16600c6000600184610bea9190613d7e565b815260200190815260200160002060020160009054906101000a900473ffffffffffffffffffffffffffffffffffffffff1673ffffffffffffffffffffffffffffffffffffffff161415610d77576000600182610c479190613d7e565b90506000600c60008381526020019081526020016000209050806040518060a0016040529081600082015481526020016001820160009054906101000a900473ffffffffffffffffffffffffffffffffffffffff1673ffffffffffffffffffffffffffffffffffffffff1673ffffffffffffffffffffffffffffffffffffffff1681526020016002820160009054906101000a900473ffffffffffffffffffffffffffffffffffffffff1673ffffffffffffffffffffffffffffffffffffffff1673ffffffffffffffffffffffffffffffffffffffff168152602001600382015481526020016004820160009054906101000a900460ff161515151581525050848681518110610d5a57610d59613dd4565b5b6020026020010181905250600185610d729190613d7e565b945050505b8080610d8290613e03565b915050610bba565b5080945050505050919050565b6000600e60009054906101000a900473ffffffffffffffffffffffffffffffffffffffff1673ffffffffffffffffffffffffffffffffffffffff1631905090565b6000600a54905090565b610df3610ded611f27565b82611ff6565b610e32576040517f08c379a0000000000000000000000000000000000000000000000000000000008152600401610e2990613ebe565b60405180910390fd5b610e3d83838361208b565b505050565b610e5d8383836040518060200160405280600081525061178d565b505050565b600080610e6e83612385565b9050600073ffffffffffffffffffffffffffffffffffffffff168173ffffffffffffffffffffffffffffffffffffffff161415610ee0576040517f08c379a0000000000000000000000000000000000000000000000000000000008152600401610ed790613f2a565b60405180910390fd5b80915050919050565b60003411610f2c576040517f08c379a0000000000000000000000000000000000000000000000000000000008152600401610f2390613fbc565b60405180910390fd5b600d60405180608001604052808481526020018381526020014281526020013373ffffffffffffffffffffffffffffffffffffffff1681525090806001815401808255809150506001900390600052602060002090600402016000909190919091506000820151816000019080519060200190610faa929190613032565b506020820151816001019080519060200190610fc7929190613032565b506040820151816002015560608201518160030160006101000a81548173ffffffffffffffffffffffffffffffffffffffff021916908373ffffffffffffffffffffffffffffffffffffffff16021790555050505050565b60008073ffffffffffffffffffffffffffffffffffffffff168273ffffffffffffffffffffffffffffffffffffffff161415611090576040517f08c379a00000000000000000000000000000000000000000000000000000000081526004016110879061404e565b60405180910390fd5b600360008373ffffffffffffffffffffffffffffffffffffffff1673ffffffffffffffffffffffffffffffffffffffff168152602001908152602001600020549050919050565b60006110e360076123c2565b60006110ef6007611fe8565b90506110fb33826123d8565b61110581856125f6565b61110f81846126a1565b8091505092915050565b6060600d805480602002602001604051908101604052809291908181526020016000905b828210156112f3578382906000526020600020906004020160405180608001604052908160008201805461117090613bc5565b80601f016020809104026020016040519081016040528092919081815260200182805461119c90613bc5565b80156111e95780601f106111be576101008083540402835291602001916111e9565b820191906000526020600020905b8154815290600101906020018083116111cc57829003601f168201915b5050505050815260200160018201805461120290613bc5565b80601f016020809104026020016040519081016040528092919081815260200182805461122e90613bc5565b801561127b5780601f106112505761010080835404028352916020019161127b565b820191906000526020600020905b81548152906001019060200180831161125e57829003601f168201915b50505050508152602001600282015481526020016003820160009054906101000a900473ffffffffffffffffffffffffffffffffffffffff1673ffffffffffffffffffffffffffffffffffffffff1673ffffffffffffffffffffffffffffffffffffffff16815250508152602001906001019061113d565b50505050905090565b6060600061130a6007611fe8565b905060008060005b838110156113b3578573ffffffffffffffffffffffffffffffffffffffff16600c60006001846113429190613d7e565b815260200190815260200160002060010160009054906101000a900473ffffffffffffffffffffffffffffffffffffffff1673ffffffffffffffffffffffffffffffffffffffff1614156113a05760018361139d9190613d7e565b92505b80806113ab90613e03565b915050611312565b5060008267ffffffffffffffff8111156113d0576113cf6135b6565b5b60405190808252806020026020018201604052801561140957816020015b6113f6612fd5565b8152602001906001900390816113ee5790505b50905060005b848110156115df578673ffffffffffffffffffffffffffffffffffffffff16600c600060018461143f9190613d7e565b815260200190815260200160002060010160009054906101000a900473ffffffffffffffffffffffffffffffffffffffff1673ffffffffffffffffffffffffffffffffffffffff1614156115cc57600060018261149c9190613d7e565b90506000600c60008381526020019081526020016000209050806040518060a0016040529081600082015481526020016001820160009054906101000a900473ffffffffffffffffffffffffffffffffffffffff1673ffffffffffffffffffffffffffffffffffffffff1673ffffffffffffffffffffffffffffffffffffffff1681526020016002820160009054906101000a900473ffffffffffffffffffffffffffffffffffffffff1673ffffffffffffffffffffffffffffffffffffffff1673ffffffffffffffffffffffffffffffffffffffff168152602001600382015481526020016004820160009054906101000a900460ff1615151515815250508486815181106115af576115ae613dd4565b5b60200260200101819052506001856115c79190613d7e565b945050505b80806115d790613e03565b91505061140f565b5080945050505050919050565b6060600180546115fb90613bc5565b80601f016020809104026020016040519081016040528092919081815260200182805461162790613bc5565b80156116745780601f1061164957610100808354040283529160200191611674565b820191906000526020600020905b81548152906001019060200180831161165757829003601f168201915b5050505050905090565b600e60009054906101000a900473ffffffffffffffffffffffffffffffffffffffff1681565b6116b66116af611f27565b83836128a4565b5050565b3373ffffffffffffffffffffffffffffffffffffffff16600b60009054906101000a900473ffffffffffffffffffffffffffffffffffffffff1673ffffffffffffffffffffffffffffffffffffffff161461174a576040517f08c379a0000000000000000000000000000000000000000000000000000000008152600401611741906140e0565b60405180910390fd5b80600a819055507f661c8d2e494b21e778d6b19ffb42ca00ee63062be7f9eb28af0850e01a9cf214600a54604051611782919061353e565b60405180910390a150565b61179e611798611f27565b83611ff6565b6117dd576040517f08c379a00000000000000000000000000000000000000000000000000000000081526004016117d490613ebe565b60405180910390fd5b6117e984848484612a11565b50505050565b6000600c60008381526020019081526020016000206003015490506000600c600084815260200190815260200160002060010160009054906101000a900473ffffffffffffffffffffffffffffffffffffffff169050813414611887576040517f08c379a000000000000000000000000000000000000000000000000000000000815260040161187e90614172565b60405180910390fd5b33600c600085815260200190815260200160002060020160006101000a81548173ffffffffffffffffffffffffffffffffffffffff021916908373ffffffffffffffffffffffffffffffffffffffff1602179055506001600c600085815260200190815260200160002060040160006101000a81548160ff0219169083151502179055506000600c600085815260200190815260200160002060010160006101000a81548173ffffffffffffffffffffffffffffffffffffffff021916908373ffffffffffffffffffffffffffffffffffffffff16021790555061196b60086123c2565b61197630338561208b565b600b60009054906101000a900473ffffffffffffffffffffffffffffffffffffffff1673ffffffffffffffffffffffffffffffffffffffff166108fc600a549081150290604051600060405180830381858888f193505050501580156119e0573d6000803e3d6000fd5b50827f92702ca16506c19534081722898e3d74348202feb9cec071d74fc908c67dd03e338385604051611a1593929190614192565b60405180910390a2505050565b6060611a2d82611edc565b6000600660008481526020019081526020016000208054611a4d90613bc5565b80601f0160208091040260200160405190810160405280929190818152602001828054611a7990613bc5565b8015611ac65780601f10611a9b57610100808354040283529160200191611ac6565b820191906000526020600020905b815481529060010190602001808311611aa957829003601f168201915b505050505090506000611ad7612a6d565b9050600081511415611aed578192505050611b30565b600082511115611b22578082604051602001611b0a929190614205565b60405160208183030381529060405292505050611b30565b611b2b84612a84565b925050505b919050565b3373ffffffffffffffffffffffffffffffffffffffff16600c600084815260200190815260200160002060020160009054906101000a900473ffffffffffffffffffffffffffffffffffffffff1673ffffffffffffffffffffffffffffffffffffffff1614611bd9576040517f08c379a0000000000000000000000000000000000000000000000000000000008152600401611bd09061429b565b60405180910390fd5b600a543414611c1d576040517f08c379a0000000000000000000000000000000000000000000000000000000008152600401611c149061432d565b60405180910390fd5b6000600c600084815260200190815260200160002060040160006101000a81548160ff02191690831515021790555080600c60008481526020019081526020016000206003018190555033600c600084815260200190815260200160002060010160006101000a81548173ffffffffffffffffffffffffffffffffffffffff021916908373ffffffffffffffffffffffffffffffffffffffff16021790555030600c600084815260200190815260200160002060020160006101000a81548173ffffffffffffffffffffffffffffffffffffffff021916908373ffffffffffffffffffffffffffffffffffffffff160217905550611d1b6008612aec565b611d2633308461208b565b817fc6b0d13d6c1af02bfe5761531c93b25f6078fbae63c013f2afb85a0a42ffc1f3333084604051611d5a93929190614192565b60405180910390a25050565b6000600560008473ffffffffffffffffffffffffffffffffffffffff1673ffffffffffffffffffffffffffffffffffffffff16815260200190815260200160002060008373ffffffffffffffffffffffffffffffffffffffff1673ffffffffffffffffffffffffffffffffffffffff16815260200190815260200160002060009054906101000a900460ff16905092915050565b60007f80ac58cd000000000000000000000000000000000000000000000000000000007bffffffffffffffffffffffffffffffffffffffffffffffffffffffff1916827bffffffffffffffffffffffffffffffffffffffffffffffffffffffff19161480611ec557507f5b5e139f000000000000000000000000000000000000000000000000000000007bffffffffffffffffffffffffffffffffffffffffffffffffffffffff1916827bffffffffffffffffffffffffffffffffffffffffffffffffffffffff1916145b80611ed55750611ed482612b48565b5b9050919050565b611ee581612bb2565b611f24576040517f08c379a0000000000000000000000000000000000000000000000000000000008152600401611f1b90613f2a565b60405180910390fd5b50565b600033905090565b816004600083815260200190815260200160002060006101000a81548173ffffffffffffffffffffffffffffffffffffffff021916908373ffffffffffffffffffffffffffffffffffffffff160217905550808273ffffffffffffffffffffffffffffffffffffffff16611fa283610e62565b73ffffffffffffffffffffffffffffffffffffffff167f8c5be1e5ebec7d5bd14f71427d1e84f3dd0314c0f7b2291e5b200ac8c7c3b92560405160405180910390a45050565b600081600001549050919050565b60008061200283610e62565b90508073ffffffffffffffffffffffffffffffffffffffff168473ffffffffffffffffffffffffffffffffffffffff16148061204457506120438185611d66565b5b8061208257508373ffffffffffffffffffffffffffffffffffffffff1661206a846106e0565b73ffffffffffffffffffffffffffffffffffffffff16145b91505092915050565b8273ffffffffffffffffffffffffffffffffffffffff166120ab82610e62565b73ffffffffffffffffffffffffffffffffffffffff1614612101576040517f08c379a00000000000000000000000000000000000000000000000000000000081526004016120f8906143bf565b60405180910390fd5b600073ffffffffffffffffffffffffffffffffffffffff168273ffffffffffffffffffffffffffffffffffffffff161415612171576040517f08c379a000000000000000000000000000000000000000000000000000000000815260040161216890614451565b60405180910390fd5b61217e8383836001612bf3565b8273ffffffffffffffffffffffffffffffffffffffff1661219e82610e62565b73ffffffffffffffffffffffffffffffffffffffff16146121f4576040517f08c379a00000000000000000000000000000000000000000000000000000000081526004016121eb906143bf565b60405180910390fd5b6004600082815260200190815260200160002060006101000a81549073ffffffffffffffffffffffffffffffffffffffff02191690556001600360008573ffffffffffffffffffffffffffffffffffffffff1673ffffffffffffffffffffffffffffffffffffffff168152602001908152602001600020600082825403925050819055506001600360008473ffffffffffffffffffffffffffffffffffffffff1673ffffffffffffffffffffffffffffffffffffffff16815260200190815260200160002060008282540192505081905550816002600083815260200190815260200160002060006101000a81548173ffffffffffffffffffffffffffffffffffffffff021916908373ffffffffffffffffffffffffffffffffffffffff160217905550808273ffffffffffffffffffffffffffffffffffffffff168473ffffffffffffffffffffffffffffffffffffffff167fddf252ad1be2c89b69c2b068fc378daa952ba7f163c4a11628f55a4df523b3ef60405160405180910390a46123808383836001612bf9565b505050565b60006002600083815260200190815260200160002060009054906101000a900473ffffffffffffffffffffffffffffffffffffffff169050919050565b6001816000016000828254019250508190555050565b600073ffffffffffffffffffffffffffffffffffffffff168273ffffffffffffffffffffffffffffffffffffffff161415612448576040517f08c379a000000000000000000000000000000000000000000000000000000000815260040161243f906144bd565b60405180910390fd5b61245181612bb2565b15612491576040517f08c379a000000000000000000000000000000000000000000000000000000000815260040161248890614529565b60405180910390fd5b61249f600083836001612bf3565b6124a881612bb2565b156124e8576040517f08c379a00000000000000000000000000000000000000000000000000000000081526004016124df90614529565b60405180910390fd5b6001600360008473ffffffffffffffffffffffffffffffffffffffff1673ffffffffffffffffffffffffffffffffffffffff16815260200190815260200160002060008282540192505081905550816002600083815260200190815260200160002060006101000a81548173ffffffffffffffffffffffffffffffffffffffff021916908373ffffffffffffffffffffffffffffffffffffffff160217905550808273ffffffffffffffffffffffffffffffffffffffff16600073ffffffffffffffffffffffffffffffffffffffff167fddf252ad1be2c89b69c2b068fc378daa952ba7f163c4a11628f55a4df523b3ef60405160405180910390a46125f2600083836001612bf9565b5050565b6125ff82612bb2565b61263e576040517f08c379a0000000000000000000000000000000000000000000000000000000008152600401612635906145bb565b60405180910390fd5b80600660008481526020019081526020016000209080519060200190612665929190613032565b507ff8e1a15aba9398e019f0b49df1a4fde98ee17ae345cb5f6b5e2c27f5033e8ce782604051612695919061353e565b60405180910390a15050565b600081116126e4576040517f08c379a00000000000000000000000000000000000000000000000000000000081526004016126db90614627565b60405180910390fd5b600a543414612728576040517f08c379a000000000000000000000000000000000000000000000000000000000815260040161271f9061432d565b60405180910390fd5b6040518060a001604052808381526020013373ffffffffffffffffffffffffffffffffffffffff1681526020013073ffffffffffffffffffffffffffffffffffffffff16815260200182815260200160001515815250600c60008481526020019081526020016000206000820151816000015560208201518160010160006101000a81548173ffffffffffffffffffffffffffffffffffffffff021916908373ffffffffffffffffffffffffffffffffffffffff16021790555060408201518160020160006101000a81548173ffffffffffffffffffffffffffffffffffffffff021916908373ffffffffffffffffffffffffffffffffffffffff1602179055506060820151816003015560808201518160040160006101000a81548160ff02191690831515021790555090505061286133308461208b565b817fb640004f1d14576d0c209e240cad0410e0d8c0c33a09375861fbadae2588a98d33308460006040516128989493929190614647565b60405180910390a25050565b8173ffffffffffffffffffffffffffffffffffffffff168373ffffffffffffffffffffffffffffffffffffffff161415612913576040517f08c379a000000000000000000000000000000000000000000000000000000000815260040161290a906146d8565b60405180910390fd5b80600560008573ffffffffffffffffffffffffffffffffffffffff1673ffffffffffffffffffffffffffffffffffffffff16815260200190815260200160002060008473ffffffffffffffffffffffffffffffffffffffff1673ffffffffffffffffffffffffffffffffffffffff16815260200190815260200160002060006101000a81548160ff0219169083151502179055508173ffffffffffffffffffffffffffffffffffffffff168373ffffffffffffffffffffffffffffffffffffffff167f17307eab39ab6107e8899845ad3d59bd9653f200f220920489ca2b5937696c3183604051612a049190613189565b60405180910390a3505050565b612a1c84848461208b565b612a2884848484612bff565b612a67576040517f08c379a0000000000000000000000000000000000000000000000000000000008152600401612a5e9061476a565b60405180910390fd5b50505050565b606060405180602001604052806000815250905090565b6060612a8f82611edc565b6000612a99612a6d565b90506000815111612ab95760405180602001604052806000815250612ae4565b80612ac384612d87565b604051602001612ad4929190614205565b6040516020818303038152906040525b915050919050565b60008160000154905060008111612b38576040517f08c379a0000000000000000000000000000000000000000000000000000000008152600401612b2f906147d6565b60405180910390fd5b6001810382600001819055505050565b60007f01ffc9a7000000000000000000000000000000000000000000000000000000007bffffffffffffffffffffffffffffffffffffffffffffffffffffffff1916827bffffffffffffffffffffffffffffffffffffffffffffffffffffffff1916149050919050565b60008073ffffffffffffffffffffffffffffffffffffffff16612bd483612385565b73ffffffffffffffffffffffffffffffffffffffff1614159050919050565b50505050565b50505050565b6000612c208473ffffffffffffffffffffffffffffffffffffffff16612e5f565b15612d7a578373ffffffffffffffffffffffffffffffffffffffff1663150b7a02612c49611f27565b8786866040518563ffffffff1660e01b8152600401612c6b949392919061484b565b6020604051808303816000875af1925050508015612ca757506040513d601f19601f82011682018060405250810190612ca491906148ac565b60015b612d2a573d8060008114612cd7576040519150601f19603f3d011682016040523d82523d6000602084013e612cdc565b606091505b50600081511415612d22576040517f08c379a0000000000000000000000000000000000000000000000000000000008152600401612d199061476a565b60405180910390fd5b805181602001fd5b63150b7a0260e01b7bffffffffffffffffffffffffffffffffffffffffffffffffffffffff1916817bffffffffffffffffffffffffffffffffffffffffffffffffffffffff191614915050612d7f565b600190505b949350505050565b606060006001612d9684612e82565b01905060008167ffffffffffffffff811115612db557612db46135b6565b5b6040519080825280601f01601f191660200182016040528015612de75781602001600182028036833780820191505090505b509050600082602001820190505b600115612e54578080600190039150507f3031323334353637383961626364656600000000000000000000000000000000600a86061a8153600a8581612e3e57612e3d6148d9565b5b0494506000851415612e4f57612e54565b612df5565b819350505050919050565b6000808273ffffffffffffffffffffffffffffffffffffffff163b119050919050565b600080600090507a184f03e93ff9f4daa797ed6e38ed64bf6a1f0100000000000000008310612ee0577a184f03e93ff9f4daa797ed6e38ed64bf6a1f0100000000000000008381612ed657612ed56148d9565b5b0492506040810190505b6d04ee2d6d415b85acef81000000008310612f1d576d04ee2d6d415b85acef81000000008381612f1357612f126148d9565b5b0492506020810190505b662386f26fc100008310612f4c57662386f26fc100008381612f4257612f416148d9565b5b0492506010810190505b6305f5e1008310612f75576305f5e1008381612f6b57612f6a6148d9565b5b0492506008810190505b6127108310612f9a576127108381612f9057612f8f6148d9565b5b0492506004810190505b60648310612fbd5760648381612fb357612fb26148d9565b5b0492506002810190505b600a8310612fcc576001810190505b80915050919050565b6040518060a0016040528060008152602001600073ffffffffffffffffffffffffffffffffffffffff168152602001600073ffffffffffffffffffffffffffffffffffffffff168152602001600081526020016000151581525090565b82805461303e90613bc5565b90600052602060002090601f01602090048101928261306057600085556130a7565b82601f1061307957805160ff19168380011785556130a7565b828001600101855582156130a7579182015b828111156130a657825182559160200191906001019061308b565b5b5090506130b491906130b8565b5090565b5b808211156130d15760008160009055506001016130b9565b5090565b6000604051905090565b600080fd5b600080fd5b60007fffffffff0000000000000000000000000000000000000000000000000000000082169050919050565b61311e816130e9565b811461312957600080fd5b50565b60008135905061313b81613115565b92915050565b600060208284031215613157576131566130df565b5b60006131658482850161312c565b91505092915050565b60008115159050919050565b6131838161316e565b82525050565b600060208201905061319e600083018461317a565b92915050565b600081519050919050565b600082825260208201905092915050565b60005b838110156131de5780820151818401526020810190506131c3565b838111156131ed576000848401525b50505050565b6000601f19601f8301169050919050565b600061320f826131a4565b61321981856131af565b93506132298185602086016131c0565b613232816131f3565b840191505092915050565b600060208201905081810360008301526132578184613204565b905092915050565b6000819050919050565b6132728161325f565b811461327d57600080fd5b50565b60008135905061328f81613269565b92915050565b6000602082840312156132ab576132aa6130df565b5b60006132b984828501613280565b91505092915050565b600073ffffffffffffffffffffffffffffffffffffffff82169050919050565b60006132ed826132c2565b9050919050565b6132fd816132e2565b82525050565b600060208201905061331860008301846132f4565b92915050565b613327816132e2565b811461333257600080fd5b50565b6000813590506133448161331e565b92915050565b60008060408385031215613361576133606130df565b5b600061336f85828601613335565b925050602061338085828601613280565b9150509250929050565b600081519050919050565b600082825260208201905092915050565b6000819050602082019050919050565b6133bf8161325f565b82525050565b60006133d0826132c2565b9050919050565b6133e0816133c5565b82525050565b6133ef8161316e565b82525050565b60a08201600082015161340b60008501826133b6565b50602082015161341e60208501826133d7565b50604082015161343160408501826133d7565b50606082015161344460608501826133b6565b50608082015161345760808501826133e6565b50505050565b600061346983836133f5565b60a08301905092915050565b6000602082019050919050565b600061348d8261338a565b6134978185613395565b93506134a2836133a6565b8060005b838110156134d35781516134ba888261345d565b97506134c583613475565b9250506001810190506134a6565b5085935050505092915050565b600060208201905081810360008301526134fa8184613482565b905092915050565b600060208284031215613518576135176130df565b5b600061352684828501613335565b91505092915050565b6135388161325f565b82525050565b6000602082019050613553600083018461352f565b92915050565b600080600060608486031215613572576135716130df565b5b600061358086828701613335565b935050602061359186828701613335565b92505060406135a286828701613280565b9150509250925092565b600080fd5b600080fd5b7f4e487b7100000000000000000000000000000000000000000000000000000000600052604160045260246000fd5b6135ee826131f3565b810181811067ffffffffffffffff8211171561360d5761360c6135b6565b5b80604052505050565b60006136206130d5565b905061362c82826135e5565b919050565b600067ffffffffffffffff82111561364c5761364b6135b6565b5b613655826131f3565b9050602081019050919050565b82818337600083830152505050565b600061368461367f84613631565b613616565b9050828152602081018484840111156136a05761369f6135b1565b5b6136ab848285613662565b509392505050565b600082601f8301126136c8576136c76135ac565b5b81356136d8848260208601613671565b91505092915050565b600080604083850312156136f8576136f76130df565b5b600083013567ffffffffffffffff811115613716576137156130e4565b5b613722858286016136b3565b925050602083013567ffffffffffffffff811115613743576137426130e4565b5b61374f858286016136b3565b9150509250929050565b600080604083850312156137705761376f6130df565b5b600083013567ffffffffffffffff81111561378e5761378d6130e4565b5b61379a858286016136b3565b92505060206137ab85828601613280565b9150509250929050565b600081519050919050565b600082825260208201905092915050565b6000819050602082019050919050565b600082825260208201905092915050565b60006137fd826131a4565b61380781856137e1565b93506138178185602086016131c0565b613820816131f3565b840191505092915050565b613834816132e2565b82525050565b6000608083016000830151848203600086015261385782826137f2565b9150506020830151848203602086015261387182826137f2565b915050604083015161388660408601826133b6565b506060830151613899606086018261382b565b508091505092915050565b60006138b0838361383a565b905092915050565b6000602082019050919050565b60006138d0826137b5565b6138da81856137c0565b9350836020820285016138ec856137d1565b8060005b85811015613928578484038952815161390985826138a4565b9450613914836138b8565b925060208a019950506001810190506138f0565b50829750879550505050505092915050565b6000602082019050818103600083015261395481846138c5565b905092915050565b613965816133c5565b82525050565b6000602082019050613980600083018461395c565b92915050565b61398f8161316e565b811461399a57600080fd5b50565b6000813590506139ac81613986565b92915050565b600080604083850312156139c9576139c86130df565b5b60006139d785828601613335565b92505060206139e88582860161399d565b9150509250929050565b600067ffffffffffffffff821115613a0d57613a0c6135b6565b5b613a16826131f3565b9050602081019050919050565b6000613a36613a31846139f2565b613616565b905082815260208101848484011115613a5257613a516135b1565b5b613a5d848285613662565b509392505050565b600082601f830112613a7a57613a796135ac565b5b8135613a8a848260208601613a23565b91505092915050565b60008060008060808587031215613aad57613aac6130df565b5b6000613abb87828801613335565b9450506020613acc87828801613335565b9350506040613add87828801613280565b925050606085013567ffffffffffffffff811115613afe57613afd6130e4565b5b613b0a87828801613a65565b91505092959194509250565b60008060408385031215613b2d57613b2c6130df565b5b6000613b3b85828601613280565b9250506020613b4c85828601613280565b9150509250929050565b60008060408385031215613b6d57613b6c6130df565b5b6000613b7b85828601613335565b9250506020613b8c85828601613335565b9150509250929050565b7f4e487b7100000000000000000000000000000000000000000000000000000000600052602260045260246000fd5b60006002820490506001821680613bdd57607f821691505b60208210811415613bf157613bf0613b96565b5b50919050565b7f4552433732313a20617070726f76616c20746f2063757272656e74206f776e6560008201527f7200000000000000000000000000000000000000000000000000000000000000602082015250565b6000613c536021836131af565b9150613c5e82613bf7565b604082019050919050565b60006020820190508181036000830152613c8281613c46565b9050919050565b7f4552433732313a20617070726f76652063616c6c6572206973206e6f7420746f60008201527f6b656e206f776e6572206f7220617070726f76656420666f7220616c6c000000602082015250565b6000613ce5603d836131af565b9150613cf082613c89565b604082019050919050565b60006020820190508181036000830152613d1481613cd8565b9050919050565b7f4e487b7100000000000000000000000000000000000000000000000000000000600052601160045260246000fd5b6000613d558261325f565b9150613d608361325f565b925082821015613d7357613d72613d1b565b5b828203905092915050565b6000613d898261325f565b9150613d948361325f565b9250827fffffffffffffffffffffffffffffffffffffffffffffffffffffffffffffffff03821115613dc957613dc8613d1b565b5b828201905092915050565b7f4e487b7100000000000000000000000000000000000000000000000000000000600052603260045260246000fd5b6000613e0e8261325f565b91507fffffffffffffffffffffffffffffffffffffffffffffffffffffffffffffffff821415613e4157613e40613d1b565b5b600182019050919050565b7f4552433732313a2063616c6c6572206973206e6f7420746f6b656e206f776e6560008201527f72206f7220617070726f76656400000000000000000000000000000000000000602082015250565b6000613ea8602d836131af565b9150613eb382613e4c565b604082019050919050565b60006020820190508181036000830152613ed781613e9b565b9050919050565b7f4552433732313a20696e76616c696420746f6b656e2049440000000000000000600082015250565b6000613f146018836131af565b9150613f1f82613ede565b602082019050919050565b60006020820190508181036000830152613f4381613f07565b9050919050565b7f506c656173652070617920736f6d657468696e6720677265617465722074686160008201527f6e20300000000000000000000000000000000000000000000000000000000000602082015250565b6000613fa66023836131af565b9150613fb182613f4a565b604082019050919050565b60006020820190508181036000830152613fd581613f99565b9050919050565b7f4552433732313a2061646472657373207a65726f206973206e6f74206120766160008201527f6c6964206f776e65720000000000000000000000000000000000000000000000602082015250565b60006140386029836131af565b915061404382613fdc565b604082019050919050565b600060208201905081810360008301526140678161402b565b9050919050565b7f4f6e6c79206d61726b6574706c616365206f776e65722063616e20757064617460008201527f65206c697374696e672070726963652e00000000000000000000000000000000602082015250565b60006140ca6030836131af565b91506140d58261406e565b604082019050919050565b600060208201905081810360008301526140f9816140bd565b9050919050565b7f506c65617365207375626d6974207468652061736b696e67207072696365206960008201527f6e206f7264657220746f20636f6d706c65746520746865207075726368617365602082015250565b600061415c6040836131af565b915061416782614100565b604082019050919050565b6000602082019050818103600083015261418b8161414f565b9050919050565b60006060820190506141a760008301866132f4565b6141b460208301856132f4565b6141c1604083018461352f565b949350505050565b600081905092915050565b60006141df826131a4565b6141e981856141c9565b93506141f98185602086016131c0565b80840191505092915050565b600061421182856141d4565b915061421d82846141d4565b91508190509392505050565b7f4f6e6c79206974656d206f776e65722063616e20706572666f726d207468697360008201527f206f7065726174696f6e00000000000000000000000000000000000000000000602082015250565b6000614285602a836131af565b915061429082614229565b604082019050919050565b600060208201905081810360008301526142b481614278565b9050919050565b7f5072696365206d75737420626520657175616c20746f206c697374696e67207060008201527f7269636500000000000000000000000000000000000000000000000000000000602082015250565b60006143176024836131af565b9150614322826142bb565b604082019050919050565b600060208201905081810360008301526143468161430a565b9050919050565b7f4552433732313a207472616e736665722066726f6d20696e636f72726563742060008201527f6f776e6572000000000000000000000000000000000000000000000000000000602082015250565b60006143a96025836131af565b91506143b48261434d565b604082019050919050565b600060208201905081810360008301526143d88161439c565b9050919050565b7f4552433732313a207472616e7366657220746f20746865207a65726f2061646460008201527f7265737300000000000000000000000000000000000000000000000000000000602082015250565b600061443b6024836131af565b9150614446826143df565b604082019050919050565b6000602082019050818103600083015261446a8161442e565b9050919050565b7f4552433732313a206d696e7420746f20746865207a65726f2061646472657373600082015250565b60006144a76020836131af565b91506144b282614471565b602082019050919050565b600060208201905081810360008301526144d68161449a565b9050919050565b7f4552433732313a20746f6b656e20616c7265616479206d696e74656400000000600082015250565b6000614513601c836131af565b915061451e826144dd565b602082019050919050565b6000602082019050818103600083015261454281614506565b9050919050565b7f45524337323155524953746f726167653a2055524920736574206f66206e6f6e60008201527f6578697374656e7420746f6b656e000000000000000000000000000000000000602082015250565b60006145a5602e836131af565b91506145b082614549565b604082019050919050565b600060208201905081810360008301526145d481614598565b9050919050565b7f5072696365206d757374206265206174206c6561737420312077656900000000600082015250565b6000614611601c836131af565b915061461c826145db565b602082019050919050565b6000602082019050818103600083015261464081614604565b9050919050565b600060808201905061465c60008301876132f4565b61466960208301866132f4565b614676604083018561352f565b614683606083018461317a565b95945050505050565b7f4552433732313a20617070726f766520746f2063616c6c657200000000000000600082015250565b60006146c26019836131af565b91506146cd8261468c565b602082019050919050565b600060208201905081810360008301526146f1816146b5565b9050919050565b7f4552433732313a207472616e7366657220746f206e6f6e20455243373231526560008201527f63656976657220696d706c656d656e7465720000000000000000000000000000602082015250565b60006147546032836131af565b915061475f826146f8565b604082019050919050565b6000602082019050818103600083015261478381614747565b9050919050565b7f436f756e7465723a2064656372656d656e74206f766572666c6f770000000000600082015250565b60006147c0601b836131af565b91506147cb8261478a565b602082019050919050565b600060208201905081810360008301526147ef816147b3565b9050919050565b600081519050919050565b600082825260208201905092915050565b600061481d826147f6565b6148278185614801565b93506148378185602086016131c0565b614840816131f3565b840191505092915050565b600060808201905061486060008301876132f4565b61486d60208301866132f4565b61487a604083018561352f565b818103606083015261488c8184614812565b905095945050505050565b6000815190506148a681613115565b92915050565b6000602082840312156148c2576148c16130df565b5b60006148d084828501614897565b91505092915050565b7f4e487b7100000000000000000000000000000000000000000000000000000000600052601260045260246000fdfea26469706673582212208dd59c48c7a10b9fb2e765aca2d37f6a7abed873e14010cb11b24217bce9f87964736f6c634300080a0033",
  "linkReferences": {},
  "deployedLinkReferences": {}
}