{
  "_format": "hh-sol-artifact-1",
  "contractName": "NFTMarketplace",
  "sourceName": "contracts/NFTMarketplace.sol",
  "abi": [
    {
      "inputs": [],
      "stateMutability": "nonpayable",
      "type": "constructor"
    },
    {
      "anonymous": false,
      "inputs": [
        {
          "indexed": true,
          "internalType": "address",
          "name": "owner",
          "type": "address"
        },
        {
          "indexed": true,
          "internalType": "address",
          "name": "approved",
          "type": "address"
        },
        {
          "indexed": true,
          "internalType": "uint256",
          "name": "tokenId",
          "type": "uint256"
        }
      ],
      "name": "Approval",
      "type": "event"
    },
    {
      "anonymous": false,
      "inputs": [
        {
          "indexed": true,
          "internalType": "address",
          "name": "owner",
          "type": "address"
        },
        {
          "indexed": true,
          "internalType": "address",
          "name": "operator",
          "type": "address"
        },
        {
          "indexed": false,
          "internalType": "bool",
          "name": "approved",
          "type": "bool"
        }
      ],
      "name": "ApprovalForAll",
      "type": "event"
    },
    {
      "anonymous": false,
      "inputs": [
        {
          "indexed": false,
          "internalType": "uint256",
          "name": "_fromTokenId",
          "type": "uint256"
        },
        {
          "indexed": false,
          "internalType": "uint256",
          "name": "_toTokenId",
          "type": "uint256"
        }
      ],
      "name": "BatchMetadataUpdate",
      "type": "event"
    },
    {
      "anonymous": false,
      "inputs": [
        {
          "indexed": false,
          "internalType": "string",
          "name": "name",
          "type": "string"
        },
        {
          "indexed": false,
          "internalType": "string",
          "name": "message",
          "type": "string"
        },
        {
          "indexed": false,
          "internalType": "uint256",
          "name": "timestamp",
          "type": "uint256"
        },
        {
          "indexed": false,
          "internalType": "address",
          "name": "buyer",
          "type": "address"
        },
        {
          "indexed": false,
          "internalType": "uint256",
          "name": "amount",
          "type": "uint256"
        }
      ],
      "name": "ChaiBought",
      "type": "event"
    },
    {
      "anonymous": false,
      "inputs": [
        {
          "indexed": true,
          "internalType": "address",
          "name": "from",
          "type": "address"
        },
        {
          "indexed": false,
          "internalType": "string",
          "name": "name",
          "type": "string"
        },
        {
          "indexed": false,
          "internalType": "string",
          "name": "message",
          "type": "string"
        },
        {
          "indexed": false,
          "internalType": "uint256",
          "name": "timestamp",
          "type": "uint256"
        },
        {
          "indexed": false,
          "internalType": "uint256",
          "name": "amount",
          "type": "uint256"
        }
      ],
      "name": "Donation",
      "type": "event"
    },
    {
      "anonymous": false,
      "inputs": [
        {
          "indexed": false,
          "internalType": "uint256",
          "name": "newPrice",
          "type": "uint256"
        }
      ],
      "name": "ListingPriceUpdated",
      "type": "event"
    },
    {
      "anonymous": false,
      "inputs": [
        {
          "indexed": true,
          "internalType": "uint256",
          "name": "tokenId",
          "type": "uint256"
        },
        {
          "indexed": false,
          "internalType": "address",
          "name": "seller",
          "type": "address"
        },
        {
          "indexed": false,
          "internalType": "address",
          "name": "owner",
          "type": "address"
        },
        {
          "indexed": false,
          "internalType": "uint256",
          "name": "price",
          "type": "uint256"
        },
        {
          "indexed": false,
          "internalType": "bool",
          "name": "sold",
          "type": "bool"
        }
      ],
      "name": "MarketItemCreated",
      "type": "event"
    },
    {
      "anonymous": false,
      "inputs": [
        {
          "indexed": true,
          "internalType": "uint256",
          "name": "tokenId",
          "type": "uint256"
        },
        {
          "indexed": false,
          "internalType": "address",
          "name": "buyer",
          "type": "address"
        },
        {
          "indexed": false,
          "internalType": "address",
          "name": "seller",
          "type": "address"
        },
        {
          "indexed": false,
          "internalType": "uint256",
          "name": "price",
          "type": "uint256"
        }
      ],
      "name": "MarketSale",
      "type": "event"
    },
    {
      "anonymous": false,
      "inputs": [
        {
          "indexed": false,
          "internalType": "uint256",
          "name": "_tokenId",
          "type": "uint256"
        }
      ],
      "name": "MetadataUpdate",
      "type": "event"
    },
    {
      "anonymous": false,
      "inputs": [
        {
          "indexed": true,
          "internalType": "uint256",
          "name": "tokenId",
          "type": "uint256"
        },
        {
          "indexed": false,
          "internalType": "address",
          "name": "seller",
          "type": "address"
        },
        {
          "indexed": false,
          "internalType": "address",
          "name": "owner",
          "type": "address"
        },
        {
          "indexed": false,
          "internalType": "uint256",
          "name": "price",
          "type": "uint256"
        }
      ],
      "name": "TokenResold",
      "type": "event"
    },
    {
      "anonymous": false,
      "inputs": [
        {
          "indexed": true,
          "internalType": "address",
          "name": "from",
          "type": "address"
        },
        {
          "indexed": true,
          "internalType": "address",
          "name": "to",
          "type": "address"
        },
        {
          "indexed": true,
          "internalType": "uint256",
          "name": "tokenId",
          "type": "uint256"
        }
      ],
      "name": "Transfer",
      "type": "event"
    },
    {
      "inputs": [],
      "name": "Rowner",
      "outputs": [
        {
          "internalType": "address payable",
          "name": "",
          "type": "address"
        }
      ],
      "stateMutability": "view",
      "type": "function"
    },
    {
      "inputs": [
        {
          "internalType": "address",
          "name": "to",
          "type": "address"
        },
        {
          "internalType": "uint256",
          "name": "tokenId",
          "type": "uint256"
        }
      ],
      "name": "approve",
      "outputs": [],
      "stateMutability": "nonpayable",
      "type": "function"
    },
    {
      "inputs": [
        {
          "internalType": "address",
          "name": "owner",
          "type": "address"
        }
      ],
      "name": "balanceOf",
      "outputs": [
        {
          "internalType": "uint256",
          "name": "",
          "type": "uint256"
        }
      ],
      "stateMutability": "view",
      "type": "function"
    },
    {
      "inputs": [
        {
          "internalType": "string",
          "name": "name",
          "type": "string"
        },
        {
          "internalType": "string",
          "name": "message",
          "type": "string"
        }
      ],
      "name": "buyChai",
      "outputs": [],
      "stateMutability": "payable",
      "type": "function"
    },
    {
      "inputs": [
        {
          "internalType": "uint256",
          "name": "tokenId",
          "type": "uint256"
        }
      ],
      "name": "createMarketSale",
      "outputs": [],
      "stateMutability": "payable",
      "type": "function"
    },
    {
      "inputs": [
        {
          "internalType": "string",
          "name": "tokenURI",
          "type": "string"
        },
        {
          "internalType": "uint256",
          "name": "price",
          "type": "uint256"
        }
      ],
      "name": "createToken",
      "outputs": [
        {
          "internalType": "uint256",
          "name": "",
          "type": "uint256"
        }
      ],
      "stateMutability": "payable",
      "type": "function"
    },
    {
      "inputs": [],
      "name": "fetchItemsListed",
      "outputs": [
        {
          "components": [
            {
              "internalType": "uint256",
              "name": "tokenId",
              "type": "uint256"
            },
            {
              "internalType": "address payable",
              "name": "seller",
              "type": "address"
            },
            {
              "internalType": "address payable",
              "name": "owner",
              "type": "address"
            },
            {
              "internalType": "uint256",
              "name": "price",
              "type": "uint256"
            },
            {
              "internalType": "bool",
              "name": "sold",
              "type": "bool"
            }
          ],
          "internalType": "struct NFTMarketplace.MarketItem[]",
          "name": "",
          "type": "tuple[]"
        }
      ],
      "stateMutability": "view",
      "type": "function"
    },
    {
      "inputs": [],
      "name": "fetchMarketItems",
      "outputs": [
        {
          "components": [
            {
              "internalType": "uint256",
              "name": "tokenId",
              "type": "uint256"
            },
            {
              "internalType": "address payable",
              "name": "seller",
              "type": "address"
            },
            {
              "internalType": "address payable",
              "name": "owner",
              "type": "address"
            },
            {
              "internalType": "uint256",
              "name": "price",
              "type": "uint256"
            },
            {
              "internalType": "bool",
              "name": "sold",
              "type": "bool"
            }
          ],
          "internalType": "struct NFTMarketplace.MarketItem[]",
          "name": "",
          "type": "tuple[]"
        }
      ],
      "stateMutability": "view",
      "type": "function"
    },
    {
      "inputs": [],
      "name": "fetchMyNFTs",
      "outputs": [
        {
          "components": [
            {
              "internalType": "uint256",
              "name": "tokenId",
              "type": "uint256"
            },
            {
              "internalType": "address payable",
              "name": "seller",
              "type": "address"
            },
            {
              "internalType": "address payable",
              "name": "owner",
              "type": "address"
            },
            {
              "internalType": "uint256",
              "name": "price",
              "type": "uint256"
            },
            {
              "internalType": "bool",
              "name": "sold",
              "type": "bool"
            }
          ],
          "internalType": "struct NFTMarketplace.MarketItem[]",
          "name": "",
          "type": "tuple[]"
        }
      ],
      "stateMutability": "view",
      "type": "function"
    },
    {
      "inputs": [
        {
          "internalType": "uint256",
          "name": "tokenId",
          "type": "uint256"
        }
      ],
      "name": "getApproved",
      "outputs": [
        {
          "internalType": "address",
          "name": "",
          "type": "address"
        }
      ],
      "stateMutability": "view",
      "type": "function"
    },
    {
      "inputs": [],
      "name": "getBalance",
      "outputs": [
        {
          "internalType": "uint256",
          "name": "",
          "type": "uint256"
        }
      ],
      "stateMutability": "view",
      "type": "function"
    },
    {
      "inputs": [],
      "name": "getListingPrice",
      "outputs": [
        {
          "internalType": "uint256",
          "name": "",
          "type": "uint256"
        }
      ],
      "stateMutability": "view",
      "type": "function"
    },
    {
      "inputs": [],
      "name": "getMemos",
      "outputs": [
        {
          "components": [
            {
              "internalType": "string",
              "name": "name",
              "type": "string"
            },
            {
              "internalType": "string",
              "name": "message",
              "type": "string"
            },
            {
              "internalType": "uint256",
              "name": "timestamp",
              "type": "uint256"
            },
            {
              "internalType": "address",
              "name": "from",
              "type": "address"
            }
          ],
          "internalType": "struct NFTMarketplace.Memo[]",
          "name": "",
          "type": "tuple[]"
        }
      ],
      "stateMutability": "view",
      "type": "function"
    },
    {
      "inputs": [
        {
          "internalType": "address",
          "name": "owner",
          "type": "address"
        },
        {
          "internalType": "address",
          "name": "operator",
          "type": "address"
        }
      ],
      "name": "isApprovedForAll",
      "outputs": [
        {
          "internalType": "bool",
          "name": "",
          "type": "bool"
        }
      ],
      "stateMutability": "view",
      "type": "function"
    },
    {
      "inputs": [],
      "name": "name",
      "outputs": [
        {
          "internalType": "string",
          "name": "",
          "type": "string"
        }
      ],
      "stateMutability": "view",
      "type": "function"
    },
    {
      "inputs": [
        {
          "internalType": "uint256",
          "name": "tokenId",
          "type": "uint256"
        }
      ],
      "name": "ownerOf",
      "outputs": [
        {
          "internalType": "address",
          "name": "",
          "type": "address"
        }
      ],
      "stateMutability": "view",
      "type": "function"
    },
    {
      "inputs": [
        {
          "internalType": "uint256",
          "name": "tokenId",
          "type": "uint256"
        },
        {
          "internalType": "uint256",
          "name": "price",
          "type": "uint256"
        }
      ],
      "name": "resellToken",
      "outputs": [],
      "stateMutability": "payable",
      "type": "function"
    },
    {
      "inputs": [
        {
          "internalType": "address",
          "name": "from",
          "type": "address"
        },
        {
          "internalType": "address",
          "name": "to",
          "type": "address"
        },
        {
          "internalType": "uint256",
          "name": "tokenId",
          "type": "uint256"
        }
      ],
      "name": "safeTransferFrom",
      "outputs": [],
      "stateMutability": "nonpayable",
      "type": "function"
    },
    {
      "inputs": [
        {
          "internalType": "address",
          "name": "from",
          "type": "address"
        },
        {
          "internalType": "address",
          "name": "to",
          "type": "address"
        },
        {
          "internalType": "uint256",
          "name": "tokenId",
          "type": "uint256"
        },
        {
          "internalType": "bytes",
          "name": "data",
          "type": "bytes"
        }
      ],
      "name": "safeTransferFrom",
      "outputs": [],
      "stateMutability": "nonpayable",
      "type": "function"
    },
    {
      "inputs": [
        {
          "internalType": "address",
          "name": "operator",
          "type": "address"
        },
        {
          "internalType": "bool",
          "name": "approved",
          "type": "bool"
        }
      ],
      "name": "setApprovalForAll",
      "outputs": [],
      "stateMutability": "nonpayable",
      "type": "function"
    },
    {
      "inputs": [
        {
          "internalType": "bytes4",
          "name": "interfaceId",
          "type": "bytes4"
        }
      ],
      "name": "supportsInterface",
      "outputs": [
        {
          "internalType": "bool",
          "name": "",
          "type": "bool"
        }
      ],
      "stateMutability": "view",
      "type": "function"
    },
    {
      "inputs": [],
      "name": "symbol",
      "outputs": [
        {
          "internalType": "string",
          "name": "",
          "type": "string"
        }
      ],
      "stateMutability": "view",
      "type": "function"
    },
    {
      "inputs": [
        {
          "internalType": "uint256",
          "name": "tokenId",
          "type": "uint256"
        }
      ],
      "name": "tokenURI",
      "outputs": [
        {
          "internalType": "string",
          "name": "",
          "type": "string"
        }
      ],
      "stateMutability": "view",
      "type": "function"
    },
    {
      "inputs": [
        {
          "internalType": "address",
          "name": "from",
          "type": "address"
        },
        {
          "internalType": "address",
          "name": "to",
          "type": "address"
        },
        {
          "internalType": "uint256",
          "name": "tokenId",
          "type": "uint256"
        }
      ],
      "name": "transferFrom",
      "outputs": [],
      "stateMutability": "nonpayable",
      "type": "function"
    },
    {
      "inputs": [
        {
          "internalType": "uint256",
          "name": "_listingPrice",
          "type": "uint256"
        }
      ],
      "name": "updateListingPrice",
      "outputs": [],
      "stateMutability": "payable",
      "type": "function"
    }
  ],
  "bytecode": "0x60806040526658d15e17628000600a553480156200001c57600080fd5b506040518060400160405280601081526020017f4d657461766572736520546f6b656e73000000000000000000000000000000008152506040518060400160405280600481526020017f4d455454000000000000000000000000000000000000000000000000000000008152508160009080519060200190620000a192919062000145565b508060019080519060200190620000ba92919062000145565b50505033600e60006101000a81548173ffffffffffffffffffffffffffffffffffffffff021916908373ffffffffffffffffffffffffffffffffffffffff16021790555033600b60006101000a81548173ffffffffffffffffffffffffffffffffffffffff021916908373ffffffffffffffffffffffffffffffffffffffff1602179055506200025a565b828054620001539062000224565b90600052602060002090601f016020900481019282620001775760008555620001c3565b82601f106200019257805160ff1916838001178555620001c3565b82800160010185558215620001c3579182015b82811115620001c2578251825591602001919060010190620001a5565b5b509050620001d29190620001d6565b5090565b5b80821115620001f1576000816000905550600101620001d7565b5090565b7f4e487b7100000000000000000000000000000000000000000000000000000000600052602260045260246000fd5b600060028204905060018216806200023d57607f821691505b60208210811415620002545762000253620001f5565b5b50919050565b6149c6806200026a6000396000f3fe6080604052600436106101665760003560e01c80636a13d859116100d1578063a22cb4651161008a578063be9af53611610064578063be9af53614610517578063c87b56dd14610533578063e219fc7514610570578063e985e9c51461058c57610166565b8063a22cb465146104a9578063ae677aa3146104d2578063b88d4fde146104ee57610166565b80636a13d8591461039f57806370a08231146103bb57806372b3b620146103f8578063865c51721461042857806395d89b4114610453578063a0d180451461047e57610166565b806312e855851161012357806312e855851461028f578063202e3740146102ba57806323b872dd146102e557806342842e0e1461030e57806345f8fa80146103375780636352211e1461036257610166565b806301ffc9a71461016b57806306fdde03146101a8578063081812fc146101d3578063095ea7b3146102105780630f08efe01461023957806312065fe014610264575b600080fd5b34801561017757600080fd5b50610192600480360381019061018d91906131c9565b6105c9565b60405161019f9190613211565b60405180910390f35b3480156101b457600080fd5b506101bd61062a565b6040516101ca91906132c5565b60405180910390f35b3480156101df57600080fd5b506101fa60048036038101906101f5919061331d565b6106bc565b604051610207919061338b565b60405180910390f35b34801561021c57600080fd5b50610237600480360381019061023291906133d2565b610702565b005b34801561024557600080fd5b5061024e61081a565b60405161025b9190613568565b60405180910390f35b34801561027057600080fd5b50610279610a83565b6040516102869190613599565b60405180910390f35b34801561029b57600080fd5b506102a4610ac4565b6040516102b19190613599565b60405180910390f35b3480156102c657600080fd5b506102cf610ace565b6040516102dc9190613568565b60405180910390f35b3480156102f157600080fd5b5061030c600480360381019061030791906135b4565b610dbc565b005b34801561031a57600080fd5b50610335600480360381019061033091906135b4565b610e1c565b005b34801561034357600080fd5b5061034c610e3c565b6040516103599190613568565b60405180910390f35b34801561036e57600080fd5b506103896004803603810190610384919061331d565b61112a565b604051610396919061338b565b60405180910390f35b6103b960048036038101906103b4919061373c565b6111b1565b005b3480156103c757600080fd5b506103e260048036038101906103dd91906137b4565b611350565b6040516103ef9190613599565b60405180910390f35b610412600480360381019061040d91906137e1565b611408565b60405161041f9190613599565b60405180910390f35b34801561043457600080fd5b5061043d61144a565b60405161044a91906139c2565b60405180910390f35b34801561045f57600080fd5b5061046861162d565b60405161047591906132c5565b60405180910390f35b34801561048a57600080fd5b506104936116bf565b6040516104a091906139f3565b60405180910390f35b3480156104b557600080fd5b506104d060048036038101906104cb9190613a3a565b6116e5565b005b6104ec60048036038101906104e7919061331d565b6116fb565b005b3480156104fa57600080fd5b5061051560048036038101906105109190613b1b565b6117ce565b005b610531600480360381019061052c919061331d565b611830565b005b34801561053f57600080fd5b5061055a6004803603810190610555919061331d565b611aaa565b60405161056791906132c5565b60405180910390f35b61058a60048036038101906105859190613b9e565b611bbd565b005b34801561059857600080fd5b506105b360048036038101906105ae9190613bde565b611dee565b6040516105c09190613211565b60405180910390f35b6000634906490660e01b7bffffffffffffffffffffffffffffffffffffffffffffffffffffffff1916827bffffffffffffffffffffffffffffffffffffffffffffffffffffffff19161480610623575061062282611e82565b5b9050919050565b60606000805461063990613c4d565b80601f016020809104026020016040519081016040528092919081815260200182805461066590613c4d565b80156106b25780601f10610687576101008083540402835291602001916106b2565b820191906000526020600020905b81548152906001019060200180831161069557829003601f168201915b5050505050905090565b60006106c782611f64565b6004600083815260200190815260200160002060009054906101000a900473ffffffffffffffffffffffffffffffffffffffff169050919050565b600061070d8261112a565b90508073ffffffffffffffffffffffffffffffffffffffff168373ffffffffffffffffffffffffffffffffffffffff16141561077e576040517f08c379a000000000000000000000000000000000000000000000000000000000815260040161077590613cf1565b60405180910390fd5b8073ffffffffffffffffffffffffffffffffffffffff1661079d611faf565b73ffffffffffffffffffffffffffffffffffffffff1614806107cc57506107cb816107c6611faf565b611dee565b5b61080b576040517f08c379a000000000000000000000000000000000000000000000000000000000815260040161080290613d83565b60405180910390fd5b6108158383611fb7565b505050565b606060006108286007612070565b905060006108366008612070565b6108406007612070565b61084a9190613dd2565b90506000808267ffffffffffffffff81111561086957610868613611565b5b6040519080825280602002602001820160405280156108a257816020015b61088f61305d565b8152602001906001900390816108875790505b50905060005b84811015610a78573073ffffffffffffffffffffffffffffffffffffffff16600c60006001846108d89190613e06565b815260200190815260200160002060020160009054906101000a900473ffffffffffffffffffffffffffffffffffffffff1673ffffffffffffffffffffffffffffffffffffffff161415610a655760006001826109359190613e06565b90506000600c60008381526020019081526020016000209050806040518060a0016040529081600082015481526020016001820160009054906101000a900473ffffffffffffffffffffffffffffffffffffffff1673ffffffffffffffffffffffffffffffffffffffff1673ffffffffffffffffffffffffffffffffffffffff1681526020016002820160009054906101000a900473ffffffffffffffffffffffffffffffffffffffff1673ffffffffffffffffffffffffffffffffffffffff1673ffffffffffffffffffffffffffffffffffffffff168152602001600382015481526020016004820160009054906101000a900460ff161515151581525050848681518110610a4857610a47613e5c565b5b6020026020010181905250600185610a609190613e06565b945050505b8080610a7090613e8b565b9150506108a8565b508094505050505090565b6000600e60009054906101000a900473ffffffffffffffffffffffffffffffffffffffff1673ffffffffffffffffffffffffffffffffffffffff1631905090565b6000600a54905090565b60606000610adc6007612070565b905060008060005b83811015610b85573373ffffffffffffffffffffffffffffffffffffffff16600c6000600184610b149190613e06565b815260200190815260200160002060020160009054906101000a900473ffffffffffffffffffffffffffffffffffffffff1673ffffffffffffffffffffffffffffffffffffffff161415610b7257600183610b6f9190613e06565b92505b8080610b7d90613e8b565b915050610ae4565b5060008267ffffffffffffffff811115610ba257610ba1613611565b5b604051908082528060200260200182016040528015610bdb57816020015b610bc861305d565b815260200190600190039081610bc05790505b50905060005b84811015610db1573373ffffffffffffffffffffffffffffffffffffffff16600c6000600184610c119190613e06565b815260200190815260200160002060020160009054906101000a900473ffffffffffffffffffffffffffffffffffffffff1673ffffffffffffffffffffffffffffffffffffffff161415610d9e576000600182610c6e9190613e06565b90506000600c60008381526020019081526020016000209050806040518060a0016040529081600082015481526020016001820160009054906101000a900473ffffffffffffffffffffffffffffffffffffffff1673ffffffffffffffffffffffffffffffffffffffff1673ffffffffffffffffffffffffffffffffffffffff1681526020016002820160009054906101000a900473ffffffffffffffffffffffffffffffffffffffff1673ffffffffffffffffffffffffffffffffffffffff1673ffffffffffffffffffffffffffffffffffffffff168152602001600382015481526020016004820160009054906101000a900460ff161515151581525050848681518110610d8157610d80613e5c565b5b6020026020010181905250600185610d999190613e06565b945050505b8080610da990613e8b565b915050610be1565b508094505050505090565b610dcd610dc7611faf565b8261207e565b610e0c576040517f08c379a0000000000000000000000000000000000000000000000000000000008152600401610e0390613f46565b60405180910390fd5b610e17838383612113565b505050565b610e37838383604051806020016040528060008152506117ce565b505050565b60606000610e4a6007612070565b905060008060005b83811015610ef3573373ffffffffffffffffffffffffffffffffffffffff16600c6000600184610e829190613e06565b815260200190815260200160002060010160009054906101000a900473ffffffffffffffffffffffffffffffffffffffff1673ffffffffffffffffffffffffffffffffffffffff161415610ee057600183610edd9190613e06565b92505b8080610eeb90613e8b565b915050610e52565b5060008267ffffffffffffffff811115610f1057610f0f613611565b5b604051908082528060200260200182016040528015610f4957816020015b610f3661305d565b815260200190600190039081610f2e5790505b50905060005b8481101561111f573373ffffffffffffffffffffffffffffffffffffffff16600c6000600184610f7f9190613e06565b815260200190815260200160002060010160009054906101000a900473ffffffffffffffffffffffffffffffffffffffff1673ffffffffffffffffffffffffffffffffffffffff16141561110c576000600182610fdc9190613e06565b90506000600c60008381526020019081526020016000209050806040518060a0016040529081600082015481526020016001820160009054906101000a900473ffffffffffffffffffffffffffffffffffffffff1673ffffffffffffffffffffffffffffffffffffffff1673ffffffffffffffffffffffffffffffffffffffff1681526020016002820160009054906101000a900473ffffffffffffffffffffffffffffffffffffffff1673ffffffffffffffffffffffffffffffffffffffff1673ffffffffffffffffffffffffffffffffffffffff168152602001600382015481526020016004820160009054906101000a900460ff1615151515815250508486815181106110ef576110ee613e5c565b5b60200260200101819052506001856111079190613e06565b945050505b808061111790613e8b565b915050610f4f565b508094505050505090565b6000806111368361240d565b9050600073ffffffffffffffffffffffffffffffffffffffff168173ffffffffffffffffffffffffffffffffffffffff1614156111a8576040517f08c379a000000000000000000000000000000000000000000000000000000000815260040161119f90613fb2565b60405180910390fd5b80915050919050565b600034116111f4576040517f08c379a00000000000000000000000000000000000000000000000000000000081526004016111eb90614044565b60405180910390fd5b600e60009054906101000a900473ffffffffffffffffffffffffffffffffffffffff1673ffffffffffffffffffffffffffffffffffffffff166108fc349081150290604051600060405180830381858888f1935050505015801561125c573d6000803e3d6000fd5b50600d60405180608001604052808481526020018381526020014281526020013373ffffffffffffffffffffffffffffffffffffffff16815250908060018154018082558091505060019003906000526020600020906004020160009091909190915060008201518160000190805190602001906112db9291906130ba565b5060208201518160010190805190602001906112f89291906130ba565b506040820151816002015560608201518160030160006101000a81548173ffffffffffffffffffffffffffffffffffffffff021916908373ffffffffffffffffffffffffffffffffffffffff16021790555050505050565b60008073ffffffffffffffffffffffffffffffffffffffff168273ffffffffffffffffffffffffffffffffffffffff1614156113c1576040517f08c379a00000000000000000000000000000000000000000000000000000000081526004016113b8906140d6565b60405180910390fd5b600360008373ffffffffffffffffffffffffffffffffffffffff1673ffffffffffffffffffffffffffffffffffffffff168152602001908152602001600020549050919050565b6000611414600761244a565b60006114206007612070565b905061142c3382612460565b611436818561267e565b6114408184612729565b8091505092915050565b6060600d805480602002602001604051908101604052809291908181526020016000905b8282101561162457838290600052602060002090600402016040518060800160405290816000820180546114a190613c4d565b80601f01602080910402602001604051908101604052809291908181526020018280546114cd90613c4d565b801561151a5780601f106114ef5761010080835404028352916020019161151a565b820191906000526020600020905b8154815290600101906020018083116114fd57829003601f168201915b5050505050815260200160018201805461153390613c4d565b80601f016020809104026020016040519081016040528092919081815260200182805461155f90613c4d565b80156115ac5780601f10611581576101008083540402835291602001916115ac565b820191906000526020600020905b81548152906001019060200180831161158f57829003601f168201915b50505050508152602001600282015481526020016003820160009054906101000a900473ffffffffffffffffffffffffffffffffffffffff1673ffffffffffffffffffffffffffffffffffffffff1673ffffffffffffffffffffffffffffffffffffffff16815250508152602001906001019061146e565b50505050905090565b60606001805461163c90613c4d565b80601f016020809104026020016040519081016040528092919081815260200182805461166890613c4d565b80156116b55780601f1061168a576101008083540402835291602001916116b5565b820191906000526020600020905b81548152906001019060200180831161169857829003601f168201915b5050505050905090565b600e60009054906101000a900473ffffffffffffffffffffffffffffffffffffffff1681565b6116f76116f0611faf565b838361292c565b5050565b3373ffffffffffffffffffffffffffffffffffffffff16600b60009054906101000a900473ffffffffffffffffffffffffffffffffffffffff1673ffffffffffffffffffffffffffffffffffffffff161461178b576040517f08c379a000000000000000000000000000000000000000000000000000000000815260040161178290614168565b60405180910390fd5b80600a819055507f661c8d2e494b21e778d6b19ffb42ca00ee63062be7f9eb28af0850e01a9cf214600a546040516117c39190613599565b60405180910390a150565b6117df6117d9611faf565b8361207e565b61181e576040517f08c379a000000000000000000000000000000000000000000000000000000000815260040161181590613f46565b60405180910390fd5b61182a84848484612a99565b50505050565b6000600c60008381526020019081526020016000206003015490506000600c600084815260200190815260200160002060010160009054906101000a900473ffffffffffffffffffffffffffffffffffffffff1690508134146118c8576040517f08c379a00000000000000000000000000000000000000000000000000000000081526004016118bf906141fa565b60405180910390fd5b33600c600085815260200190815260200160002060020160006101000a81548173ffffffffffffffffffffffffffffffffffffffff021916908373ffffffffffffffffffffffffffffffffffffffff1602179055506001600c600085815260200190815260200160002060040160006101000a81548160ff0219169083151502179055506000600c600085815260200190815260200160002060010160006101000a81548173ffffffffffffffffffffffffffffffffffffffff021916908373ffffffffffffffffffffffffffffffffffffffff1602179055506119ac600861244a565b6119b7303385612113565b600b60009054906101000a900473ffffffffffffffffffffffffffffffffffffffff1673ffffffffffffffffffffffffffffffffffffffff166108fc600a549081150290604051600060405180830381858888f19350505050158015611a21573d6000803e3d6000fd5b508073ffffffffffffffffffffffffffffffffffffffff166108fc349081150290604051600060405180830381858888f19350505050158015611a68573d6000803e3d6000fd5b50827f92702ca16506c19534081722898e3d74348202feb9cec071d74fc908c67dd03e338385604051611a9d9392919061421a565b60405180910390a2505050565b6060611ab582611f64565b6000600660008481526020019081526020016000208054611ad590613c4d565b80601f0160208091040260200160405190810160405280929190818152602001828054611b0190613c4d565b8015611b4e5780601f10611b2357610100808354040283529160200191611b4e565b820191906000526020600020905b815481529060010190602001808311611b3157829003601f168201915b505050505090506000611b5f612af5565b9050600081511415611b75578192505050611bb8565b600082511115611baa578082604051602001611b9292919061428d565b60405160208183030381529060405292505050611bb8565b611bb384612b0c565b925050505b919050565b3373ffffffffffffffffffffffffffffffffffffffff16600c600084815260200190815260200160002060020160009054906101000a900473ffffffffffffffffffffffffffffffffffffffff1673ffffffffffffffffffffffffffffffffffffffff1614611c61576040517f08c379a0000000000000000000000000000000000000000000000000000000008152600401611c5890614323565b60405180910390fd5b600a543414611ca5576040517f08c379a0000000000000000000000000000000000000000000000000000000008152600401611c9c906143b5565b60405180910390fd5b6000600c600084815260200190815260200160002060040160006101000a81548160ff02191690831515021790555080600c60008481526020019081526020016000206003018190555033600c600084815260200190815260200160002060010160006101000a81548173ffffffffffffffffffffffffffffffffffffffff021916908373ffffffffffffffffffffffffffffffffffffffff16021790555030600c600084815260200190815260200160002060020160006101000a81548173ffffffffffffffffffffffffffffffffffffffff021916908373ffffffffffffffffffffffffffffffffffffffff160217905550611da36008612b74565b611dae333084612113565b817fc6b0d13d6c1af02bfe5761531c93b25f6078fbae63c013f2afb85a0a42ffc1f3333084604051611de29392919061421a565b60405180910390a25050565b6000600560008473ffffffffffffffffffffffffffffffffffffffff1673ffffffffffffffffffffffffffffffffffffffff16815260200190815260200160002060008373ffffffffffffffffffffffffffffffffffffffff1673ffffffffffffffffffffffffffffffffffffffff16815260200190815260200160002060009054906101000a900460ff16905092915050565b60007f80ac58cd000000000000000000000000000000000000000000000000000000007bffffffffffffffffffffffffffffffffffffffffffffffffffffffff1916827bffffffffffffffffffffffffffffffffffffffffffffffffffffffff19161480611f4d57507f5b5e139f000000000000000000000000000000000000000000000000000000007bffffffffffffffffffffffffffffffffffffffffffffffffffffffff1916827bffffffffffffffffffffffffffffffffffffffffffffffffffffffff1916145b80611f5d5750611f5c82612bd0565b5b9050919050565b611f6d81612c3a565b611fac576040517f08c379a0000000000000000000000000000000000000000000000000000000008152600401611fa390613fb2565b60405180910390fd5b50565b600033905090565b816004600083815260200190815260200160002060006101000a81548173ffffffffffffffffffffffffffffffffffffffff021916908373ffffffffffffffffffffffffffffffffffffffff160217905550808273ffffffffffffffffffffffffffffffffffffffff1661202a8361112a565b73ffffffffffffffffffffffffffffffffffffffff167f8c5be1e5ebec7d5bd14f71427d1e84f3dd0314c0f7b2291e5b200ac8c7c3b92560405160405180910390a45050565b600081600001549050919050565b60008061208a8361112a565b90508073ffffffffffffffffffffffffffffffffffffffff168473ffffffffffffffffffffffffffffffffffffffff1614806120cc57506120cb8185611dee565b5b8061210a57508373ffffffffffffffffffffffffffffffffffffffff166120f2846106bc565b73ffffffffffffffffffffffffffffffffffffffff16145b91505092915050565b8273ffffffffffffffffffffffffffffffffffffffff166121338261112a565b73ffffffffffffffffffffffffffffffffffffffff1614612189576040517f08c379a000000000000000000000000000000000000000000000000000000000815260040161218090614447565b60405180910390fd5b600073ffffffffffffffffffffffffffffffffffffffff168273ffffffffffffffffffffffffffffffffffffffff1614156121f9576040517f08c379a00000000000000000000000000000000000000000000000000000000081526004016121f0906144d9565b60405180910390fd5b6122068383836001612c7b565b8273ffffffffffffffffffffffffffffffffffffffff166122268261112a565b73ffffffffffffffffffffffffffffffffffffffff161461227c576040517f08c379a000000000000000000000000000000000000000000000000000000000815260040161227390614447565b60405180910390fd5b6004600082815260200190815260200160002060006101000a81549073ffffffffffffffffffffffffffffffffffffffff02191690556001600360008573ffffffffffffffffffffffffffffffffffffffff1673ffffffffffffffffffffffffffffffffffffffff168152602001908152602001600020600082825403925050819055506001600360008473ffffffffffffffffffffffffffffffffffffffff1673ffffffffffffffffffffffffffffffffffffffff16815260200190815260200160002060008282540192505081905550816002600083815260200190815260200160002060006101000a81548173ffffffffffffffffffffffffffffffffffffffff021916908373ffffffffffffffffffffffffffffffffffffffff160217905550808273ffffffffffffffffffffffffffffffffffffffff168473ffffffffffffffffffffffffffffffffffffffff167fddf252ad1be2c89b69c2b068fc378daa952ba7f163c4a11628f55a4df523b3ef60405160405180910390a46124088383836001612c81565b505050565b60006002600083815260200190815260200160002060009054906101000a900473ffffffffffffffffffffffffffffffffffffffff169050919050565b6001816000016000828254019250508190555050565b600073ffffffffffffffffffffffffffffffffffffffff168273ffffffffffffffffffffffffffffffffffffffff1614156124d0576040517f08c379a00000000000000000000000000000000000000000000000000000000081526004016124c790614545565b60405180910390fd5b6124d981612c3a565b15612519576040517f08c379a0000000000000000000000000000000000000000000000000000000008152600401612510906145b1565b60405180910390fd5b612527600083836001612c7b565b61253081612c3a565b15612570576040517f08c379a0000000000000000000000000000000000000000000000000000000008152600401612567906145b1565b60405180910390fd5b6001600360008473ffffffffffffffffffffffffffffffffffffffff1673ffffffffffffffffffffffffffffffffffffffff16815260200190815260200160002060008282540192505081905550816002600083815260200190815260200160002060006101000a81548173ffffffffffffffffffffffffffffffffffffffff021916908373ffffffffffffffffffffffffffffffffffffffff160217905550808273ffffffffffffffffffffffffffffffffffffffff16600073ffffffffffffffffffffffffffffffffffffffff167fddf252ad1be2c89b69c2b068fc378daa952ba7f163c4a11628f55a4df523b3ef60405160405180910390a461267a600083836001612c81565b5050565b61268782612c3a565b6126c6576040517f08c379a00000000000000000000000000000000000000000000000000000000081526004016126bd90614643565b60405180910390fd5b806006600084815260200190815260200160002090805190602001906126ed9291906130ba565b507ff8e1a15aba9398e019f0b49df1a4fde98ee17ae345cb5f6b5e2c27f5033e8ce78260405161271d9190613599565b60405180910390a15050565b6000811161276c576040517f08c379a0000000000000000000000000000000000000000000000000000000008152600401612763906146af565b60405180910390fd5b600a5434146127b0576040517f08c379a00000000000000000000000000000000000000000000000000000000081526004016127a7906143b5565b60405180910390fd5b6040518060a001604052808381526020013373ffffffffffffffffffffffffffffffffffffffff1681526020013073ffffffffffffffffffffffffffffffffffffffff16815260200182815260200160001515815250600c60008481526020019081526020016000206000820151816000015560208201518160010160006101000a81548173ffffffffffffffffffffffffffffffffffffffff021916908373ffffffffffffffffffffffffffffffffffffffff16021790555060408201518160020160006101000a81548173ffffffffffffffffffffffffffffffffffffffff021916908373ffffffffffffffffffffffffffffffffffffffff1602179055506060820151816003015560808201518160040160006101000a81548160ff0219169083151502179055509050506128e9333084612113565b817fb640004f1d14576d0c209e240cad0410e0d8c0c33a09375861fbadae2588a98d333084600060405161292094939291906146cf565b60405180910390a25050565b8173ffffffffffffffffffffffffffffffffffffffff168373ffffffffffffffffffffffffffffffffffffffff16141561299b576040517f08c379a000000000000000000000000000000000000000000000000000000000815260040161299290614760565b60405180910390fd5b80600560008573ffffffffffffffffffffffffffffffffffffffff1673ffffffffffffffffffffffffffffffffffffffff16815260200190815260200160002060008473ffffffffffffffffffffffffffffffffffffffff1673ffffffffffffffffffffffffffffffffffffffff16815260200190815260200160002060006101000a81548160ff0219169083151502179055508173ffffffffffffffffffffffffffffffffffffffff168373ffffffffffffffffffffffffffffffffffffffff167f17307eab39ab6107e8899845ad3d59bd9653f200f220920489ca2b5937696c3183604051612a8c9190613211565b60405180910390a3505050565b612aa4848484612113565b612ab084848484612c87565b612aef576040517f08c379a0000000000000000000000000000000000000000000000000000000008152600401612ae6906147f2565b60405180910390fd5b50505050565b606060405180602001604052806000815250905090565b6060612b1782611f64565b6000612b21612af5565b90506000815111612b415760405180602001604052806000815250612b6c565b80612b4b84612e0f565b604051602001612b5c92919061428d565b6040516020818303038152906040525b915050919050565b60008160000154905060008111612bc0576040517f08c379a0000000000000000000000000000000000000000000000000000000008152600401612bb79061485e565b60405180910390fd5b6001810382600001819055505050565b60007f01ffc9a7000000000000000000000000000000000000000000000000000000007bffffffffffffffffffffffffffffffffffffffffffffffffffffffff1916827bffffffffffffffffffffffffffffffffffffffffffffffffffffffff1916149050919050565b60008073ffffffffffffffffffffffffffffffffffffffff16612c5c8361240d565b73ffffffffffffffffffffffffffffffffffffffff1614159050919050565b50505050565b50505050565b6000612ca88473ffffffffffffffffffffffffffffffffffffffff16612ee7565b15612e02578373ffffffffffffffffffffffffffffffffffffffff1663150b7a02612cd1611faf565b8786866040518563ffffffff1660e01b8152600401612cf394939291906148d3565b6020604051808303816000875af1925050508015612d2f57506040513d601f19601f82011682018060405250810190612d2c9190614934565b60015b612db2573d8060008114612d5f576040519150601f19603f3d011682016040523d82523d6000602084013e612d64565b606091505b50600081511415612daa576040517f08c379a0000000000000000000000000000000000000000000000000000000008152600401612da1906147f2565b60405180910390fd5b805181602001fd5b63150b7a0260e01b7bffffffffffffffffffffffffffffffffffffffffffffffffffffffff1916817bffffffffffffffffffffffffffffffffffffffffffffffffffffffff191614915050612e07565b600190505b949350505050565b606060006001612e1e84612f0a565b01905060008167ffffffffffffffff811115612e3d57612e3c613611565b5b6040519080825280601f01601f191660200182016040528015612e6f5781602001600182028036833780820191505090505b509050600082602001820190505b600115612edc578080600190039150507f3031323334353637383961626364656600000000000000000000000000000000600a86061a8153600a8581612ec657612ec5614961565b5b0494506000851415612ed757612edc565b612e7d565b819350505050919050565b6000808273ffffffffffffffffffffffffffffffffffffffff163b119050919050565b600080600090507a184f03e93ff9f4daa797ed6e38ed64bf6a1f0100000000000000008310612f68577a184f03e93ff9f4daa797ed6e38ed64bf6a1f0100000000000000008381612f5e57612f5d614961565b5b0492506040810190505b6d04ee2d6d415b85acef81000000008310612fa5576d04ee2d6d415b85acef81000000008381612f9b57612f9a614961565b5b0492506020810190505b662386f26fc100008310612fd457662386f26fc100008381612fca57612fc9614961565b5b0492506010810190505b6305f5e1008310612ffd576305f5e1008381612ff357612ff2614961565b5b0492506008810190505b612710831061302257612710838161301857613017614961565b5b0492506004810190505b60648310613045576064838161303b5761303a614961565b5b0492506002810190505b600a8310613054576001810190505b80915050919050565b6040518060a0016040528060008152602001600073ffffffffffffffffffffffffffffffffffffffff168152602001600073ffffffffffffffffffffffffffffffffffffffff168152602001600081526020016000151581525090565b8280546130c690613c4d565b90600052602060002090601f0160209004810192826130e8576000855561312f565b82601f1061310157805160ff191683800117855561312f565b8280016001018555821561312f579182015b8281111561312e578251825591602001919060010190613113565b5b50905061313c9190613140565b5090565b5b80821115613159576000816000905550600101613141565b5090565b6000604051905090565b600080fd5b600080fd5b60007fffffffff0000000000000000000000000000000000000000000000000000000082169050919050565b6131a681613171565b81146131b157600080fd5b50565b6000813590506131c38161319d565b92915050565b6000602082840312156131df576131de613167565b5b60006131ed848285016131b4565b91505092915050565b60008115159050919050565b61320b816131f6565b82525050565b60006020820190506132266000830184613202565b92915050565b600081519050919050565b600082825260208201905092915050565b60005b8381101561326657808201518184015260208101905061324b565b83811115613275576000848401525b50505050565b6000601f19601f8301169050919050565b60006132978261322c565b6132a18185613237565b93506132b1818560208601613248565b6132ba8161327b565b840191505092915050565b600060208201905081810360008301526132df818461328c565b905092915050565b6000819050919050565b6132fa816132e7565b811461330557600080fd5b50565b600081359050613317816132f1565b92915050565b60006020828403121561333357613332613167565b5b600061334184828501613308565b91505092915050565b600073ffffffffffffffffffffffffffffffffffffffff82169050919050565b60006133758261334a565b9050919050565b6133858161336a565b82525050565b60006020820190506133a0600083018461337c565b92915050565b6133af8161336a565b81146133ba57600080fd5b50565b6000813590506133cc816133a6565b92915050565b600080604083850312156133e9576133e8613167565b5b60006133f7858286016133bd565b925050602061340885828601613308565b9150509250929050565b600081519050919050565b600082825260208201905092915050565b6000819050602082019050919050565b613447816132e7565b82525050565b60006134588261334a565b9050919050565b6134688161344d565b82525050565b613477816131f6565b82525050565b60a082016000820151613493600085018261343e565b5060208201516134a6602085018261345f565b5060408201516134b9604085018261345f565b5060608201516134cc606085018261343e565b5060808201516134df608085018261346e565b50505050565b60006134f1838361347d565b60a08301905092915050565b6000602082019050919050565b600061351582613412565b61351f818561341d565b935061352a8361342e565b8060005b8381101561355b57815161354288826134e5565b975061354d836134fd565b92505060018101905061352e565b5085935050505092915050565b60006020820190508181036000830152613582818461350a565b905092915050565b613593816132e7565b82525050565b60006020820190506135ae600083018461358a565b92915050565b6000806000606084860312156135cd576135cc613167565b5b60006135db868287016133bd565b93505060206135ec868287016133bd565b92505060406135fd86828701613308565b9150509250925092565b600080fd5b600080fd5b7f4e487b7100000000000000000000000000000000000000000000000000000000600052604160045260246000fd5b6136498261327b565b810181811067ffffffffffffffff8211171561366857613667613611565b5b80604052505050565b600061367b61315d565b90506136878282613640565b919050565b600067ffffffffffffffff8211156136a7576136a6613611565b5b6136b08261327b565b9050602081019050919050565b82818337600083830152505050565b60006136df6136da8461368c565b613671565b9050828152602081018484840111156136fb576136fa61360c565b5b6137068482856136bd565b509392505050565b600082601f83011261372357613722613607565b5b81356137338482602086016136cc565b91505092915050565b6000806040838503121561375357613752613167565b5b600083013567ffffffffffffffff8111156137715761377061316c565b5b61377d8582860161370e565b925050602083013567ffffffffffffffff81111561379e5761379d61316c565b5b6137aa8582860161370e565b9150509250929050565b6000602082840312156137ca576137c9613167565b5b60006137d8848285016133bd565b91505092915050565b600080604083850312156137f8576137f7613167565b5b600083013567ffffffffffffffff8111156138165761381561316c565b5b6138228582860161370e565b925050602061383385828601613308565b9150509250929050565b600081519050919050565b600082825260208201905092915050565b6000819050602082019050919050565b600082825260208201905092915050565b60006138858261322c565b61388f8185613869565b935061389f818560208601613248565b6138a88161327b565b840191505092915050565b6138bc8161336a565b82525050565b600060808301600083015184820360008601526138df828261387a565b915050602083015184820360208601526138f9828261387a565b915050604083015161390e604086018261343e565b50606083015161392160608601826138b3565b508091505092915050565b600061393883836138c2565b905092915050565b6000602082019050919050565b60006139588261383d565b6139628185613848565b93508360208202850161397485613859565b8060005b858110156139b05784840389528151613991858261392c565b945061399c83613940565b925060208a01995050600181019050613978565b50829750879550505050505092915050565b600060208201905081810360008301526139dc818461394d565b905092915050565b6139ed8161344d565b82525050565b6000602082019050613a0860008301846139e4565b92915050565b613a17816131f6565b8114613a2257600080fd5b50565b600081359050613a3481613a0e565b92915050565b60008060408385031215613a5157613a50613167565b5b6000613a5f858286016133bd565b9250506020613a7085828601613a25565b9150509250929050565b600067ffffffffffffffff821115613a9557613a94613611565b5b613a9e8261327b565b9050602081019050919050565b6000613abe613ab984613a7a565b613671565b905082815260208101848484011115613ada57613ad961360c565b5b613ae58482856136bd565b509392505050565b600082601f830112613b0257613b01613607565b5b8135613b12848260208601613aab565b91505092915050565b60008060008060808587031215613b3557613b34613167565b5b6000613b43878288016133bd565b9450506020613b54878288016133bd565b9350506040613b6587828801613308565b925050606085013567ffffffffffffffff811115613b8657613b8561316c565b5b613b9287828801613aed565b91505092959194509250565b60008060408385031215613bb557613bb4613167565b5b6000613bc385828601613308565b9250506020613bd485828601613308565b9150509250929050565b60008060408385031215613bf557613bf4613167565b5b6000613c03858286016133bd565b9250506020613c14858286016133bd565b9150509250929050565b7f4e487b7100000000000000000000000000000000000000000000000000000000600052602260045260246000fd5b60006002820490506001821680613c6557607f821691505b60208210811415613c7957613c78613c1e565b5b50919050565b7f4552433732313a20617070726f76616c20746f2063757272656e74206f776e6560008201527f7200000000000000000000000000000000000000000000000000000000000000602082015250565b6000613cdb602183613237565b9150613ce682613c7f565b604082019050919050565b60006020820190508181036000830152613d0a81613cce565b9050919050565b7f4552433732313a20617070726f76652063616c6c6572206973206e6f7420746f60008201527f6b656e206f776e6572206f7220617070726f76656420666f7220616c6c000000602082015250565b6000613d6d603d83613237565b9150613d7882613d11565b604082019050919050565b60006020820190508181036000830152613d9c81613d60565b9050919050565b7f4e487b7100000000000000000000000000000000000000000000000000000000600052601160045260246000fd5b6000613ddd826132e7565b9150613de8836132e7565b925082821015613dfb57613dfa613da3565b5b828203905092915050565b6000613e11826132e7565b9150613e1c836132e7565b9250827fffffffffffffffffffffffffffffffffffffffffffffffffffffffffffffffff03821115613e5157613e50613da3565b5b828201905092915050565b7f4e487b7100000000000000000000000000000000000000000000000000000000600052603260045260246000fd5b6000613e96826132e7565b91507fffffffffffffffffffffffffffffffffffffffffffffffffffffffffffffffff821415613ec957613ec8613da3565b5b600182019050919050565b7f4552433732313a2063616c6c6572206973206e6f7420746f6b656e206f776e6560008201527f72206f7220617070726f76656400000000000000000000000000000000000000602082015250565b6000613f30602d83613237565b9150613f3b82613ed4565b604082019050919050565b60006020820190508181036000830152613f5f81613f23565b9050919050565b7f4552433732313a20696e76616c696420746f6b656e2049440000000000000000600082015250565b6000613f9c601883613237565b9150613fa782613f66565b602082019050919050565b60006020820190508181036000830152613fcb81613f8f565b9050919050565b7f506c656173652070617920736f6d657468696e6720677265617465722074686160008201527f6e20300000000000000000000000000000000000000000000000000000000000602082015250565b600061402e602383613237565b915061403982613fd2565b604082019050919050565b6000602082019050818103600083015261405d81614021565b9050919050565b7f4552433732313a2061646472657373207a65726f206973206e6f74206120766160008201527f6c6964206f776e65720000000000000000000000000000000000000000000000602082015250565b60006140c0602983613237565b91506140cb82614064565b604082019050919050565b600060208201905081810360008301526140ef816140b3565b9050919050565b7f4f6e6c79206d61726b6574706c616365206f776e65722063616e20757064617460008201527f65206c697374696e672070726963652e00000000000000000000000000000000602082015250565b6000614152603083613237565b915061415d826140f6565b604082019050919050565b6000602082019050818103600083015261418181614145565b9050919050565b7f506c65617365207375626d6974207468652061736b696e67207072696365206960008201527f6e206f7264657220746f20636f6d706c65746520746865207075726368617365602082015250565b60006141e4604083613237565b91506141ef82614188565b604082019050919050565b60006020820190508181036000830152614213816141d7565b9050919050565b600060608201905061422f600083018661337c565b61423c602083018561337c565b614249604083018461358a565b949350505050565b600081905092915050565b60006142678261322c565b6142718185614251565b9350614281818560208601613248565b80840191505092915050565b6000614299828561425c565b91506142a5828461425c565b91508190509392505050565b7f4f6e6c79206974656d206f776e65722063616e20706572666f726d207468697360008201527f206f7065726174696f6e00000000000000000000000000000000000000000000602082015250565b600061430d602a83613237565b9150614318826142b1565b604082019050919050565b6000602082019050818103600083015261433c81614300565b9050919050565b7f5072696365206d75737420626520657175616c20746f206c697374696e67207060008201527f7269636500000000000000000000000000000000000000000000000000000000602082015250565b600061439f602483613237565b91506143aa82614343565b604082019050919050565b600060208201905081810360008301526143ce81614392565b9050919050565b7f4552433732313a207472616e736665722066726f6d20696e636f72726563742060008201527f6f776e6572000000000000000000000000000000000000000000000000000000602082015250565b6000614431602583613237565b915061443c826143d5565b604082019050919050565b6000602082019050818103600083015261446081614424565b9050919050565b7f4552433732313a207472616e7366657220746f20746865207a65726f2061646460008201527f7265737300000000000000000000000000000000000000000000000000000000602082015250565b60006144c3602483613237565b91506144ce82614467565b604082019050919050565b600060208201905081810360008301526144f2816144b6565b9050919050565b7f4552433732313a206d696e7420746f20746865207a65726f2061646472657373600082015250565b600061452f602083613237565b915061453a826144f9565b602082019050919050565b6000602082019050818103600083015261455e81614522565b9050919050565b7f4552433732313a20746f6b656e20616c7265616479206d696e74656400000000600082015250565b600061459b601c83613237565b91506145a682614565565b602082019050919050565b600060208201905081810360008301526145ca8161458e565b9050919050565b7f45524337323155524953746f726167653a2055524920736574206f66206e6f6e60008201527f6578697374656e7420746f6b656e000000000000000000000000000000000000602082015250565b600061462d602e83613237565b9150614638826145d1565b604082019050919050565b6000602082019050818103600083015261465c81614620565b9050919050565b7f5072696365206d757374206265206174206c6561737420312077656900000000600082015250565b6000614699601c83613237565b91506146a482614663565b602082019050919050565b600060208201905081810360008301526146c88161468c565b9050919050565b60006080820190506146e4600083018761337c565b6146f1602083018661337c565b6146fe604083018561358a565b61470b6060830184613202565b95945050505050565b7f4552433732313a20617070726f766520746f2063616c6c657200000000000000600082015250565b600061474a601983613237565b915061475582614714565b602082019050919050565b600060208201905081810360008301526147798161473d565b9050919050565b7f4552433732313a207472616e7366657220746f206e6f6e20455243373231526560008201527f63656976657220696d706c656d656e7465720000000000000000000000000000602082015250565b60006147dc603283613237565b91506147e782614780565b604082019050919050565b6000602082019050818103600083015261480b816147cf565b9050919050565b7f436f756e7465723a2064656372656d656e74206f766572666c6f770000000000600082015250565b6000614848601b83613237565b915061485382614812565b602082019050919050565b600060208201905081810360008301526148778161483b565b9050919050565b600081519050919050565b600082825260208201905092915050565b60006148a58261487e565b6148af8185614889565b93506148bf818560208601613248565b6148c88161327b565b840191505092915050565b60006080820190506148e8600083018761337c565b6148f5602083018661337c565b614902604083018561358a565b8181036060830152614914818461489a565b905095945050505050565b60008151905061492e8161319d565b92915050565b60006020828403121561494a57614949613167565b5b60006149588482850161491f565b91505092915050565b7f4e487b7100000000000000000000000000000000000000000000000000000000600052601260045260246000fdfea26469706673582212205b16453ee68bae62be030555050b7206b6cdbdd0d94a32e12b63b2f993ca8eb064736f6c634300080a0033",
  "linkReferences": {},
  "deployedLinkReferences": {}
}